{
	"contracts/erc20.sol": {
		"CryptosICO": {
			"abi": [
				{
					"inputs": [
						{
							"internalType": "address payable",
							"name": "_deposit",
							"type": "address"
						}
					],
					"stateMutability": "nonpayable",
					"type": "constructor"
				},
				{
					"anonymous": false,
					"inputs": [
						{
							"indexed": true,
							"internalType": "address",
							"name": "tokenOwner",
							"type": "address"
						},
						{
							"indexed": true,
							"internalType": "address",
							"name": "spender",
							"type": "address"
						},
						{
							"indexed": false,
							"internalType": "uint256",
							"name": "tokens",
							"type": "uint256"
						}
					],
					"name": "Approval",
					"type": "event"
				},
				{
					"anonymous": false,
					"inputs": [
						{
							"indexed": false,
							"internalType": "address",
							"name": "investor",
							"type": "address"
						},
						{
							"indexed": false,
							"internalType": "uint256",
							"name": "value",
							"type": "uint256"
						},
						{
							"indexed": false,
							"internalType": "uint256",
							"name": "tokens",
							"type": "uint256"
						}
					],
					"name": "Invest",
					"type": "event"
				},
				{
					"anonymous": false,
					"inputs": [
						{
							"indexed": true,
							"internalType": "address",
							"name": "from",
							"type": "address"
						},
						{
							"indexed": true,
							"internalType": "address",
							"name": "to",
							"type": "address"
						},
						{
							"indexed": false,
							"internalType": "uint256",
							"name": "tokens",
							"type": "uint256"
						}
					],
					"name": "Transfer",
					"type": "event"
				},
				{
					"inputs": [],
					"name": "admin",
					"outputs": [
						{
							"internalType": "address",
							"name": "",
							"type": "address"
						}
					],
					"stateMutability": "view",
					"type": "function"
				},
				{
					"inputs": [
						{
							"internalType": "address",
							"name": "tokenOwner",
							"type": "address"
						},
						{
							"internalType": "address",
							"name": "spender",
							"type": "address"
						}
					],
					"name": "allowance",
					"outputs": [
						{
							"internalType": "uint256",
							"name": "remaining",
							"type": "uint256"
						}
					],
					"stateMutability": "view",
					"type": "function"
				},
				{
					"inputs": [
						{
							"internalType": "address",
							"name": "spender",
							"type": "address"
						},
						{
							"internalType": "uint256",
							"name": "tokens",
							"type": "uint256"
						}
					],
					"name": "approve",
					"outputs": [
						{
							"internalType": "bool",
							"name": "success",
							"type": "bool"
						}
					],
					"stateMutability": "nonpayable",
					"type": "function"
				},
				{
					"inputs": [
						{
							"internalType": "address",
							"name": "tokenowner",
							"type": "address"
						}
					],
					"name": "balanceOf",
					"outputs": [
						{
							"internalType": "uint256",
							"name": "balance",
							"type": "uint256"
						}
					],
					"stateMutability": "view",
					"type": "function"
				},
				{
					"inputs": [
						{
							"internalType": "address",
							"name": "",
							"type": "address"
						}
					],
					"name": "balances",
					"outputs": [
						{
							"internalType": "uint256",
							"name": "",
							"type": "uint256"
						}
					],
					"stateMutability": "view",
					"type": "function"
				},
				{
					"inputs": [],
					"name": "burn",
					"outputs": [
						{
							"internalType": "bool",
							"name": "",
							"type": "bool"
						}
					],
					"stateMutability": "nonpayable",
					"type": "function"
				},
				{
					"inputs": [
						{
							"internalType": "address payable",
							"name": "newDeposit",
							"type": "address"
						}
					],
					"name": "changeDepositAddress",
					"outputs": [],
					"stateMutability": "nonpayable",
					"type": "function"
				},
				{
					"inputs": [],
					"name": "decimals",
					"outputs": [
						{
							"internalType": "uint256",
							"name": "",
							"type": "uint256"
						}
					],
					"stateMutability": "view",
					"type": "function"
				},
				{
					"inputs": [],
					"name": "deposit",
					"outputs": [
						{
							"internalType": "address payable",
							"name": "",
							"type": "address"
						}
					],
					"stateMutability": "view",
					"type": "function"
				},
				{
					"inputs": [],
					"name": "founder",
					"outputs": [
						{
							"internalType": "address",
							"name": "",
							"type": "address"
						}
					],
					"stateMutability": "view",
					"type": "function"
				},
				{
					"inputs": [],
					"name": "getCurrentState",
					"outputs": [
						{
							"internalType": "enum CryptosICO.State",
							"name": "s",
							"type": "uint8"
						}
					],
					"stateMutability": "view",
					"type": "function"
				},
				{
					"inputs": [],
					"name": "halt",
					"outputs": [],
					"stateMutability": "nonpayable",
					"type": "function"
				},
				{
					"inputs": [],
					"name": "hardCap",
					"outputs": [
						{
							"internalType": "uint256",
							"name": "",
							"type": "uint256"
						}
					],
					"stateMutability": "view",
					"type": "function"
				},
				{
					"inputs": [],
					"name": "icoState",
					"outputs": [
						{
							"internalType": "enum CryptosICO.State",
							"name": "",
							"type": "uint8"
						}
					],
					"stateMutability": "view",
					"type": "function"
				},
				{
					"inputs": [],
					"name": "invest",
					"outputs": [
						{
							"internalType": "bool",
							"name": "",
							"type": "bool"
						}
					],
					"stateMutability": "payable",
					"type": "function"
				},
				{
					"inputs": [],
					"name": "maxInverstment",
					"outputs": [
						{
							"internalType": "uint256",
							"name": "",
							"type": "uint256"
						}
					],
					"stateMutability": "view",
					"type": "function"
				},
				{
					"inputs": [],
					"name": "minInverstment",
					"outputs": [
						{
							"internalType": "uint256",
							"name": "",
							"type": "uint256"
						}
					],
					"stateMutability": "view",
					"type": "function"
				},
				{
					"inputs": [],
					"name": "name",
					"outputs": [
						{
							"internalType": "string",
							"name": "",
							"type": "string"
						}
					],
					"stateMutability": "view",
					"type": "function"
				},
				{
					"inputs": [],
					"name": "resume",
					"outputs": [],
					"stateMutability": "nonpayable",
					"type": "function"
				},
				{
					"inputs": [],
					"name": "saleEnd",
					"outputs": [
						{
							"internalType": "uint256",
							"name": "",
							"type": "uint256"
						}
					],
					"stateMutability": "view",
					"type": "function"
				},
				{
					"inputs": [],
					"name": "saleStart",
					"outputs": [
						{
							"internalType": "uint256",
							"name": "",
							"type": "uint256"
						}
					],
					"stateMutability": "view",
					"type": "function"
				},
				{
					"inputs": [],
					"name": "symbol",
					"outputs": [
						{
							"internalType": "string",
							"name": "",
							"type": "string"
						}
					],
					"stateMutability": "view",
					"type": "function"
				},
				{
					"inputs": [],
					"name": "tokenTradeStart",
					"outputs": [
						{
							"internalType": "uint256",
							"name": "",
							"type": "uint256"
						}
					],
					"stateMutability": "view",
					"type": "function"
				},
				{
					"inputs": [],
					"name": "totalRaisedAmount",
					"outputs": [
						{
							"internalType": "uint256",
							"name": "",
							"type": "uint256"
						}
					],
					"stateMutability": "view",
					"type": "function"
				},
				{
					"inputs": [],
					"name": "totalSupply",
					"outputs": [
						{
							"internalType": "uint256",
							"name": "",
							"type": "uint256"
						}
					],
					"stateMutability": "view",
					"type": "function"
				},
				{
					"inputs": [
						{
							"internalType": "address",
							"name": "to",
							"type": "address"
						},
						{
							"internalType": "uint256",
							"name": "tokens",
							"type": "uint256"
						}
					],
					"name": "transfer",
					"outputs": [
						{
							"internalType": "bool",
							"name": "success",
							"type": "bool"
						}
					],
					"stateMutability": "nonpayable",
					"type": "function"
				},
				{
					"inputs": [
						{
							"internalType": "address",
							"name": "from",
							"type": "address"
						},
						{
							"internalType": "address",
							"name": "to",
							"type": "address"
						},
						{
							"internalType": "uint256",
							"name": "tokens",
							"type": "uint256"
						}
					],
					"name": "transferFrom",
					"outputs": [
						{
							"internalType": "bool",
							"name": "success",
							"type": "bool"
						}
					],
					"stateMutability": "nonpayable",
					"type": "function"
				},
				{
					"stateMutability": "payable",
					"type": "receive"
				}
			],
			"devdoc": {
				"kind": "dev",
				"methods": {},
				"version": 1
			},
			"evm": {
				"assembly": "    /* \"contracts/erc20.sol\":3317:8189  contract CryptosICO is Cryptos{... */\n  mstore(0x40, 0x80)\n    /* \"contracts/erc20.sol\":863:892  string public name =\"Cryptos\" */\n  mload(0x40)\n  dup1\n  0x40\n  add\n  0x40\n  mstore\n  dup1\n  0x07\n  dup2\n  mstore\n  0x20\n  add\n  0x43727970746f7300000000000000000000000000000000000000000000000000\n  dup2\n  mstore\n  pop\n  0x00\n  swap1\n  dup2\n  tag_1\n  swap2\n  swap1\n  tag_2\n  jump\t// in\ntag_1:\n  pop\n    /* \"contracts/erc20.sol\":903:931  string public  symbol=\"CRPT\" */\n  mload(0x40)\n  dup1\n  0x40\n  add\n  0x40\n  mstore\n  dup1\n  0x04\n  dup2\n  mstore\n  0x20\n  add\n  0x4352505400000000000000000000000000000000000000000000000000000000\n  dup2\n  mstore\n  pop\n  0x01\n  swap1\n  dup2\n  tag_3\n  swap2\n  swap1\n  tag_2\n  jump\t// in\ntag_3:\n  pop\n    /* \"contracts/erc20.sol\":963:964  0 */\n  0x00\n    /* \"contracts/erc20.sol\":942:964  uint public decimals=0 */\n  0x02\n  sstore\n    /* \"contracts/erc20.sol\":3514:3525  0.001 ether */\n  0x038d7ea4c68000\n    /* \"contracts/erc20.sol\":3498:3525  uint tokenPrice=0.001 ether */\n  0x09\n  sstore\n    /* \"contracts/erc20.sol\":3596:3605  300 ether */\n  0x1043561a8829300000\n    /* \"contracts/erc20.sol\":3575:3605  uint public hardCap =300 ether */\n  0x0a\n  sstore\n    /* \"contracts/erc20.sol\":3722:3737  block.timestamp */\n  timestamp\n    /* \"contracts/erc20.sol\":3700:3737  uint public saleStart=block.timestamp */\n  0x0c\n  sstore\n    /* \"contracts/erc20.sol\":3815:3821  604800 */\n  0x093a80\n    /* \"contracts/erc20.sol\":3799:3814  block.timestamp */\n  timestamp\n    /* \"contracts/erc20.sol\":3799:3821  block.timestamp+604800 */\n  tag_4\n  swap2\n  swap1\n  tag_5\n  jump\t// in\ntag_4:\n    /* \"contracts/erc20.sol\":3779:3821  uint public saleEnd=block.timestamp+604800 */\n  0x0d\n  sstore\n    /* \"contracts/erc20.sol\":3971:3977  604800 */\n  0x093a80\n    /* \"contracts/erc20.sol\":3961:3968  saleEnd */\n  sload(0x0d)\n    /* \"contracts/erc20.sol\":3961:3977  saleEnd + 604800 */\n  tag_6\n  swap2\n  swap1\n  tag_5\n  jump\t// in\ntag_6:\n    /* \"contracts/erc20.sol\":3933:3977  uint public tokenTradeStart=saleEnd + 604800 */\n  0x0e\n  sstore\n    /* \"contracts/erc20.sol\":4093:4100  5 ether */\n  0x4563918244f40000\n    /* \"contracts/erc20.sol\":4065:4100  uint public  maxInverstment=5 ether */\n  0x0f\n  sstore\n    /* \"contracts/erc20.sol\":4139:4148  0.1 ether */\n  0x016345785d8a0000\n    /* \"contracts/erc20.sol\":4111:4148  uint public  minInverstment=0.1 ether */\n  0x10\n  sstore\n    /* \"contracts/erc20.sol\":4334:4488  constructor(address payable _deposit) {... */\n  callvalue\n  dup1\n  iszero\n  tag_7\n  jumpi\n  0x00\n  dup1\n  revert\ntag_7:\n  pop\n  mload(0x40)\n  sub(codesize, bytecodeSize)\n  dup1\n  bytecodeSize\n  dup4\n  codecopy\n  dup2\n  dup2\n  add\n  0x40\n  mstore\n  dup2\n  add\n  swap1\n  tag_8\n  swap2\n  swap1\n  tag_9\n  jump\t// in\ntag_8:\n    /* \"contracts/erc20.sol\":1365:1372  1000000 */\n  0x0f4240\n    /* \"contracts/erc20.sol\":1353:1364  totalSupply */\n  0x03\n    /* \"contracts/erc20.sol\":1353:1372  totalSupply=1000000 */\n  dup2\n  swap1\n  sstore\n  pop\n    /* \"contracts/erc20.sol\":1391:1401  msg.sender */\n  caller\n    /* \"contracts/erc20.sol\":1383:1390  founder */\n  0x04\n  0x00\n    /* \"contracts/erc20.sol\":1383:1401  founder=msg.sender */\n  0x0100\n  exp\n  dup2\n  sload\n  dup2\n  0xffffffffffffffffffffffffffffffffffffffff\n  mul\n  not\n  and\n  swap1\n  dup4\n  0xffffffffffffffffffffffffffffffffffffffff\n  and\n  mul\n  or\n  swap1\n  sstore\n  pop\n    /* \"contracts/erc20.sol\":1430:1441  totalSupply */\n  sload(0x03)\n    /* \"contracts/erc20.sol\":1412:1420  balances */\n  0x05\n    /* \"contracts/erc20.sol\":1412:1429  balances[founder] */\n  0x00\n    /* \"contracts/erc20.sol\":1421:1428  founder */\n  0x04\n  0x00\n  swap1\n  sload\n  swap1\n  0x0100\n  exp\n  swap1\n  div\n  0xffffffffffffffffffffffffffffffffffffffff\n  and\n    /* \"contracts/erc20.sol\":1412:1429  balances[founder] */\n  0xffffffffffffffffffffffffffffffffffffffff\n  and\n  0xffffffffffffffffffffffffffffffffffffffff\n  and\n  dup2\n  mstore\n  0x20\n  add\n  swap1\n  dup2\n  mstore\n  0x20\n  add\n  0x00\n  keccak256\n    /* \"contracts/erc20.sol\":1412:1441  balances[founder]=totalSupply */\n  dup2\n  swap1\n  sstore\n  pop\n    /* \"contracts/erc20.sol\":4395:4403  _deposit */\n  dup1\n    /* \"contracts/erc20.sol\":4387:4394  deposit */\n  0x08\n  0x00\n    /* \"contracts/erc20.sol\":4387:4403  deposit=_deposit */\n  0x0100\n  exp\n  dup2\n  sload\n  dup2\n  0xffffffffffffffffffffffffffffffffffffffff\n  mul\n  not\n  and\n  swap1\n  dup4\n  0xffffffffffffffffffffffffffffffffffffffff\n  and\n  mul\n  or\n  swap1\n  sstore\n  pop\n    /* \"contracts/erc20.sol\":4424:4434  msg.sender */\n  caller\n    /* \"contracts/erc20.sol\":4418:4423  admin */\n  0x07\n  0x00\n    /* \"contracts/erc20.sol\":4418:4434  admin=msg.sender */\n  0x0100\n  exp\n  dup2\n  sload\n  dup2\n  0xffffffffffffffffffffffffffffffffffffffff\n  mul\n  not\n  and\n  swap1\n  dup4\n  0xffffffffffffffffffffffffffffffffffffffff\n  and\n  mul\n  or\n  swap1\n  sstore\n  pop\n    /* \"contracts/erc20.sol\":4458:4475  State.beforeStart */\n  0x00\n    /* \"contracts/erc20.sol\":4449:4457  icoState */\n  0x11\n  0x00\n    /* \"contracts/erc20.sol\":4449:4475  icoState=State.beforeStart */\n  0x0100\n  exp\n  dup2\n  sload\n  dup2\n  0xff\n  mul\n  not\n  and\n  swap1\n  dup4\n  0x03\n  dup2\n  gt\n  iszero\n  tag_14\n  jumpi\n  tag_15\n  tag_16\n  jump\t// in\ntag_15:\ntag_14:\n  mul\n  or\n  swap1\n  sstore\n  pop\n    /* \"contracts/erc20.sol\":4334:4488  constructor(address payable _deposit) {... */\n  pop\n    /* \"contracts/erc20.sol\":3317:8189  contract CryptosICO is Cryptos{... */\n  jump(tag_17)\n    /* \"#utility.yul\":7:106   */\ntag_18:\n    /* \"#utility.yul\":59:65   */\n  0x00\n    /* \"#utility.yul\":93:98   */\n  dup2\n    /* \"#utility.yul\":87:99   */\n  mload\n    /* \"#utility.yul\":77:99   */\n  swap1\n  pop\n    /* \"#utility.yul\":7:106   */\n  swap2\n  swap1\n  pop\n  jump\t// out\n    /* \"#utility.yul\":112:292   */\ntag_19:\n    /* \"#utility.yul\":160:237   */\n  0x4e487b7100000000000000000000000000000000000000000000000000000000\n    /* \"#utility.yul\":157:158   */\n  0x00\n    /* \"#utility.yul\":150:238   */\n  mstore\n    /* \"#utility.yul\":257:261   */\n  0x41\n    /* \"#utility.yul\":254:255   */\n  0x04\n    /* \"#utility.yul\":247:262   */\n  mstore\n    /* \"#utility.yul\":281:285   */\n  0x24\n    /* \"#utility.yul\":278:279   */\n  0x00\n    /* \"#utility.yul\":271:286   */\n  revert\n    /* \"#utility.yul\":298:478   */\ntag_20:\n    /* \"#utility.yul\":346:423   */\n  0x4e487b7100000000000000000000000000000000000000000000000000000000\n    /* \"#utility.yul\":343:344   */\n  0x00\n    /* \"#utility.yul\":336:424   */\n  mstore\n    /* \"#utility.yul\":443:447   */\n  0x22\n    /* \"#utility.yul\":440:441   */\n  0x04\n    /* \"#utility.yul\":433:448   */\n  mstore\n    /* \"#utility.yul\":467:471   */\n  0x24\n    /* \"#utility.yul\":464:465   */\n  0x00\n    /* \"#utility.yul\":457:472   */\n  revert\n    /* \"#utility.yul\":484:804   */\ntag_21:\n    /* \"#utility.yul\":528:534   */\n  0x00\n    /* \"#utility.yul\":565:566   */\n  0x02\n    /* \"#utility.yul\":559:563   */\n  dup3\n    /* \"#utility.yul\":555:567   */\n  div\n    /* \"#utility.yul\":545:567   */\n  swap1\n  pop\n    /* \"#utility.yul\":612:613   */\n  0x01\n    /* \"#utility.yul\":606:610   */\n  dup3\n    /* \"#utility.yul\":602:614   */\n  and\n    /* \"#utility.yul\":633:651   */\n  dup1\n    /* \"#utility.yul\":623:704   */\n  tag_51\n  jumpi\n    /* \"#utility.yul\":689:693   */\n  0x7f\n    /* \"#utility.yul\":681:687   */\n  dup3\n    /* \"#utility.yul\":677:694   */\n  and\n    /* \"#utility.yul\":667:694   */\n  swap2\n  pop\n    /* \"#utility.yul\":623:704   */\ntag_51:\n    /* \"#utility.yul\":751:753   */\n  0x20\n    /* \"#utility.yul\":743:749   */\n  dup3\n    /* \"#utility.yul\":740:754   */\n  lt\n    /* \"#utility.yul\":720:738   */\n  dup2\n    /* \"#utility.yul\":717:755   */\n  sub\n    /* \"#utility.yul\":714:798   */\n  tag_52\n  jumpi\n    /* \"#utility.yul\":770:788   */\n  tag_53\n  tag_20\n  jump\t// in\ntag_53:\n    /* \"#utility.yul\":714:798   */\ntag_52:\n    /* \"#utility.yul\":535:804   */\n  pop\n    /* \"#utility.yul\":484:804   */\n  swap2\n  swap1\n  pop\n  jump\t// out\n    /* \"#utility.yul\":810:951   */\ntag_22:\n    /* \"#utility.yul\":859:863   */\n  0x00\n    /* \"#utility.yul\":882:885   */\n  dup2\n    /* \"#utility.yul\":874:885   */\n  swap1\n  pop\n    /* \"#utility.yul\":905:908   */\n  dup2\n    /* \"#utility.yul\":902:903   */\n  0x00\n    /* \"#utility.yul\":895:909   */\n  mstore\n    /* \"#utility.yul\":939:943   */\n  0x20\n    /* \"#utility.yul\":936:937   */\n  0x00\n    /* \"#utility.yul\":926:944   */\n  keccak256\n    /* \"#utility.yul\":918:944   */\n  swap1\n  pop\n    /* \"#utility.yul\":810:951   */\n  swap2\n  swap1\n  pop\n  jump\t// out\n    /* \"#utility.yul\":957:1050   */\ntag_23:\n    /* \"#utility.yul\":994:1000   */\n  0x00\n    /* \"#utility.yul\":1041:1043   */\n  0x20\n    /* \"#utility.yul\":1036:1038   */\n  0x1f\n    /* \"#utility.yul\":1029:1034   */\n  dup4\n    /* \"#utility.yul\":1025:1039   */\n  add\n    /* \"#utility.yul\":1021:1044   */\n  div\n    /* \"#utility.yul\":1011:1044   */\n  swap1\n  pop\n    /* \"#utility.yul\":957:1050   */\n  swap2\n  swap1\n  pop\n  jump\t// out\n    /* \"#utility.yul\":1056:1163   */\ntag_24:\n    /* \"#utility.yul\":1100:1108   */\n  0x00\n    /* \"#utility.yul\":1150:1155   */\n  dup3\n    /* \"#utility.yul\":1144:1148   */\n  dup3\n    /* \"#utility.yul\":1140:1156   */\n  shl\n    /* \"#utility.yul\":1119:1156   */\n  swap1\n  pop\n    /* \"#utility.yul\":1056:1163   */\n  swap3\n  swap2\n  pop\n  pop\n  jump\t// out\n    /* \"#utility.yul\":1169:1562   */\ntag_25:\n    /* \"#utility.yul\":1238:1244   */\n  0x00\n    /* \"#utility.yul\":1288:1289   */\n  0x08\n    /* \"#utility.yul\":1276:1286   */\n  dup4\n    /* \"#utility.yul\":1272:1290   */\n  mul\n    /* \"#utility.yul\":1311:1408   */\n  tag_58\n    /* \"#utility.yul\":1341:1407   */\n  0xffffffffffffffffffffffffffffffffffffffffffffffffffffffffffffffff\n    /* \"#utility.yul\":1330:1339   */\n  dup3\n    /* \"#utility.yul\":1311:1408   */\n  tag_24\n  jump\t// in\ntag_58:\n    /* \"#utility.yul\":1429:1468   */\n  tag_59\n    /* \"#utility.yul\":1459:1467   */\n  dup7\n    /* \"#utility.yul\":1448:1457   */\n  dup4\n    /* \"#utility.yul\":1429:1468   */\n  tag_24\n  jump\t// in\ntag_59:\n    /* \"#utility.yul\":1417:1468   */\n  swap6\n  pop\n    /* \"#utility.yul\":1501:1505   */\n  dup1\n    /* \"#utility.yul\":1497:1506   */\n  not\n    /* \"#utility.yul\":1490:1495   */\n  dup5\n    /* \"#utility.yul\":1486:1507   */\n  and\n    /* \"#utility.yul\":1477:1507   */\n  swap4\n  pop\n    /* \"#utility.yul\":1550:1554   */\n  dup1\n    /* \"#utility.yul\":1540:1548   */\n  dup7\n    /* \"#utility.yul\":1536:1555   */\n  and\n    /* \"#utility.yul\":1529:1534   */\n  dup5\n    /* \"#utility.yul\":1526:1556   */\n  or\n    /* \"#utility.yul\":1516:1556   */\n  swap3\n  pop\n    /* \"#utility.yul\":1245:1562   */\n  pop\n  pop\n    /* \"#utility.yul\":1169:1562   */\n  swap4\n  swap3\n  pop\n  pop\n  pop\n  jump\t// out\n    /* \"#utility.yul\":1568:1645   */\ntag_26:\n    /* \"#utility.yul\":1605:1612   */\n  0x00\n    /* \"#utility.yul\":1634:1639   */\n  dup2\n    /* \"#utility.yul\":1623:1639   */\n  swap1\n  pop\n    /* \"#utility.yul\":1568:1645   */\n  swap2\n  swap1\n  pop\n  jump\t// out\n    /* \"#utility.yul\":1651:1711   */\ntag_27:\n    /* \"#utility.yul\":1679:1682   */\n  0x00\n    /* \"#utility.yul\":1700:1705   */\n  dup2\n    /* \"#utility.yul\":1693:1705   */\n  swap1\n  pop\n    /* \"#utility.yul\":1651:1711   */\n  swap2\n  swap1\n  pop\n  jump\t// out\n    /* \"#utility.yul\":1717:1859   */\ntag_28:\n    /* \"#utility.yul\":1767:1776   */\n  0x00\n    /* \"#utility.yul\":1800:1853   */\n  tag_63\n    /* \"#utility.yul\":1818:1852   */\n  tag_64\n    /* \"#utility.yul\":1827:1851   */\n  tag_65\n    /* \"#utility.yul\":1845:1850   */\n  dup5\n    /* \"#utility.yul\":1827:1851   */\n  tag_26\n  jump\t// in\ntag_65:\n    /* \"#utility.yul\":1818:1852   */\n  tag_27\n  jump\t// in\ntag_64:\n    /* \"#utility.yul\":1800:1853   */\n  tag_26\n  jump\t// in\ntag_63:\n    /* \"#utility.yul\":1787:1853   */\n  swap1\n  pop\n    /* \"#utility.yul\":1717:1859   */\n  swap2\n  swap1\n  pop\n  jump\t// out\n    /* \"#utility.yul\":1865:1940   */\ntag_29:\n    /* \"#utility.yul\":1908:1911   */\n  0x00\n    /* \"#utility.yul\":1929:1934   */\n  dup2\n    /* \"#utility.yul\":1922:1934   */\n  swap1\n  pop\n    /* \"#utility.yul\":1865:1940   */\n  swap2\n  swap1\n  pop\n  jump\t// out\n    /* \"#utility.yul\":1946:2215   */\ntag_30:\n    /* \"#utility.yul\":2056:2095   */\n  tag_68\n    /* \"#utility.yul\":2087:2094   */\n  dup4\n    /* \"#utility.yul\":2056:2095   */\n  tag_28\n  jump\t// in\ntag_68:\n    /* \"#utility.yul\":2117:2208   */\n  tag_69\n    /* \"#utility.yul\":2166:2207   */\n  tag_70\n    /* \"#utility.yul\":2190:2206   */\n  dup3\n    /* \"#utility.yul\":2166:2207   */\n  tag_29\n  jump\t// in\ntag_70:\n    /* \"#utility.yul\":2158:2164   */\n  dup5\n    /* \"#utility.yul\":2151:2155   */\n  dup5\n    /* \"#utility.yul\":2145:2156   */\n  sload\n    /* \"#utility.yul\":2117:2208   */\n  tag_25\n  jump\t// in\ntag_69:\n    /* \"#utility.yul\":2111:2115   */\n  dup3\n    /* \"#utility.yul\":2104:2209   */\n  sstore\n    /* \"#utility.yul\":2022:2215   */\n  pop\n    /* \"#utility.yul\":1946:2215   */\n  pop\n  pop\n  pop\n  jump\t// out\n    /* \"#utility.yul\":2221:2294   */\ntag_31:\n    /* \"#utility.yul\":2266:2269   */\n  0x00\n    /* \"#utility.yul\":2221:2294   */\n  swap1\n  jump\t// out\n    /* \"#utility.yul\":2300:2489   */\ntag_32:\n    /* \"#utility.yul\":2377:2409   */\n  tag_73\n  tag_31\n  jump\t// in\ntag_73:\n    /* \"#utility.yul\":2418:2483   */\n  tag_74\n    /* \"#utility.yul\":2476:2482   */\n  dup2\n    /* \"#utility.yul\":2468:2474   */\n  dup5\n    /* \"#utility.yul\":2462:2466   */\n  dup5\n    /* \"#utility.yul\":2418:2483   */\n  tag_30\n  jump\t// in\ntag_74:\n    /* \"#utility.yul\":2353:2489   */\n  pop\n    /* \"#utility.yul\":2300:2489   */\n  pop\n  pop\n  jump\t// out\n    /* \"#utility.yul\":2495:2681   */\ntag_33:\n    /* \"#utility.yul\":2555:2675   */\ntag_76:\n    /* \"#utility.yul\":2572:2575   */\n  dup2\n    /* \"#utility.yul\":2565:2570   */\n  dup2\n    /* \"#utility.yul\":2562:2576   */\n  lt\n    /* \"#utility.yul\":2555:2675   */\n  iszero\n  tag_78\n  jumpi\n    /* \"#utility.yul\":2626:2665   */\n  tag_79\n    /* \"#utility.yul\":2663:2664   */\n  0x00\n    /* \"#utility.yul\":2656:2661   */\n  dup3\n    /* \"#utility.yul\":2626:2665   */\n  tag_32\n  jump\t// in\ntag_79:\n    /* \"#utility.yul\":2599:2600   */\n  0x01\n    /* \"#utility.yul\":2592:2597   */\n  dup2\n    /* \"#utility.yul\":2588:2601   */\n  add\n    /* \"#utility.yul\":2579:2601   */\n  swap1\n  pop\n    /* \"#utility.yul\":2555:2675   */\n  jump(tag_76)\ntag_78:\n    /* \"#utility.yul\":2495:2681   */\n  pop\n  pop\n  jump\t// out\n    /* \"#utility.yul\":2687:3230   */\ntag_34:\n    /* \"#utility.yul\":2788:2790   */\n  0x1f\n    /* \"#utility.yul\":2783:2786   */\n  dup3\n    /* \"#utility.yul\":2780:2791   */\n  gt\n    /* \"#utility.yul\":2777:3223   */\n  iszero\n  tag_81\n  jumpi\n    /* \"#utility.yul\":2822:2860   */\n  tag_82\n    /* \"#utility.yul\":2854:2859   */\n  dup2\n    /* \"#utility.yul\":2822:2860   */\n  tag_22\n  jump\t// in\ntag_82:\n    /* \"#utility.yul\":2906:2935   */\n  tag_83\n    /* \"#utility.yul\":2924:2934   */\n  dup5\n    /* \"#utility.yul\":2906:2935   */\n  tag_23\n  jump\t// in\ntag_83:\n    /* \"#utility.yul\":2896:2904   */\n  dup2\n    /* \"#utility.yul\":2892:2936   */\n  add\n    /* \"#utility.yul\":3089:3091   */\n  0x20\n    /* \"#utility.yul\":3077:3087   */\n  dup6\n    /* \"#utility.yul\":3074:3092   */\n  lt\n    /* \"#utility.yul\":3071:3120   */\n  iszero\n  tag_84\n  jumpi\n    /* \"#utility.yul\":3110:3118   */\n  dup2\n    /* \"#utility.yul\":3095:3118   */\n  swap1\n  pop\n    /* \"#utility.yul\":3071:3120   */\ntag_84:\n    /* \"#utility.yul\":3133:3213   */\n  tag_85\n    /* \"#utility.yul\":3189:3211   */\n  tag_86\n    /* \"#utility.yul\":3207:3210   */\n  dup6\n    /* \"#utility.yul\":3189:3211   */\n  tag_23\n  jump\t// in\ntag_86:\n    /* \"#utility.yul\":3179:3187   */\n  dup4\n    /* \"#utility.yul\":3175:3212   */\n  add\n    /* \"#utility.yul\":3162:3173   */\n  dup3\n    /* \"#utility.yul\":3133:3213   */\n  tag_33\n  jump\t// in\ntag_85:\n    /* \"#utility.yul\":2792:3223   */\n  pop\n  pop\n    /* \"#utility.yul\":2777:3223   */\ntag_81:\n    /* \"#utility.yul\":2687:3230   */\n  pop\n  pop\n  pop\n  jump\t// out\n    /* \"#utility.yul\":3236:3353   */\ntag_35:\n    /* \"#utility.yul\":3290:3298   */\n  0x00\n    /* \"#utility.yul\":3340:3345   */\n  dup3\n    /* \"#utility.yul\":3334:3338   */\n  dup3\n    /* \"#utility.yul\":3330:3346   */\n  shr\n    /* \"#utility.yul\":3309:3346   */\n  swap1\n  pop\n    /* \"#utility.yul\":3236:3353   */\n  swap3\n  swap2\n  pop\n  pop\n  jump\t// out\n    /* \"#utility.yul\":3359:3528   */\ntag_36:\n    /* \"#utility.yul\":3403:3409   */\n  0x00\n    /* \"#utility.yul\":3436:3487   */\n  tag_89\n    /* \"#utility.yul\":3484:3485   */\n  0x00\n    /* \"#utility.yul\":3480:3486   */\n  not\n    /* \"#utility.yul\":3472:3477   */\n  dup5\n    /* \"#utility.yul\":3469:3470   */\n  0x08\n    /* \"#utility.yul\":3465:3478   */\n  mul\n    /* \"#utility.yul\":3436:3487   */\n  tag_35\n  jump\t// in\ntag_89:\n    /* \"#utility.yul\":3432:3488   */\n  not\n    /* \"#utility.yul\":3517:3521   */\n  dup1\n    /* \"#utility.yul\":3511:3515   */\n  dup4\n    /* \"#utility.yul\":3507:3522   */\n  and\n    /* \"#utility.yul\":3497:3522   */\n  swap2\n  pop\n    /* \"#utility.yul\":3410:3528   */\n  pop\n    /* \"#utility.yul\":3359:3528   */\n  swap3\n  swap2\n  pop\n  pop\n  jump\t// out\n    /* \"#utility.yul\":3533:3828   */\ntag_37:\n    /* \"#utility.yul\":3609:3613   */\n  0x00\n    /* \"#utility.yul\":3755:3784   */\n  tag_91\n    /* \"#utility.yul\":3780:3783   */\n  dup4\n    /* \"#utility.yul\":3774:3778   */\n  dup4\n    /* \"#utility.yul\":3755:3784   */\n  tag_36\n  jump\t// in\ntag_91:\n    /* \"#utility.yul\":3747:3784   */\n  swap2\n  pop\n    /* \"#utility.yul\":3817:3820   */\n  dup3\n    /* \"#utility.yul\":3814:3815   */\n  0x02\n    /* \"#utility.yul\":3810:3821   */\n  mul\n    /* \"#utility.yul\":3804:3808   */\n  dup3\n    /* \"#utility.yul\":3801:3822   */\n  or\n    /* \"#utility.yul\":3793:3822   */\n  swap1\n  pop\n    /* \"#utility.yul\":3533:3828   */\n  swap3\n  swap2\n  pop\n  pop\n  jump\t// out\n    /* \"#utility.yul\":3833:5228   */\ntag_2:\n    /* \"#utility.yul\":3950:3987   */\n  tag_93\n    /* \"#utility.yul\":3983:3986   */\n  dup3\n    /* \"#utility.yul\":3950:3987   */\n  tag_18\n  jump\t// in\ntag_93:\n    /* \"#utility.yul\":4052:4070   */\n  0xffffffffffffffff\n    /* \"#utility.yul\":4044:4050   */\n  dup2\n    /* \"#utility.yul\":4041:4071   */\n  gt\n    /* \"#utility.yul\":4038:4094   */\n  iszero\n  tag_94\n  jumpi\n    /* \"#utility.yul\":4074:4092   */\n  tag_95\n  tag_19\n  jump\t// in\ntag_95:\n    /* \"#utility.yul\":4038:4094   */\ntag_94:\n    /* \"#utility.yul\":4118:4156   */\n  tag_96\n    /* \"#utility.yul\":4150:4154   */\n  dup3\n    /* \"#utility.yul\":4144:4155   */\n  sload\n    /* \"#utility.yul\":4118:4156   */\n  tag_21\n  jump\t// in\ntag_96:\n    /* \"#utility.yul\":4203:4270   */\n  tag_97\n    /* \"#utility.yul\":4263:4269   */\n  dup3\n    /* \"#utility.yul\":4255:4261   */\n  dup3\n    /* \"#utility.yul\":4249:4253   */\n  dup6\n    /* \"#utility.yul\":4203:4270   */\n  tag_34\n  jump\t// in\ntag_97:\n    /* \"#utility.yul\":4297:4298   */\n  0x00\n    /* \"#utility.yul\":4321:4325   */\n  0x20\n    /* \"#utility.yul\":4308:4325   */\n  swap1\n  pop\n    /* \"#utility.yul\":4353:4355   */\n  0x1f\n    /* \"#utility.yul\":4345:4351   */\n  dup4\n    /* \"#utility.yul\":4342:4356   */\n  gt\n    /* \"#utility.yul\":4370:4371   */\n  0x01\n    /* \"#utility.yul\":4365:4983   */\n  dup2\n  eq\n  tag_99\n  jumpi\n    /* \"#utility.yul\":5027:5028   */\n  0x00\n    /* \"#utility.yul\":5044:5050   */\n  dup5\n    /* \"#utility.yul\":5041:5118   */\n  iszero\n  tag_100\n  jumpi\n    /* \"#utility.yul\":5093:5102   */\n  dup3\n    /* \"#utility.yul\":5088:5091   */\n  dup8\n    /* \"#utility.yul\":5084:5103   */\n  add\n    /* \"#utility.yul\":5078:5104   */\n  mload\n    /* \"#utility.yul\":5069:5104   */\n  swap1\n  pop\n    /* \"#utility.yul\":5041:5118   */\ntag_100:\n    /* \"#utility.yul\":5144:5211   */\n  tag_101\n    /* \"#utility.yul\":5204:5210   */\n  dup6\n    /* \"#utility.yul\":5197:5202   */\n  dup3\n    /* \"#utility.yul\":5144:5211   */\n  tag_37\n  jump\t// in\ntag_101:\n    /* \"#utility.yul\":5138:5142   */\n  dup7\n    /* \"#utility.yul\":5131:5212   */\n  sstore\n    /* \"#utility.yul\":5000:5222   */\n  pop\n    /* \"#utility.yul\":4335:5222   */\n  jump(tag_98)\n    /* \"#utility.yul\":4365:4983   */\ntag_99:\n    /* \"#utility.yul\":4417:4421   */\n  0x1f\n    /* \"#utility.yul\":4413:4422   */\n  not\n    /* \"#utility.yul\":4405:4411   */\n  dup5\n    /* \"#utility.yul\":4401:4423   */\n  and\n    /* \"#utility.yul\":4451:4488   */\n  tag_102\n    /* \"#utility.yul\":4483:4487   */\n  dup7\n    /* \"#utility.yul\":4451:4488   */\n  tag_22\n  jump\t// in\ntag_102:\n    /* \"#utility.yul\":4510:4511   */\n  0x00\n    /* \"#utility.yul\":4524:4732   */\ntag_103:\n    /* \"#utility.yul\":4538:4545   */\n  dup3\n    /* \"#utility.yul\":4535:4536   */\n  dup2\n    /* \"#utility.yul\":4532:4546   */\n  lt\n    /* \"#utility.yul\":4524:4732   */\n  iszero\n  tag_105\n  jumpi\n    /* \"#utility.yul\":4617:4626   */\n  dup5\n    /* \"#utility.yul\":4612:4615   */\n  dup10\n    /* \"#utility.yul\":4608:4627   */\n  add\n    /* \"#utility.yul\":4602:4628   */\n  mload\n    /* \"#utility.yul\":4594:4600   */\n  dup3\n    /* \"#utility.yul\":4587:4629   */\n  sstore\n    /* \"#utility.yul\":4668:4669   */\n  0x01\n    /* \"#utility.yul\":4660:4666   */\n  dup3\n    /* \"#utility.yul\":4656:4670   */\n  add\n    /* \"#utility.yul\":4646:4670   */\n  swap2\n  pop\n    /* \"#utility.yul\":4715:4717   */\n  0x20\n    /* \"#utility.yul\":4704:4713   */\n  dup6\n    /* \"#utility.yul\":4700:4718   */\n  add\n    /* \"#utility.yul\":4687:4718   */\n  swap5\n  pop\n    /* \"#utility.yul\":4561:4565   */\n  0x20\n    /* \"#utility.yul\":4558:4559   */\n  dup2\n    /* \"#utility.yul\":4554:4566   */\n  add\n    /* \"#utility.yul\":4549:4566   */\n  swap1\n  pop\n    /* \"#utility.yul\":4524:4732   */\n  jump(tag_103)\ntag_105:\n    /* \"#utility.yul\":4760:4766   */\n  dup7\n    /* \"#utility.yul\":4751:4758   */\n  dup4\n    /* \"#utility.yul\":4748:4767   */\n  lt\n    /* \"#utility.yul\":4745:4924   */\n  iszero\n  tag_106\n  jumpi\n    /* \"#utility.yul\":4818:4827   */\n  dup5\n    /* \"#utility.yul\":4813:4816   */\n  dup10\n    /* \"#utility.yul\":4809:4828   */\n  add\n    /* \"#utility.yul\":4803:4829   */\n  mload\n    /* \"#utility.yul\":4861:4909   */\n  tag_107\n    /* \"#utility.yul\":4903:4907   */\n  0x1f\n    /* \"#utility.yul\":4895:4901   */\n  dup10\n    /* \"#utility.yul\":4891:4908   */\n  and\n    /* \"#utility.yul\":4880:4889   */\n  dup3\n    /* \"#utility.yul\":4861:4909   */\n  tag_36\n  jump\t// in\ntag_107:\n    /* \"#utility.yul\":4853:4859   */\n  dup4\n    /* \"#utility.yul\":4846:4910   */\n  sstore\n    /* \"#utility.yul\":4768:4924   */\n  pop\n    /* \"#utility.yul\":4745:4924   */\ntag_106:\n    /* \"#utility.yul\":4970:4971   */\n  0x01\n    /* \"#utility.yul\":4966:4967   */\n  0x02\n    /* \"#utility.yul\":4958:4964   */\n  dup9\n    /* \"#utility.yul\":4954:4968   */\n  mul\n    /* \"#utility.yul\":4950:4972   */\n  add\n    /* \"#utility.yul\":4944:4948   */\n  dup9\n    /* \"#utility.yul\":4937:4973   */\n  sstore\n    /* \"#utility.yul\":4372:4983   */\n  pop\n  pop\n  pop\n    /* \"#utility.yul\":4335:5222   */\ntag_98:\n  pop\n    /* \"#utility.yul\":3925:5228   */\n  pop\n  pop\n  pop\n    /* \"#utility.yul\":3833:5228   */\n  pop\n  pop\n  jump\t// out\n    /* \"#utility.yul\":5234:5414   */\ntag_38:\n    /* \"#utility.yul\":5282:5359   */\n  0x4e487b7100000000000000000000000000000000000000000000000000000000\n    /* \"#utility.yul\":5279:5280   */\n  0x00\n    /* \"#utility.yul\":5272:5360   */\n  mstore\n    /* \"#utility.yul\":5379:5383   */\n  0x11\n    /* \"#utility.yul\":5376:5377   */\n  0x04\n    /* \"#utility.yul\":5369:5384   */\n  mstore\n    /* \"#utility.yul\":5403:5407   */\n  0x24\n    /* \"#utility.yul\":5400:5401   */\n  0x00\n    /* \"#utility.yul\":5393:5408   */\n  revert\n    /* \"#utility.yul\":5420:5611   */\ntag_5:\n    /* \"#utility.yul\":5460:5463   */\n  0x00\n    /* \"#utility.yul\":5479:5499   */\n  tag_110\n    /* \"#utility.yul\":5497:5498   */\n  dup3\n    /* \"#utility.yul\":5479:5499   */\n  tag_26\n  jump\t// in\ntag_110:\n    /* \"#utility.yul\":5474:5499   */\n  swap2\n  pop\n    /* \"#utility.yul\":5513:5533   */\n  tag_111\n    /* \"#utility.yul\":5531:5532   */\n  dup4\n    /* \"#utility.yul\":5513:5533   */\n  tag_26\n  jump\t// in\ntag_111:\n    /* \"#utility.yul\":5508:5533   */\n  swap3\n  pop\n    /* \"#utility.yul\":5556:5557   */\n  dup3\n    /* \"#utility.yul\":5553:5554   */\n  dup3\n    /* \"#utility.yul\":5549:5558   */\n  add\n    /* \"#utility.yul\":5542:5558   */\n  swap1\n  pop\n    /* \"#utility.yul\":5577:5580   */\n  dup1\n    /* \"#utility.yul\":5574:5575   */\n  dup3\n    /* \"#utility.yul\":5571:5581   */\n  gt\n    /* \"#utility.yul\":5568:5604   */\n  iszero\n  tag_112\n  jumpi\n    /* \"#utility.yul\":5584:5602   */\n  tag_113\n  tag_38\n  jump\t// in\ntag_113:\n    /* \"#utility.yul\":5568:5604   */\ntag_112:\n    /* \"#utility.yul\":5420:5611   */\n  swap3\n  swap2\n  pop\n  pop\n  jump\t// out\n    /* \"#utility.yul\":5698:5815   */\ntag_40:\n    /* \"#utility.yul\":5807:5808   */\n  0x00\n    /* \"#utility.yul\":5804:5805   */\n  dup1\n    /* \"#utility.yul\":5797:5809   */\n  revert\n    /* \"#utility.yul\":5944:6070   */\ntag_42:\n    /* \"#utility.yul\":5981:5988   */\n  0x00\n    /* \"#utility.yul\":6021:6063   */\n  0xffffffffffffffffffffffffffffffffffffffff\n    /* \"#utility.yul\":6014:6019   */\n  dup3\n    /* \"#utility.yul\":6010:6064   */\n  and\n    /* \"#utility.yul\":5999:6064   */\n  swap1\n  pop\n    /* \"#utility.yul\":5944:6070   */\n  swap2\n  swap1\n  pop\n  jump\t// out\n    /* \"#utility.yul\":6076:6180   */\ntag_43:\n    /* \"#utility.yul\":6121:6128   */\n  0x00\n    /* \"#utility.yul\":6150:6174   */\n  tag_119\n    /* \"#utility.yul\":6168:6173   */\n  dup3\n    /* \"#utility.yul\":6150:6174   */\n  tag_42\n  jump\t// in\ntag_119:\n    /* \"#utility.yul\":6139:6174   */\n  swap1\n  pop\n    /* \"#utility.yul\":6076:6180   */\n  swap2\n  swap1\n  pop\n  jump\t// out\n    /* \"#utility.yul\":6186:6324   */\ntag_44:\n    /* \"#utility.yul\":6267:6299   */\n  tag_121\n    /* \"#utility.yul\":6293:6298   */\n  dup2\n    /* \"#utility.yul\":6267:6299   */\n  tag_43\n  jump\t// in\ntag_121:\n    /* \"#utility.yul\":6260:6265   */\n  dup2\n    /* \"#utility.yul\":6257:6300   */\n  eq\n    /* \"#utility.yul\":6247:6318   */\n  tag_122\n  jumpi\n    /* \"#utility.yul\":6314:6315   */\n  0x00\n    /* \"#utility.yul\":6311:6312   */\n  dup1\n    /* \"#utility.yul\":6304:6316   */\n  revert\n    /* \"#utility.yul\":6247:6318   */\ntag_122:\n    /* \"#utility.yul\":6186:6324   */\n  pop\n  jump\t// out\n    /* \"#utility.yul\":6330:6489   */\ntag_45:\n    /* \"#utility.yul\":6395:6400   */\n  0x00\n    /* \"#utility.yul\":6426:6432   */\n  dup2\n    /* \"#utility.yul\":6420:6433   */\n  mload\n    /* \"#utility.yul\":6411:6433   */\n  swap1\n  pop\n    /* \"#utility.yul\":6442:6483   */\n  tag_124\n    /* \"#utility.yul\":6477:6482   */\n  dup2\n    /* \"#utility.yul\":6442:6483   */\n  tag_44\n  jump\t// in\ntag_124:\n    /* \"#utility.yul\":6330:6489   */\n  swap3\n  swap2\n  pop\n  pop\n  jump\t// out\n    /* \"#utility.yul\":6495:6862   */\ntag_9:\n    /* \"#utility.yul\":6573:6579   */\n  0x00\n    /* \"#utility.yul\":6622:6624   */\n  0x20\n    /* \"#utility.yul\":6610:6619   */\n  dup3\n    /* \"#utility.yul\":6601:6608   */\n  dup5\n    /* \"#utility.yul\":6597:6620   */\n  sub\n    /* \"#utility.yul\":6593:6625   */\n  slt\n    /* \"#utility.yul\":6590:6709   */\n  iszero\n  tag_126\n  jumpi\n    /* \"#utility.yul\":6628:6707   */\n  tag_127\n  tag_40\n  jump\t// in\ntag_127:\n    /* \"#utility.yul\":6590:6709   */\ntag_126:\n    /* \"#utility.yul\":6748:6749   */\n  0x00\n    /* \"#utility.yul\":6773:6845   */\n  tag_128\n    /* \"#utility.yul\":6837:6844   */\n  dup5\n    /* \"#utility.yul\":6828:6834   */\n  dup3\n    /* \"#utility.yul\":6817:6826   */\n  dup6\n    /* \"#utility.yul\":6813:6835   */\n  add\n    /* \"#utility.yul\":6773:6845   */\n  tag_45\n  jump\t// in\ntag_128:\n    /* \"#utility.yul\":6763:6845   */\n  swap2\n  pop\n    /* \"#utility.yul\":6719:6855   */\n  pop\n    /* \"#utility.yul\":6495:6862   */\n  swap3\n  swap2\n  pop\n  pop\n  jump\t// out\n    /* \"#utility.yul\":6868:7048   */\ntag_16:\n    /* \"#utility.yul\":6916:6993   */\n  0x4e487b7100000000000000000000000000000000000000000000000000000000\n    /* \"#utility.yul\":6913:6914   */\n  0x00\n    /* \"#utility.yul\":6906:6994   */\n  mstore\n    /* \"#utility.yul\":7013:7017   */\n  0x21\n    /* \"#utility.yul\":7010:7011   */\n  0x04\n    /* \"#utility.yul\":7003:7018   */\n  mstore\n    /* \"#utility.yul\":7037:7041   */\n  0x24\n    /* \"#utility.yul\":7034:7035   */\n  0x00\n    /* \"#utility.yul\":7027:7042   */\n  revert\n    /* \"contracts/erc20.sol\":3317:8189  contract CryptosICO is Cryptos{... */\ntag_17:\n  dataSize(sub_0)\n  dup1\n  dataOffset(sub_0)\n  0x00\n  codecopy\n  0x00\n  return\nstop\n\nsub_0: assembly {\n        /* \"contracts/erc20.sol\":3317:8189  contract CryptosICO is Cryptos{... */\n      mstore(0x40, 0x80)\n      jumpi(tag_1, lt(calldatasize, 0x04))\n      shr(0xe0, calldataload(0x00))\n      dup1\n      0x6d58c88f\n      gt\n      tag_30\n      jumpi\n      dup1\n      0xc4f2e0ec\n      gt\n      tag_31\n      jumpi\n      dup1\n      0xdd62ed3e\n      gt\n      tag_32\n      jumpi\n      dup1\n      0xdd62ed3e\n      eq\n      tag_26\n      jumpi\n      dup1\n      0xe8b5e51f\n      eq\n      tag_27\n      jumpi\n      dup1\n      0xf851a440\n      eq\n      tag_28\n      jumpi\n      dup1\n      0xfb86a404\n      eq\n      tag_29\n      jumpi\n      jump(tag_2)\n    tag_32:\n      dup1\n      0xc4f2e0ec\n      eq\n      tag_23\n      jumpi\n      dup1\n      0xcc9ba583\n      eq\n      tag_24\n      jumpi\n      dup1\n      0xd0e30db0\n      eq\n      tag_25\n      jumpi\n      jump(tag_2)\n    tag_31:\n      dup1\n      0xa9059cbb\n      gt\n      tag_33\n      jumpi\n      dup1\n      0xa9059cbb\n      eq\n      tag_19\n      jumpi\n      dup1\n      0xab0bcc41\n      eq\n      tag_20\n      jumpi\n      dup1\n      0xac369bb5\n      eq\n      tag_21\n      jumpi\n      dup1\n      0xc10b9358\n      eq\n      tag_22\n      jumpi\n      jump(tag_2)\n    tag_33:\n      dup1\n      0x6d58c88f\n      eq\n      tag_16\n      jumpi\n      dup1\n      0x70a08231\n      eq\n      tag_17\n      jumpi\n      dup1\n      0x95d89b41\n      eq\n      tag_18\n      jumpi\n      jump(tag_2)\n    tag_30:\n      dup1\n      0x27e235e3\n      gt\n      tag_34\n      jumpi\n      dup1\n      0x44df8e70\n      gt\n      tag_35\n      jumpi\n      dup1\n      0x44df8e70\n      eq\n      tag_12\n      jumpi\n      dup1\n      0x44f38756\n      eq\n      tag_13\n      jumpi\n      dup1\n      0x4d853ee5\n      eq\n      tag_14\n      jumpi\n      dup1\n      0x5ed7ca5b\n      eq\n      tag_15\n      jumpi\n      jump(tag_2)\n    tag_35:\n      dup1\n      0x27e235e3\n      eq\n      tag_9\n      jumpi\n      dup1\n      0x313ce567\n      eq\n      tag_10\n      jumpi\n      dup1\n      0x378aa701\n      eq\n      tag_11\n      jumpi\n      jump(tag_2)\n    tag_34:\n      dup1\n      0x046383a2\n      eq\n      tag_3\n      jumpi\n      dup1\n      0x046f7da2\n      eq\n      tag_4\n      jumpi\n      dup1\n      0x06fdde03\n      eq\n      tag_5\n      jumpi\n      dup1\n      0x095ea7b3\n      eq\n      tag_6\n      jumpi\n      dup1\n      0x18160ddd\n      eq\n      tag_7\n      jumpi\n      dup1\n      0x23b872dd\n      eq\n      tag_8\n      jumpi\n      jump(tag_2)\n    tag_1:\n      jumpi(tag_2, calldatasize)\n        /* \"contracts/erc20.sol\":7134:7142  invest() */\n      tag_38\n        /* \"contracts/erc20.sol\":7134:7140  invest */\n      tag_39\n        /* \"contracts/erc20.sol\":7134:7142  invest() */\n      jump\t// in\n    tag_38:\n      stop\n        /* \"contracts/erc20.sol\":3317:8189  contract CryptosICO is Cryptos{... */\n    tag_2:\n      0x00\n      dup1\n      revert\n        /* \"contracts/erc20.sol\":4065:4100  uint public  maxInverstment=5 ether */\n    tag_3:\n      callvalue\n      dup1\n      iszero\n      tag_40\n      jumpi\n      0x00\n      dup1\n      revert\n    tag_40:\n      pop\n      tag_41\n      tag_42\n      jump\t// in\n    tag_41:\n      mload(0x40)\n      tag_43\n      swap2\n      swap1\n      tag_44\n      jump\t// in\n    tag_43:\n      mload(0x40)\n      dup1\n      swap2\n      sub\n      swap1\n      return\n        /* \"contracts/erc20.sol\":4908:4991  function resume() public onlyAdmin{... */\n    tag_4:\n      callvalue\n      dup1\n      iszero\n      tag_45\n      jumpi\n      0x00\n      dup1\n      revert\n    tag_45:\n      pop\n      tag_46\n      tag_47\n      jump\t// in\n    tag_46:\n      stop\n        /* \"contracts/erc20.sol\":863:892  string public name =\"Cryptos\" */\n    tag_5:\n      callvalue\n      dup1\n      iszero\n      tag_48\n      jumpi\n      0x00\n      dup1\n      revert\n    tag_48:\n      pop\n      tag_49\n      tag_50\n      jump\t// in\n    tag_49:\n      mload(0x40)\n      tag_51\n      swap2\n      swap1\n      tag_52\n      jump\t// in\n    tag_51:\n      mload(0x40)\n      dup1\n      swap2\n      sub\n      swap1\n      return\n        /* \"contracts/erc20.sol\":2333:2751  function approve(address spender, uint tokens) public  override  returns (bool success){... */\n    tag_6:\n      callvalue\n      dup1\n      iszero\n      tag_53\n      jumpi\n      0x00\n      dup1\n      revert\n    tag_53:\n      pop\n      tag_54\n      0x04\n      dup1\n      calldatasize\n      sub\n      dup2\n      add\n      swap1\n      tag_55\n      swap2\n      swap1\n      tag_56\n      jump\t// in\n    tag_55:\n      tag_57\n      jump\t// in\n    tag_54:\n      mload(0x40)\n      tag_58\n      swap2\n      swap1\n      tag_59\n      jump\t// in\n    tag_58:\n      mload(0x40)\n      dup1\n      swap2\n      sub\n      swap1\n      return\n        /* \"contracts/erc20.sol\":993:1026  uint public  override totalSupply */\n    tag_7:\n      callvalue\n      dup1\n      iszero\n      tag_60\n      jumpi\n      0x00\n      dup1\n      revert\n    tag_60:\n      pop\n      tag_61\n      tag_62\n      jump\t// in\n    tag_61:\n      mload(0x40)\n      tag_63\n      swap2\n      swap1\n      tag_44\n      jump\t// in\n    tag_63:\n      mload(0x40)\n      dup1\n      swap2\n      sub\n      swap1\n      return\n        /* \"contracts/erc20.sol\":7565:7835  function transferFrom(address from, address to, uint tokens) public  override  returns (bool success){... */\n    tag_8:\n      callvalue\n      dup1\n      iszero\n      tag_64\n      jumpi\n      0x00\n      dup1\n      revert\n    tag_64:\n      pop\n      tag_65\n      0x04\n      dup1\n      calldatasize\n      sub\n      dup2\n      add\n      swap1\n      tag_66\n      swap2\n      swap1\n      tag_67\n      jump\t// in\n    tag_66:\n      tag_68\n      jump\t// in\n    tag_65:\n      mload(0x40)\n      tag_69\n      swap2\n      swap1\n      tag_59\n      jump\t// in\n    tag_69:\n      mload(0x40)\n      dup1\n      swap2\n      sub\n      swap1\n      return\n        /* \"contracts/erc20.sol\":1146:1186  mapping (address=>uint) public  balances */\n    tag_9:\n      callvalue\n      dup1\n      iszero\n      tag_70\n      jumpi\n      0x00\n      dup1\n      revert\n    tag_70:\n      pop\n      tag_71\n      0x04\n      dup1\n      calldatasize\n      sub\n      dup2\n      add\n      swap1\n      tag_72\n      swap2\n      swap1\n      tag_73\n      jump\t// in\n    tag_72:\n      tag_74\n      jump\t// in\n    tag_71:\n      mload(0x40)\n      tag_75\n      swap2\n      swap1\n      tag_44\n      jump\t// in\n    tag_75:\n      mload(0x40)\n      dup1\n      swap2\n      sub\n      swap1\n      return\n        /* \"contracts/erc20.sol\":942:964  uint public decimals=0 */\n    tag_10:\n      callvalue\n      dup1\n      iszero\n      tag_76\n      jumpi\n      0x00\n      dup1\n      revert\n    tag_76:\n      pop\n      tag_77\n      tag_78\n      jump\t// in\n    tag_77:\n      mload(0x40)\n      tag_79\n      swap2\n      swap1\n      tag_44\n      jump\t// in\n    tag_79:\n      mload(0x40)\n      dup1\n      swap2\n      sub\n      swap1\n      return\n        /* \"contracts/erc20.sol\":5294:5721  function getCurrentState()public view  returns(State s){... */\n    tag_11:\n      callvalue\n      dup1\n      iszero\n      tag_80\n      jumpi\n      0x00\n      dup1\n      revert\n    tag_80:\n      pop\n      tag_81\n      tag_82\n      jump\t// in\n    tag_81:\n      mload(0x40)\n      tag_83\n      swap2\n      swap1\n      tag_84\n      jump\t// in\n    tag_83:\n      mload(0x40)\n      dup1\n      swap2\n      sub\n      swap1\n      return\n        /* \"contracts/erc20.sol\":7892:8184  function  burn() public  returns(bool){... */\n    tag_12:\n      callvalue\n      dup1\n      iszero\n      tag_85\n      jumpi\n      0x00\n      dup1\n      revert\n    tag_85:\n      pop\n      tag_86\n      tag_87\n      jump\t// in\n    tag_86:\n      mload(0x40)\n      tag_88\n      swap2\n      swap1\n      tag_59\n      jump\t// in\n    tag_88:\n      mload(0x40)\n      dup1\n      swap2\n      sub\n      swap1\n      return\n        /* \"contracts/erc20.sol\":4252:4273  State public icoState */\n    tag_13:\n      callvalue\n      dup1\n      iszero\n      tag_89\n      jumpi\n      0x00\n      dup1\n      revert\n    tag_89:\n      pop\n      tag_90\n      tag_91\n      jump\t// in\n    tag_90:\n      mload(0x40)\n      tag_92\n      swap2\n      swap1\n      tag_84\n      jump\t// in\n    tag_92:\n      mload(0x40)\n      dup1\n      swap2\n      sub\n      swap1\n      return\n        /* \"contracts/erc20.sol\":1113:1135  address public founder */\n    tag_14:\n      callvalue\n      dup1\n      iszero\n      tag_93\n      jumpi\n      0x00\n      dup1\n      revert\n    tag_93:\n      pop\n      tag_94\n      tag_95\n      jump\t// in\n    tag_94:\n      mload(0x40)\n      tag_96\n      swap2\n      swap1\n      tag_97\n      jump\t// in\n    tag_96:\n      mload(0x40)\n      dup1\n      swap2\n      sub\n      swap1\n      return\n        /* \"contracts/erc20.sol\":4741:4821  function halt() public onlyAdmin{... */\n    tag_15:\n      callvalue\n      dup1\n      iszero\n      tag_98\n      jumpi\n      0x00\n      dup1\n      revert\n    tag_98:\n      pop\n      tag_99\n      tag_100\n      jump\t// in\n    tag_99:\n      stop\n        /* \"contracts/erc20.sol\":5103:5221  function changeDepositAddress(address payable newDeposit)public onlyAdmin{... */\n    tag_16:\n      callvalue\n      dup1\n      iszero\n      tag_101\n      jumpi\n      0x00\n      dup1\n      revert\n    tag_101:\n      pop\n      tag_102\n      0x04\n      dup1\n      calldatasize\n      sub\n      dup2\n      add\n      swap1\n      tag_103\n      swap2\n      swap1\n      tag_104\n      jump\t// in\n    tag_103:\n      tag_105\n      jump\t// in\n    tag_102:\n      stop\n        /* \"contracts/erc20.sol\":1545:1671  function balanceOf(address tokenowner ) public   view override returns(uint balance){... */\n    tag_17:\n      callvalue\n      dup1\n      iszero\n      tag_106\n      jumpi\n      0x00\n      dup1\n      revert\n    tag_106:\n      pop\n      tag_107\n      0x04\n      dup1\n      calldatasize\n      sub\n      dup2\n      add\n      swap1\n      tag_108\n      swap2\n      swap1\n      tag_73\n      jump\t// in\n    tag_108:\n      tag_109\n      jump\t// in\n    tag_107:\n      mload(0x40)\n      tag_110\n      swap2\n      swap1\n      tag_44\n      jump\t// in\n    tag_110:\n      mload(0x40)\n      dup1\n      swap2\n      sub\n      swap1\n      return\n        /* \"contracts/erc20.sol\":903:931  string public  symbol=\"CRPT\" */\n    tag_18:\n      callvalue\n      dup1\n      iszero\n      tag_111\n      jumpi\n      0x00\n      dup1\n      revert\n    tag_111:\n      pop\n      tag_112\n      tag_113\n      jump\t// in\n    tag_112:\n      mload(0x40)\n      tag_114\n      swap2\n      swap1\n      tag_52\n      jump\t// in\n    tag_114:\n      mload(0x40)\n      dup1\n      swap2\n      sub\n      swap1\n      return\n        /* \"contracts/erc20.sol\":7273:7555  function transfer(address to, uint tokens ) public   override returns(bool success){... */\n    tag_19:\n      callvalue\n      dup1\n      iszero\n      tag_115\n      jumpi\n      0x00\n      dup1\n      revert\n    tag_115:\n      pop\n      tag_116\n      0x04\n      dup1\n      calldatasize\n      sub\n      dup2\n      add\n      swap1\n      tag_117\n      swap2\n      swap1\n      tag_56\n      jump\t// in\n    tag_117:\n      tag_118\n      jump\t// in\n    tag_116:\n      mload(0x40)\n      tag_119\n      swap2\n      swap1\n      tag_59\n      jump\t// in\n    tag_119:\n      mload(0x40)\n      dup1\n      swap2\n      sub\n      swap1\n      return\n        /* \"contracts/erc20.sol\":3700:3737  uint public saleStart=block.timestamp */\n    tag_20:\n      callvalue\n      dup1\n      iszero\n      tag_120\n      jumpi\n      0x00\n      dup1\n      revert\n    tag_120:\n      pop\n      tag_121\n      tag_122\n      jump\t// in\n    tag_121:\n      mload(0x40)\n      tag_123\n      swap2\n      swap1\n      tag_44\n      jump\t// in\n    tag_123:\n      mload(0x40)\n      dup1\n      swap2\n      sub\n      swap1\n      return\n        /* \"contracts/erc20.sol\":3616:3645  uint public totalRaisedAmount */\n    tag_21:\n      callvalue\n      dup1\n      iszero\n      tag_124\n      jumpi\n      0x00\n      dup1\n      revert\n    tag_124:\n      pop\n      tag_125\n      tag_126\n      jump\t// in\n    tag_125:\n      mload(0x40)\n      tag_127\n      swap2\n      swap1\n      tag_44\n      jump\t// in\n    tag_127:\n      mload(0x40)\n      dup1\n      swap2\n      sub\n      swap1\n      return\n        /* \"contracts/erc20.sol\":3779:3821  uint public saleEnd=block.timestamp+604800 */\n    tag_22:\n      callvalue\n      dup1\n      iszero\n      tag_128\n      jumpi\n      0x00\n      dup1\n      revert\n    tag_128:\n      pop\n      tag_129\n      tag_130\n      jump\t// in\n    tag_129:\n      mload(0x40)\n      tag_131\n      swap2\n      swap1\n      tag_44\n      jump\t// in\n    tag_131:\n      mload(0x40)\n      dup1\n      swap2\n      sub\n      swap1\n      return\n        /* \"contracts/erc20.sol\":4111:4148  uint public  minInverstment=0.1 ether */\n    tag_23:\n      callvalue\n      dup1\n      iszero\n      tag_132\n      jumpi\n      0x00\n      dup1\n      revert\n    tag_132:\n      pop\n      tag_133\n      tag_134\n      jump\t// in\n    tag_133:\n      mload(0x40)\n      tag_135\n      swap2\n      swap1\n      tag_44\n      jump\t// in\n    tag_135:\n      mload(0x40)\n      dup1\n      swap2\n      sub\n      swap1\n      return\n        /* \"contracts/erc20.sol\":3933:3977  uint public tokenTradeStart=saleEnd + 604800 */\n    tag_24:\n      callvalue\n      dup1\n      iszero\n      tag_136\n      jumpi\n      0x00\n      dup1\n      revert\n    tag_136:\n      pop\n      tag_137\n      tag_138\n      jump\t// in\n    tag_137:\n      mload(0x40)\n      tag_139\n      swap2\n      swap1\n      tag_44\n      jump\t// in\n    tag_139:\n      mload(0x40)\n      dup1\n      swap2\n      sub\n      swap1\n      return\n        /* \"contracts/erc20.sol\":3456:3487  address payable public  deposit */\n    tag_25:\n      callvalue\n      dup1\n      iszero\n      tag_140\n      jumpi\n      0x00\n      dup1\n      revert\n    tag_140:\n      pop\n      tag_141\n      tag_142\n      jump\t// in\n    tag_141:\n      mload(0x40)\n      tag_143\n      swap2\n      swap1\n      tag_144\n      jump\t// in\n    tag_143:\n      mload(0x40)\n      dup1\n      swap2\n      sub\n      swap1\n      return\n        /* \"contracts/erc20.sol\":2168:2325  function allowance(address tokenOwner, address spender) public  override  view  returns(uint remaining){... */\n    tag_26:\n      callvalue\n      dup1\n      iszero\n      tag_145\n      jumpi\n      0x00\n      dup1\n      revert\n    tag_145:\n      pop\n      tag_146\n      0x04\n      dup1\n      calldatasize\n      sub\n      dup2\n      add\n      swap1\n      tag_147\n      swap2\n      swap1\n      tag_148\n      jump\t// in\n    tag_147:\n      tag_149\n      jump\t// in\n    tag_146:\n      mload(0x40)\n      tag_150\n      swap2\n      swap1\n      tag_44\n      jump\t// in\n    tag_150:\n      mload(0x40)\n      dup1\n      swap2\n      sub\n      swap1\n      return\n        /* \"contracts/erc20.sol\":5837:6975  function invest() payable public returns(bool)   {... */\n    tag_27:\n      tag_151\n      tag_39\n      jump\t// in\n    tag_151:\n      mload(0x40)\n      tag_152\n      swap2\n      swap1\n      tag_59\n      jump\t// in\n    tag_152:\n      mload(0x40)\n      dup1\n      swap2\n      sub\n      swap1\n      return\n        /* \"contracts/erc20.sol\":3358:3378  address public admin */\n    tag_28:\n      callvalue\n      dup1\n      iszero\n      tag_153\n      jumpi\n      0x00\n      dup1\n      revert\n    tag_153:\n      pop\n      tag_154\n      tag_155\n      jump\t// in\n    tag_154:\n      mload(0x40)\n      tag_156\n      swap2\n      swap1\n      tag_97\n      jump\t// in\n    tag_156:\n      mload(0x40)\n      dup1\n      swap2\n      sub\n      swap1\n      return\n        /* \"contracts/erc20.sol\":3575:3605  uint public hardCap =300 ether */\n    tag_29:\n      callvalue\n      dup1\n      iszero\n      tag_157\n      jumpi\n      0x00\n      dup1\n      revert\n    tag_157:\n      pop\n      tag_158\n      tag_159\n      jump\t// in\n    tag_158:\n      mload(0x40)\n      tag_160\n      swap2\n      swap1\n      tag_44\n      jump\t// in\n    tag_160:\n      mload(0x40)\n      dup1\n      swap2\n      sub\n      swap1\n      return\n        /* \"contracts/erc20.sol\":5837:6975  function invest() payable public returns(bool)   {... */\n    tag_39:\n        /* \"contracts/erc20.sol\":5878:5882  bool */\n      0x00\n        /* \"contracts/erc20.sol\":5948:5965  getCurrentState() */\n      tag_162\n        /* \"contracts/erc20.sol\":5948:5963  getCurrentState */\n      tag_82\n        /* \"contracts/erc20.sol\":5948:5965  getCurrentState() */\n      jump\t// in\n    tag_162:\n        /* \"contracts/erc20.sol\":5939:5947  icoState */\n      0x11\n      0x00\n        /* \"contracts/erc20.sol\":5939:5965  icoState=getCurrentState() */\n      0x0100\n      exp\n      dup2\n      sload\n      dup2\n      0xff\n      mul\n      not\n      and\n      swap1\n      dup4\n      0x03\n      dup2\n      gt\n      iszero\n      tag_163\n      jumpi\n      tag_164\n      tag_165\n      jump\t// in\n    tag_164:\n    tag_163:\n      mul\n      or\n      swap1\n      sstore\n      pop\n        /* \"contracts/erc20.sol\":6046:6059  State.running */\n      0x01\n        /* \"contracts/erc20.sol\":6036:6059  icoState==State.running */\n      0x03\n      dup2\n      gt\n      iszero\n      tag_166\n      jumpi\n      tag_167\n      tag_165\n      jump\t// in\n    tag_167:\n    tag_166:\n        /* \"contracts/erc20.sol\":6036:6044  icoState */\n      0x11\n      0x00\n      swap1\n      sload\n      swap1\n      0x0100\n      exp\n      swap1\n      div\n      0xff\n      and\n        /* \"contracts/erc20.sol\":6036:6059  icoState==State.running */\n      0x03\n      dup2\n      gt\n      iszero\n      tag_168\n      jumpi\n      tag_169\n      tag_165\n      jump\t// in\n    tag_169:\n    tag_168:\n      eq\n        /* \"contracts/erc20.sol\":6028:6081  require(icoState==State.running,\"ICO is not running\") */\n      tag_170\n      jumpi\n      mload(0x40)\n      0x08c379a000000000000000000000000000000000000000000000000000000000\n      dup2\n      mstore\n      0x04\n      add\n      tag_171\n      swap1\n      tag_172\n      jump\t// in\n    tag_171:\n      mload(0x40)\n      dup1\n      swap2\n      sub\n      swap1\n      revert\n    tag_170:\n        /* \"contracts/erc20.sol\":6210:6224  minInverstment */\n      sload(0x10)\n        /* \"contracts/erc20.sol\":6199:6208  msg.value */\n      callvalue\n        /* \"contracts/erc20.sol\":6199:6224  msg.value>=minInverstment */\n      lt\n      iszero\n        /* \"contracts/erc20.sol\":6199:6253  msg.value>=minInverstment && msg.value<=maxInverstment */\n      dup1\n      iszero\n      tag_173\n      jumpi\n      pop\n        /* \"contracts/erc20.sol\":6239:6253  maxInverstment */\n      sload(0x0f)\n        /* \"contracts/erc20.sol\":6228:6237  msg.value */\n      callvalue\n        /* \"contracts/erc20.sol\":6228:6253  msg.value<=maxInverstment */\n      gt\n      iszero\n        /* \"contracts/erc20.sol\":6199:6253  msg.value>=minInverstment && msg.value<=maxInverstment */\n    tag_173:\n        /* \"contracts/erc20.sol\":6191:6310  require(msg.value>=minInverstment && msg.value<=maxInverstment,\"Investnment value should be between 0.1 ETH and 5 ETH\") */\n      tag_174\n      jumpi\n      mload(0x40)\n      0x08c379a000000000000000000000000000000000000000000000000000000000\n      dup2\n      mstore\n      0x04\n      add\n      tag_175\n      swap1\n      tag_176\n      jump\t// in\n    tag_175:\n      mload(0x40)\n      dup1\n      swap2\n      sub\n      swap1\n      revert\n    tag_174:\n        /* \"contracts/erc20.sol\":6386:6395  msg.value */\n      callvalue\n        /* \"contracts/erc20.sol\":6367:6384  totalRaisedAmount */\n      0x0b\n      0x00\n        /* \"contracts/erc20.sol\":6367:6395  totalRaisedAmount+=msg.value */\n      dup3\n      dup3\n      sload\n      tag_177\n      swap2\n      swap1\n      tag_178\n      jump\t// in\n    tag_177:\n      swap3\n      pop\n      pop\n      dup2\n      swap1\n      sstore\n      pop\n        /* \"contracts/erc20.sol\":6441:6448  hardCap */\n      sload(0x0a)\n        /* \"contracts/erc20.sol\":6422:6439  totalRaisedAmount */\n      sload(0x0b)\n        /* \"contracts/erc20.sol\":6422:6448  totalRaisedAmount<=hardCap */\n      gt\n      iszero\n        /* \"contracts/erc20.sol\":6414:6504  require(totalRaisedAmount<=hardCap,\"Total raised amount should not be more than Hard Cap\") */\n      tag_179\n      jumpi\n      mload(0x40)\n      0x08c379a000000000000000000000000000000000000000000000000000000000\n      dup2\n      mstore\n      0x04\n      add\n      tag_180\n      swap1\n      tag_181\n      jump\t// in\n    tag_180:\n      mload(0x40)\n      dup1\n      swap2\n      sub\n      swap1\n      revert\n    tag_179:\n        /* \"contracts/erc20.sol\":6577:6588  uint tokens */\n      0x00\n        /* \"contracts/erc20.sol\":6603:6613  tokenPrice */\n      sload(0x09)\n        /* \"contracts/erc20.sol\":6591:6600  msg.value */\n      callvalue\n        /* \"contracts/erc20.sol\":6591:6613  msg.value / tokenPrice */\n      tag_182\n      swap2\n      swap1\n      tag_183\n      jump\t// in\n    tag_182:\n        /* \"contracts/erc20.sol\":6577:6613  uint tokens = msg.value / tokenPrice */\n      swap1\n      pop\n        /* \"contracts/erc20.sol\":6652:6658  tokens */\n      dup1\n        /* \"contracts/erc20.sol\":6630:6638  balances */\n      0x05\n        /* \"contracts/erc20.sol\":6630:6650  balances[msg.sender] */\n      0x00\n        /* \"contracts/erc20.sol\":6639:6649  msg.sender */\n      caller\n        /* \"contracts/erc20.sol\":6630:6650  balances[msg.sender] */\n      0xffffffffffffffffffffffffffffffffffffffff\n      and\n      0xffffffffffffffffffffffffffffffffffffffff\n      and\n      dup2\n      mstore\n      0x20\n      add\n      swap1\n      dup2\n      mstore\n      0x20\n      add\n      0x00\n      keccak256\n      0x00\n        /* \"contracts/erc20.sol\":6630:6658  balances[msg.sender]+=tokens */\n      dup3\n      dup3\n      sload\n      tag_184\n      swap2\n      swap1\n      tag_178\n      jump\t// in\n    tag_184:\n      swap3\n      pop\n      pop\n      dup2\n      swap1\n      sstore\n      pop\n        /* \"contracts/erc20.sol\":6723:6729  tokens */\n      dup1\n        /* \"contracts/erc20.sol\":6704:6712  balances */\n      0x05\n        /* \"contracts/erc20.sol\":6704:6721  balances[founder] */\n      0x00\n        /* \"contracts/erc20.sol\":6713:6720  founder */\n      0x04\n      0x00\n      swap1\n      sload\n      swap1\n      0x0100\n      exp\n      swap1\n      div\n      0xffffffffffffffffffffffffffffffffffffffff\n      and\n        /* \"contracts/erc20.sol\":6704:6721  balances[founder] */\n      0xffffffffffffffffffffffffffffffffffffffff\n      and\n      0xffffffffffffffffffffffffffffffffffffffff\n      and\n      dup2\n      mstore\n      0x20\n      add\n      swap1\n      dup2\n      mstore\n      0x20\n      add\n      0x00\n      keccak256\n      0x00\n        /* \"contracts/erc20.sol\":6704:6729  balances[founder]-=tokens */\n      dup3\n      dup3\n      sload\n      tag_185\n      swap2\n      swap1\n      tag_186\n      jump\t// in\n    tag_185:\n      swap3\n      pop\n      pop\n      dup2\n      swap1\n      sstore\n      pop\n        /* \"contracts/erc20.sol\":6779:6786  deposit */\n      0x08\n      0x00\n      swap1\n      sload\n      swap1\n      0x0100\n      exp\n      swap1\n      div\n      0xffffffffffffffffffffffffffffffffffffffff\n      and\n        /* \"contracts/erc20.sol\":6779:6795  deposit.transfer */\n      0xffffffffffffffffffffffffffffffffffffffff\n      and\n        /* \"contracts/erc20.sol\":6779:6806  deposit.transfer(msg.value) */\n      0x08fc\n        /* \"contracts/erc20.sol\":6796:6805  msg.value */\n      callvalue\n        /* \"contracts/erc20.sol\":6779:6806  deposit.transfer(msg.value) */\n      swap1\n      dup2\n      iszero\n      mul\n      swap1\n      mload(0x40)\n      0x00\n      mload(0x40)\n      dup1\n      dup4\n      sub\n      dup2\n      dup6\n      dup9\n      dup9\n      call\n      swap4\n      pop\n      pop\n      pop\n      pop\n      iszero\n      dup1\n      iszero\n      tag_188\n      jumpi\n      returndatasize\n      0x00\n      dup1\n      returndatacopy\n      revert(0x00, returndatasize)\n    tag_188:\n      pop\n        /* \"contracts/erc20.sol\":6900:6935  Invest(msg.sender,msg.value,tokens) */\n      0x4ae4bd7655e0d350876a23cd90c4227b13db560e34435c6a488150a9c844bf5f\n        /* \"contracts/erc20.sol\":6907:6917  msg.sender */\n      caller\n        /* \"contracts/erc20.sol\":6918:6927  msg.value */\n      callvalue\n        /* \"contracts/erc20.sol\":6928:6934  tokens */\n      dup4\n        /* \"contracts/erc20.sol\":6900:6935  Invest(msg.sender,msg.value,tokens) */\n      mload(0x40)\n      tag_189\n      swap4\n      swap3\n      swap2\n      swap1\n      tag_190\n      jump\t// in\n    tag_189:\n      mload(0x40)\n      dup1\n      swap2\n      sub\n      swap1\n      log1\n        /* \"contracts/erc20.sol\":6959:6963  true */\n      0x01\n        /* \"contracts/erc20.sol\":6951:6963  return  true */\n      swap2\n      pop\n      pop\n        /* \"contracts/erc20.sol\":5837:6975  function invest() payable public returns(bool)   {... */\n      swap1\n      jump\t// out\n        /* \"contracts/erc20.sol\":4065:4100  uint public  maxInverstment=5 ether */\n    tag_42:\n      sload(0x0f)\n      dup2\n      jump\t// out\n        /* \"contracts/erc20.sol\":4908:4991  function resume() public onlyAdmin{... */\n    tag_47:\n        /* \"contracts/erc20.sol\":4607:4612  admin */\n      0x07\n      0x00\n      swap1\n      sload\n      swap1\n      0x0100\n      exp\n      swap1\n      div\n      0xffffffffffffffffffffffffffffffffffffffff\n      and\n        /* \"contracts/erc20.sol\":4595:4612  msg.sender==admin */\n      0xffffffffffffffffffffffffffffffffffffffff\n      and\n        /* \"contracts/erc20.sol\":4595:4605  msg.sender */\n      caller\n        /* \"contracts/erc20.sol\":4595:4612  msg.sender==admin */\n      0xffffffffffffffffffffffffffffffffffffffff\n      and\n      eq\n        /* \"contracts/erc20.sol\":4587:4637  require(msg.sender==admin,\"Only admin is allowed\") */\n      tag_192\n      jumpi\n      mload(0x40)\n      0x08c379a000000000000000000000000000000000000000000000000000000000\n      dup2\n      mstore\n      0x04\n      add\n      tag_193\n      swap1\n      tag_194\n      jump\t// in\n    tag_193:\n      mload(0x40)\n      dup1\n      swap2\n      sub\n      swap1\n      revert\n    tag_192:\n        /* \"contracts/erc20.sol\":4966:4979  State.running */\n      0x01\n        /* \"contracts/erc20.sol\":4957:4965  icoState */\n      0x11\n      0x00\n        /* \"contracts/erc20.sol\":4957:4979  icoState=State.running */\n      0x0100\n      exp\n      dup2\n      sload\n      dup2\n      0xff\n      mul\n      not\n      and\n      swap1\n      dup4\n      0x03\n      dup2\n      gt\n      iszero\n      tag_196\n      jumpi\n      tag_197\n      tag_165\n      jump\t// in\n    tag_197:\n    tag_196:\n      mul\n      or\n      swap1\n      sstore\n      pop\n        /* \"contracts/erc20.sol\":4908:4991  function resume() public onlyAdmin{... */\n      jump\t// out\n        /* \"contracts/erc20.sol\":863:892  string public name =\"Cryptos\" */\n    tag_50:\n      0x00\n      dup1\n      sload\n      tag_198\n      swap1\n      tag_199\n      jump\t// in\n    tag_198:\n      dup1\n      0x1f\n      add\n      0x20\n      dup1\n      swap2\n      div\n      mul\n      0x20\n      add\n      mload(0x40)\n      swap1\n      dup2\n      add\n      0x40\n      mstore\n      dup1\n      swap3\n      swap2\n      swap1\n      dup2\n      dup2\n      mstore\n      0x20\n      add\n      dup3\n      dup1\n      sload\n      tag_200\n      swap1\n      tag_199\n      jump\t// in\n    tag_200:\n      dup1\n      iszero\n      tag_201\n      jumpi\n      dup1\n      0x1f\n      lt\n      tag_202\n      jumpi\n      0x0100\n      dup1\n      dup4\n      sload\n      div\n      mul\n      dup4\n      mstore\n      swap2\n      0x20\n      add\n      swap2\n      jump(tag_201)\n    tag_202:\n      dup3\n      add\n      swap2\n      swap1\n      0x00\n      mstore\n      keccak256(0x00, 0x20)\n      swap1\n    tag_203:\n      dup2\n      sload\n      dup2\n      mstore\n      swap1\n      0x01\n      add\n      swap1\n      0x20\n      add\n      dup1\n      dup4\n      gt\n      tag_203\n      jumpi\n      dup3\n      swap1\n      sub\n      0x1f\n      and\n      dup3\n      add\n      swap2\n    tag_201:\n      pop\n      pop\n      pop\n      pop\n      pop\n      dup2\n      jump\t// out\n        /* \"contracts/erc20.sol\":2333:2751  function approve(address spender, uint tokens) public  override  returns (bool success){... */\n    tag_57:\n        /* \"contracts/erc20.sol\":2407:2419  bool success */\n      0x00\n        /* \"contracts/erc20.sol\":2446:2447  0 */\n      dup1\n        /* \"contracts/erc20.sol\":2439:2445  tokens */\n      dup3\n        /* \"contracts/erc20.sol\":2439:2447  tokens>0 */\n      gt\n        /* \"contracts/erc20.sol\":2431:2482  require(tokens>0,\"tokens should be greater than 0\") */\n      tag_205\n      jumpi\n      mload(0x40)\n      0x08c379a000000000000000000000000000000000000000000000000000000000\n      dup2\n      mstore\n      0x04\n      add\n      tag_206\n      swap1\n      tag_207\n      jump\t// in\n    tag_206:\n      mload(0x40)\n      dup1\n      swap2\n      sub\n      swap1\n      revert\n    tag_205:\n        /* \"contracts/erc20.sol\":2585:2591  tokens */\n      dup2\n        /* \"contracts/erc20.sol\":2563:2571  balances */\n      0x05\n        /* \"contracts/erc20.sol\":2563:2583  balances[msg.sender] */\n      0x00\n        /* \"contracts/erc20.sol\":2572:2582  msg.sender */\n      caller\n        /* \"contracts/erc20.sol\":2563:2583  balances[msg.sender] */\n      0xffffffffffffffffffffffffffffffffffffffff\n      and\n      0xffffffffffffffffffffffffffffffffffffffff\n      and\n      dup2\n      mstore\n      0x20\n      add\n      swap1\n      dup2\n      mstore\n      0x20\n      add\n      0x00\n      keccak256\n      sload\n        /* \"contracts/erc20.sol\":2563:2591  balances[msg.sender]>=tokens */\n      lt\n      iszero\n        /* \"contracts/erc20.sol\":2555:2617  require(balances[msg.sender]>=tokens,\"Balance is insufficent\") */\n      tag_208\n      jumpi\n      mload(0x40)\n      0x08c379a000000000000000000000000000000000000000000000000000000000\n      dup2\n      mstore\n      0x04\n      add\n      tag_209\n      swap1\n      tag_210\n      jump\t// in\n    tag_209:\n      mload(0x40)\n      dup1\n      swap2\n      sub\n      swap1\n      revert\n    tag_208:\n        /* \"contracts/erc20.sol\":2659:2665  tokens */\n      dup2\n        /* \"contracts/erc20.sol\":2630:2637  allowed */\n      0x06\n        /* \"contracts/erc20.sol\":2630:2649  allowed[msg.sender] */\n      0x00\n        /* \"contracts/erc20.sol\":2638:2648  msg.sender */\n      caller\n        /* \"contracts/erc20.sol\":2630:2649  allowed[msg.sender] */\n      0xffffffffffffffffffffffffffffffffffffffff\n      and\n      0xffffffffffffffffffffffffffffffffffffffff\n      and\n      dup2\n      mstore\n      0x20\n      add\n      swap1\n      dup2\n      mstore\n      0x20\n      add\n      0x00\n      keccak256\n        /* \"contracts/erc20.sol\":2630:2658  allowed[msg.sender][spender] */\n      0x00\n        /* \"contracts/erc20.sol\":2650:2657  spender */\n      dup6\n        /* \"contracts/erc20.sol\":2630:2658  allowed[msg.sender][spender] */\n      0xffffffffffffffffffffffffffffffffffffffff\n      and\n      0xffffffffffffffffffffffffffffffffffffffff\n      and\n      dup2\n      mstore\n      0x20\n      add\n      swap1\n      dup2\n      mstore\n      0x20\n      add\n      0x00\n      keccak256\n        /* \"contracts/erc20.sol\":2630:2665  allowed[msg.sender][spender]=tokens */\n      dup2\n      swap1\n      sstore\n      pop\n        /* \"contracts/erc20.sol\":2704:2711  spender */\n      dup3\n        /* \"contracts/erc20.sol\":2683:2720  Approval(msg.sender, spender, tokens) */\n      0xffffffffffffffffffffffffffffffffffffffff\n      and\n        /* \"contracts/erc20.sol\":2692:2702  msg.sender */\n      caller\n        /* \"contracts/erc20.sol\":2683:2720  Approval(msg.sender, spender, tokens) */\n      0xffffffffffffffffffffffffffffffffffffffff\n      and\n      0x8c5be1e5ebec7d5bd14f71427d1e84f3dd0314c0f7b2291e5b200ac8c7c3b925\n        /* \"contracts/erc20.sol\":2713:2719  tokens */\n      dup5\n        /* \"contracts/erc20.sol\":2683:2720  Approval(msg.sender, spender, tokens) */\n      mload(0x40)\n      tag_211\n      swap2\n      swap1\n      tag_44\n      jump\t// in\n    tag_211:\n      mload(0x40)\n      dup1\n      swap2\n      sub\n      swap1\n      log3\n        /* \"contracts/erc20.sol\":2739:2743  true */\n      0x01\n        /* \"contracts/erc20.sol\":2731:2743  return  true */\n      swap1\n      pop\n        /* \"contracts/erc20.sol\":2333:2751  function approve(address spender, uint tokens) public  override  returns (bool success){... */\n      swap3\n      swap2\n      pop\n      pop\n      jump\t// out\n        /* \"contracts/erc20.sol\":993:1026  uint public  override totalSupply */\n    tag_62:\n      sload(0x03)\n      dup2\n      jump\t// out\n        /* \"contracts/erc20.sol\":7565:7835  function transferFrom(address from, address to, uint tokens) public  override  returns (bool success){... */\n    tag_68:\n        /* \"contracts/erc20.sol\":7653:7665  bool success */\n      0x00\n        /* \"contracts/erc20.sol\":7703:7718  tokenTradeStart */\n      sload(0x0e)\n        /* \"contracts/erc20.sol\":7687:7702  block.timestamp */\n      timestamp\n        /* \"contracts/erc20.sol\":7687:7718  block.timestamp>tokenTradeStart */\n      gt\n        /* \"contracts/erc20.sol\":7679:7754  require(block.timestamp>tokenTradeStart,\"Token cannot be trated right now\") */\n      tag_213\n      jumpi\n      mload(0x40)\n      0x08c379a000000000000000000000000000000000000000000000000000000000\n      dup2\n      mstore\n      0x04\n      add\n      tag_214\n      swap1\n      tag_215\n      jump\t// in\n    tag_214:\n      mload(0x40)\n      dup1\n      swap2\n      sub\n      swap1\n      revert\n    tag_213:\n        /* \"contracts/erc20.sol\":7767:7803  super.transferFrom(from, to, tokens) */\n      tag_216\n        /* \"contracts/erc20.sol\":7786:7790  from */\n      dup5\n        /* \"contracts/erc20.sol\":7792:7794  to */\n      dup5\n        /* \"contracts/erc20.sol\":7796:7802  tokens */\n      dup5\n        /* \"contracts/erc20.sol\":7767:7785  super.transferFrom */\n      tag_217\n        /* \"contracts/erc20.sol\":7767:7803  super.transferFrom(from, to, tokens) */\n      jump\t// in\n    tag_216:\n      pop\n        /* \"contracts/erc20.sol\":7823:7827  true */\n      0x01\n        /* \"contracts/erc20.sol\":7816:7827  return true */\n      swap1\n      pop\n        /* \"contracts/erc20.sol\":7565:7835  function transferFrom(address from, address to, uint tokens) public  override  returns (bool success){... */\n      swap4\n      swap3\n      pop\n      pop\n      pop\n      jump\t// out\n        /* \"contracts/erc20.sol\":1146:1186  mapping (address=>uint) public  balances */\n    tag_74:\n      mstore(0x20, 0x05)\n      dup1\n      0x00\n      mstore\n      keccak256(0x00, 0x40)\n      0x00\n      swap2\n      pop\n      swap1\n      pop\n      sload\n      dup2\n      jump\t// out\n        /* \"contracts/erc20.sol\":942:964  uint public decimals=0 */\n    tag_78:\n      sload(0x02)\n      dup2\n      jump\t// out\n        /* \"contracts/erc20.sol\":5294:5721  function getCurrentState()public view  returns(State s){... */\n    tag_82:\n        /* \"contracts/erc20.sol\":5341:5348  State s */\n      0x00\n        /* \"contracts/erc20.sol\":5380:5392  State.halted */\n      0x03\n        /* \"contracts/erc20.sol\":5368:5392  icoState == State.halted */\n      dup1\n      dup2\n      gt\n      iszero\n      tag_219\n      jumpi\n      tag_220\n      tag_165\n      jump\t// in\n    tag_220:\n    tag_219:\n        /* \"contracts/erc20.sol\":5368:5376  icoState */\n      0x11\n      0x00\n      swap1\n      sload\n      swap1\n      0x0100\n      exp\n      swap1\n      div\n      0xff\n      and\n        /* \"contracts/erc20.sol\":5368:5392  icoState == State.halted */\n      0x03\n      dup2\n      gt\n      iszero\n      tag_221\n      jumpi\n      tag_222\n      tag_165\n      jump\t// in\n    tag_222:\n    tag_221:\n      sub\n        /* \"contracts/erc20.sol\":5364:5710  if (icoState == State.halted){... */\n      tag_223\n      jumpi\n        /* \"contracts/erc20.sol\":5416:5428  State.halted */\n      0x03\n        /* \"contracts/erc20.sol\":5408:5428  return  State.halted */\n      swap1\n      pop\n      jump(tag_218)\n        /* \"contracts/erc20.sol\":5364:5710  if (icoState == State.halted){... */\n    tag_223:\n        /* \"contracts/erc20.sol\":5468:5477  saleStart */\n      sload(0x0c)\n        /* \"contracts/erc20.sol\":5452:5467  block.timestamp */\n      timestamp\n        /* \"contracts/erc20.sol\":5452:5477  block.timestamp<saleStart */\n      lt\n        /* \"contracts/erc20.sol\":5449:5710  if(block.timestamp<saleStart){... */\n      iszero\n      tag_225\n      jumpi\n        /* \"contracts/erc20.sol\":5501:5518  State.beforeStart */\n      0x00\n        /* \"contracts/erc20.sol\":5493:5518  return  State.beforeStart */\n      swap1\n      pop\n      jump(tag_218)\n        /* \"contracts/erc20.sol\":5449:5710  if(block.timestamp<saleStart){... */\n    tag_225:\n        /* \"contracts/erc20.sol\":5559:5568  saleStart */\n      sload(0x0c)\n        /* \"contracts/erc20.sol\":5542:5557  block.timestamp */\n      timestamp\n        /* \"contracts/erc20.sol\":5542:5568  block.timestamp>=saleStart */\n      lt\n      iszero\n        /* \"contracts/erc20.sol\":5542:5596  block.timestamp>=saleStart && block.timestamp<=saleEnd */\n      dup1\n      iszero\n      tag_227\n      jumpi\n      pop\n        /* \"contracts/erc20.sol\":5589:5596  saleEnd */\n      sload(0x0d)\n        /* \"contracts/erc20.sol\":5572:5587  block.timestamp */\n      timestamp\n        /* \"contracts/erc20.sol\":5572:5596  block.timestamp<=saleEnd */\n      gt\n      iszero\n        /* \"contracts/erc20.sol\":5542:5596  block.timestamp>=saleStart && block.timestamp<=saleEnd */\n    tag_227:\n        /* \"contracts/erc20.sol\":5539:5710  if(block.timestamp>=saleStart && block.timestamp<=saleEnd){... */\n      iszero\n      tag_228\n      jumpi\n        /* \"contracts/erc20.sol\":5620:5633  State.running */\n      0x01\n        /* \"contracts/erc20.sol\":5612:5633  return  State.running */\n      swap1\n      pop\n      jump(tag_218)\n        /* \"contracts/erc20.sol\":5539:5710  if(block.timestamp>=saleStart && block.timestamp<=saleEnd){... */\n    tag_228:\n        /* \"contracts/erc20.sol\":5680:5694  State.afterEnd */\n      0x02\n        /* \"contracts/erc20.sol\":5672:5694  return  State.afterEnd */\n      swap1\n      pop\n        /* \"contracts/erc20.sol\":5294:5721  function getCurrentState()public view  returns(State s){... */\n    tag_218:\n      swap1\n      jump\t// out\n        /* \"contracts/erc20.sol\":7892:8184  function  burn() public  returns(bool){... */\n    tag_87:\n        /* \"contracts/erc20.sol\":7925:7929  bool */\n      0x00\n        /* \"contracts/erc20.sol\":7950:7967  getCurrentState() */\n      tag_231\n        /* \"contracts/erc20.sol\":7950:7965  getCurrentState */\n      tag_82\n        /* \"contracts/erc20.sol\":7950:7967  getCurrentState() */\n      jump\t// in\n    tag_231:\n        /* \"contracts/erc20.sol\":7941:7949  icoState */\n      0x11\n      0x00\n        /* \"contracts/erc20.sol\":7941:7967  icoState=getCurrentState() */\n      0x0100\n      exp\n      dup2\n      sload\n      dup2\n      0xff\n      mul\n      not\n      and\n      swap1\n      dup4\n      0x03\n      dup2\n      gt\n      iszero\n      tag_232\n      jumpi\n      tag_233\n      tag_165\n      jump\t// in\n    tag_233:\n    tag_232:\n      mul\n      or\n      swap1\n      sstore\n      pop\n        /* \"contracts/erc20.sol\":8016:8030  State.afterEnd */\n      0x02\n        /* \"contracts/erc20.sol\":8006:8030  icoState==State.afterEnd */\n      0x03\n      dup2\n      gt\n      iszero\n      tag_234\n      jumpi\n      tag_235\n      tag_165\n      jump\t// in\n    tag_235:\n    tag_234:\n        /* \"contracts/erc20.sol\":8006:8014  icoState */\n      0x11\n      0x00\n      swap1\n      sload\n      swap1\n      0x0100\n      exp\n      swap1\n      div\n      0xff\n      and\n        /* \"contracts/erc20.sol\":8006:8030  icoState==State.afterEnd */\n      0x03\n      dup2\n      gt\n      iszero\n      tag_236\n      jumpi\n      tag_237\n      tag_165\n      jump\t// in\n    tag_237:\n    tag_236:\n      eq\n        /* \"contracts/erc20.sol\":7998:8078  require(icoState==State.afterEnd,\"Tokens can be burned in only after end state\") */\n      tag_238\n      jumpi\n      mload(0x40)\n      0x08c379a000000000000000000000000000000000000000000000000000000000\n      dup2\n      mstore\n      0x04\n      add\n      tag_239\n      swap1\n      tag_240\n      jump\t// in\n    tag_239:\n      mload(0x40)\n      dup1\n      swap2\n      sub\n      swap1\n      revert\n    tag_238:\n        /* \"contracts/erc20.sol\":8153:8154  0 */\n      0x00\n        /* \"contracts/erc20.sol\":8135:8143  balances */\n      0x05\n        /* \"contracts/erc20.sol\":8135:8152  balances[founder] */\n      0x00\n        /* \"contracts/erc20.sol\":8144:8151  founder */\n      0x04\n      0x00\n      swap1\n      sload\n      swap1\n      0x0100\n      exp\n      swap1\n      div\n      0xffffffffffffffffffffffffffffffffffffffff\n      and\n        /* \"contracts/erc20.sol\":8135:8152  balances[founder] */\n      0xffffffffffffffffffffffffffffffffffffffff\n      and\n      0xffffffffffffffffffffffffffffffffffffffff\n      and\n      dup2\n      mstore\n      0x20\n      add\n      swap1\n      dup2\n      mstore\n      0x20\n      add\n      0x00\n      keccak256\n        /* \"contracts/erc20.sol\":8135:8154  balances[founder]=0 */\n      dup2\n      swap1\n      sstore\n      pop\n        /* \"contracts/erc20.sol\":8172:8176  true */\n      0x01\n        /* \"contracts/erc20.sol\":8165:8176  return true */\n      swap1\n      pop\n        /* \"contracts/erc20.sol\":7892:8184  function  burn() public  returns(bool){... */\n      swap1\n      jump\t// out\n        /* \"contracts/erc20.sol\":4252:4273  State public icoState */\n    tag_91:\n      0x11\n      0x00\n      swap1\n      sload\n      swap1\n      0x0100\n      exp\n      swap1\n      div\n      0xff\n      and\n      dup2\n      jump\t// out\n        /* \"contracts/erc20.sol\":1113:1135  address public founder */\n    tag_95:\n      0x04\n      0x00\n      swap1\n      sload\n      swap1\n      0x0100\n      exp\n      swap1\n      div\n      0xffffffffffffffffffffffffffffffffffffffff\n      and\n      dup2\n      jump\t// out\n        /* \"contracts/erc20.sol\":4741:4821  function halt() public onlyAdmin{... */\n    tag_100:\n        /* \"contracts/erc20.sol\":4607:4612  admin */\n      0x07\n      0x00\n      swap1\n      sload\n      swap1\n      0x0100\n      exp\n      swap1\n      div\n      0xffffffffffffffffffffffffffffffffffffffff\n      and\n        /* \"contracts/erc20.sol\":4595:4612  msg.sender==admin */\n      0xffffffffffffffffffffffffffffffffffffffff\n      and\n        /* \"contracts/erc20.sol\":4595:4605  msg.sender */\n      caller\n        /* \"contracts/erc20.sol\":4595:4612  msg.sender==admin */\n      0xffffffffffffffffffffffffffffffffffffffff\n      and\n      eq\n        /* \"contracts/erc20.sol\":4587:4637  require(msg.sender==admin,\"Only admin is allowed\") */\n      tag_242\n      jumpi\n      mload(0x40)\n      0x08c379a000000000000000000000000000000000000000000000000000000000\n      dup2\n      mstore\n      0x04\n      add\n      tag_243\n      swap1\n      tag_194\n      jump\t// in\n    tag_243:\n      mload(0x40)\n      dup1\n      swap2\n      sub\n      swap1\n      revert\n    tag_242:\n        /* \"contracts/erc20.sol\":4797:4809  State.halted */\n      0x03\n        /* \"contracts/erc20.sol\":4788:4796  icoState */\n      0x11\n      0x00\n        /* \"contracts/erc20.sol\":4788:4809  icoState=State.halted */\n      0x0100\n      exp\n      dup2\n      sload\n      dup2\n      0xff\n      mul\n      not\n      and\n      swap1\n      dup4\n      0x03\n      dup2\n      gt\n      iszero\n      tag_245\n      jumpi\n      tag_246\n      tag_165\n      jump\t// in\n    tag_246:\n    tag_245:\n      mul\n      or\n      swap1\n      sstore\n      pop\n        /* \"contracts/erc20.sol\":4741:4821  function halt() public onlyAdmin{... */\n      jump\t// out\n        /* \"contracts/erc20.sol\":5103:5221  function changeDepositAddress(address payable newDeposit)public onlyAdmin{... */\n    tag_105:\n        /* \"contracts/erc20.sol\":4607:4612  admin */\n      0x07\n      0x00\n      swap1\n      sload\n      swap1\n      0x0100\n      exp\n      swap1\n      div\n      0xffffffffffffffffffffffffffffffffffffffff\n      and\n        /* \"contracts/erc20.sol\":4595:4612  msg.sender==admin */\n      0xffffffffffffffffffffffffffffffffffffffff\n      and\n        /* \"contracts/erc20.sol\":4595:4605  msg.sender */\n      caller\n        /* \"contracts/erc20.sol\":4595:4612  msg.sender==admin */\n      0xffffffffffffffffffffffffffffffffffffffff\n      and\n      eq\n        /* \"contracts/erc20.sol\":4587:4637  require(msg.sender==admin,\"Only admin is allowed\") */\n      tag_248\n      jumpi\n      mload(0x40)\n      0x08c379a000000000000000000000000000000000000000000000000000000000\n      dup2\n      mstore\n      0x04\n      add\n      tag_249\n      swap1\n      tag_194\n      jump\t// in\n    tag_249:\n      mload(0x40)\n      dup1\n      swap2\n      sub\n      swap1\n      revert\n    tag_248:\n        /* \"contracts/erc20.sol\":5199:5209  newDeposit */\n      dup1\n        /* \"contracts/erc20.sol\":5191:5198  deposit */\n      0x08\n      0x00\n        /* \"contracts/erc20.sol\":5191:5209  deposit=newDeposit */\n      0x0100\n      exp\n      dup2\n      sload\n      dup2\n      0xffffffffffffffffffffffffffffffffffffffff\n      mul\n      not\n      and\n      swap1\n      dup4\n      0xffffffffffffffffffffffffffffffffffffffff\n      and\n      mul\n      or\n      swap1\n      sstore\n      pop\n        /* \"contracts/erc20.sol\":5103:5221  function changeDepositAddress(address payable newDeposit)public onlyAdmin{... */\n      pop\n      jump\t// out\n        /* \"contracts/erc20.sol\":1545:1671  function balanceOf(address tokenowner ) public   view override returns(uint balance){... */\n    tag_109:\n        /* \"contracts/erc20.sol\":1616:1628  uint balance */\n      0x00\n        /* \"contracts/erc20.sol\":1643:1651  balances */\n      0x05\n        /* \"contracts/erc20.sol\":1643:1663  balances[tokenowner] */\n      0x00\n        /* \"contracts/erc20.sol\":1652:1662  tokenowner */\n      dup4\n        /* \"contracts/erc20.sol\":1643:1663  balances[tokenowner] */\n      0xffffffffffffffffffffffffffffffffffffffff\n      and\n      0xffffffffffffffffffffffffffffffffffffffff\n      and\n      dup2\n      mstore\n      0x20\n      add\n      swap1\n      dup2\n      mstore\n      0x20\n      add\n      0x00\n      keccak256\n      sload\n        /* \"contracts/erc20.sol\":1636:1663  return balances[tokenowner] */\n      swap1\n      pop\n        /* \"contracts/erc20.sol\":1545:1671  function balanceOf(address tokenowner ) public   view override returns(uint balance){... */\n      swap2\n      swap1\n      pop\n      jump\t// out\n        /* \"contracts/erc20.sol\":903:931  string public  symbol=\"CRPT\" */\n    tag_113:\n      0x01\n      dup1\n      sload\n      tag_252\n      swap1\n      tag_199\n      jump\t// in\n    tag_252:\n      dup1\n      0x1f\n      add\n      0x20\n      dup1\n      swap2\n      div\n      mul\n      0x20\n      add\n      mload(0x40)\n      swap1\n      dup2\n      add\n      0x40\n      mstore\n      dup1\n      swap3\n      swap2\n      swap1\n      dup2\n      dup2\n      mstore\n      0x20\n      add\n      dup3\n      dup1\n      sload\n      tag_253\n      swap1\n      tag_199\n      jump\t// in\n    tag_253:\n      dup1\n      iszero\n      tag_254\n      jumpi\n      dup1\n      0x1f\n      lt\n      tag_255\n      jumpi\n      0x0100\n      dup1\n      dup4\n      sload\n      div\n      mul\n      dup4\n      mstore\n      swap2\n      0x20\n      add\n      swap2\n      jump(tag_254)\n    tag_255:\n      dup3\n      add\n      swap2\n      swap1\n      0x00\n      mstore\n      keccak256(0x00, 0x20)\n      swap1\n    tag_256:\n      dup2\n      sload\n      dup2\n      mstore\n      swap1\n      0x01\n      add\n      swap1\n      0x20\n      add\n      dup1\n      dup4\n      gt\n      tag_256\n      jumpi\n      dup3\n      swap1\n      sub\n      0x1f\n      and\n      dup3\n      add\n      swap2\n    tag_254:\n      pop\n      pop\n      pop\n      pop\n      pop\n      dup2\n      jump\t// out\n        /* \"contracts/erc20.sol\":7273:7555  function transfer(address to, uint tokens ) public   override returns(bool success){... */\n    tag_118:\n        /* \"contracts/erc20.sol\":7343:7355  bool success */\n      0x00\n        /* \"contracts/erc20.sol\":7436:7451  tokenTradeStart */\n      sload(0x0e)\n        /* \"contracts/erc20.sol\":7420:7435  block.timestamp */\n      timestamp\n        /* \"contracts/erc20.sol\":7420:7451  block.timestamp>tokenTradeStart */\n      gt\n        /* \"contracts/erc20.sol\":7412:7487  require(block.timestamp>tokenTradeStart,\"Token cannot be trated right now\") */\n      tag_258\n      jumpi\n      mload(0x40)\n      0x08c379a000000000000000000000000000000000000000000000000000000000\n      dup2\n      mstore\n      0x04\n      add\n      tag_259\n      swap1\n      tag_215\n      jump\t// in\n    tag_259:\n      mload(0x40)\n      dup1\n      swap2\n      sub\n      swap1\n      revert\n    tag_258:\n        /* \"contracts/erc20.sol\":7498:7524  super.transfer(to, tokens) */\n      tag_260\n        /* \"contracts/erc20.sol\":7513:7515  to */\n      dup4\n        /* \"contracts/erc20.sol\":7517:7523  tokens */\n      dup4\n        /* \"contracts/erc20.sol\":7498:7512  super.transfer */\n      tag_261\n        /* \"contracts/erc20.sol\":7498:7524  super.transfer(to, tokens) */\n      jump\t// in\n    tag_260:\n      pop\n        /* \"contracts/erc20.sol\":7543:7547  true */\n      0x01\n        /* \"contracts/erc20.sol\":7536:7547  return true */\n      swap1\n      pop\n        /* \"contracts/erc20.sol\":7273:7555  function transfer(address to, uint tokens ) public   override returns(bool success){... */\n      swap3\n      swap2\n      pop\n      pop\n      jump\t// out\n        /* \"contracts/erc20.sol\":3700:3737  uint public saleStart=block.timestamp */\n    tag_122:\n      sload(0x0c)\n      dup2\n      jump\t// out\n        /* \"contracts/erc20.sol\":3616:3645  uint public totalRaisedAmount */\n    tag_126:\n      sload(0x0b)\n      dup2\n      jump\t// out\n        /* \"contracts/erc20.sol\":3779:3821  uint public saleEnd=block.timestamp+604800 */\n    tag_130:\n      sload(0x0d)\n      dup2\n      jump\t// out\n        /* \"contracts/erc20.sol\":4111:4148  uint public  minInverstment=0.1 ether */\n    tag_134:\n      sload(0x10)\n      dup2\n      jump\t// out\n        /* \"contracts/erc20.sol\":3933:3977  uint public tokenTradeStart=saleEnd + 604800 */\n    tag_138:\n      sload(0x0e)\n      dup2\n      jump\t// out\n        /* \"contracts/erc20.sol\":3456:3487  address payable public  deposit */\n    tag_142:\n      0x08\n      0x00\n      swap1\n      sload\n      swap1\n      0x0100\n      exp\n      swap1\n      div\n      0xffffffffffffffffffffffffffffffffffffffff\n      and\n      dup2\n      jump\t// out\n        /* \"contracts/erc20.sol\":2168:2325  function allowance(address tokenOwner, address spender) public  override  view  returns(uint remaining){... */\n    tag_149:\n        /* \"contracts/erc20.sol\":2256:2270  uint remaining */\n      0x00\n        /* \"contracts/erc20.sol\":2289:2296  allowed */\n      0x06\n        /* \"contracts/erc20.sol\":2289:2308  allowed[tokenOwner] */\n      0x00\n        /* \"contracts/erc20.sol\":2297:2307  tokenOwner */\n      dup5\n        /* \"contracts/erc20.sol\":2289:2308  allowed[tokenOwner] */\n      0xffffffffffffffffffffffffffffffffffffffff\n      and\n      0xffffffffffffffffffffffffffffffffffffffff\n      and\n      dup2\n      mstore\n      0x20\n      add\n      swap1\n      dup2\n      mstore\n      0x20\n      add\n      0x00\n      keccak256\n        /* \"contracts/erc20.sol\":2289:2317  allowed[tokenOwner][spender] */\n      0x00\n        /* \"contracts/erc20.sol\":2309:2316  spender */\n      dup4\n        /* \"contracts/erc20.sol\":2289:2317  allowed[tokenOwner][spender] */\n      0xffffffffffffffffffffffffffffffffffffffff\n      and\n      0xffffffffffffffffffffffffffffffffffffffff\n      and\n      dup2\n      mstore\n      0x20\n      add\n      swap1\n      dup2\n      mstore\n      0x20\n      add\n      0x00\n      keccak256\n      sload\n        /* \"contracts/erc20.sol\":2282:2317  return allowed[tokenOwner][spender] */\n      swap1\n      pop\n        /* \"contracts/erc20.sol\":2168:2325  function allowance(address tokenOwner, address spender) public  override  view  returns(uint remaining){... */\n      swap3\n      swap2\n      pop\n      pop\n      jump\t// out\n        /* \"contracts/erc20.sol\":3358:3378  address public admin */\n    tag_155:\n      0x07\n      0x00\n      swap1\n      sload\n      swap1\n      0x0100\n      exp\n      swap1\n      div\n      0xffffffffffffffffffffffffffffffffffffffff\n      and\n      dup2\n      jump\t// out\n        /* \"contracts/erc20.sol\":3575:3605  uint public hardCap =300 ether */\n    tag_159:\n      sload(0x0a)\n      dup2\n      jump\t// out\n        /* \"contracts/erc20.sol\":2765:3308  function transferFrom(address from, address to, uint tokens) public virtual override  returns (bool success){... */\n    tag_217:\n        /* \"contracts/erc20.sol\":2860:2872  bool success */\n      0x00\n        /* \"contracts/erc20.sol\":2921:2927  tokens */\n      dup2\n        /* \"contracts/erc20.sol\":2894:2901  allowed */\n      0x06\n        /* \"contracts/erc20.sol\":2894:2907  allowed[from] */\n      0x00\n        /* \"contracts/erc20.sol\":2902:2906  from */\n      dup7\n        /* \"contracts/erc20.sol\":2894:2907  allowed[from] */\n      0xffffffffffffffffffffffffffffffffffffffff\n      and\n      0xffffffffffffffffffffffffffffffffffffffff\n      and\n      dup2\n      mstore\n      0x20\n      add\n      swap1\n      dup2\n      mstore\n      0x20\n      add\n      0x00\n      keccak256\n        /* \"contracts/erc20.sol\":2894:2919  allowed[from][msg.sender] */\n      0x00\n        /* \"contracts/erc20.sol\":2908:2918  msg.sender */\n      caller\n        /* \"contracts/erc20.sol\":2894:2919  allowed[from][msg.sender] */\n      0xffffffffffffffffffffffffffffffffffffffff\n      and\n      0xffffffffffffffffffffffffffffffffffffffff\n      and\n      dup2\n      mstore\n      0x20\n      add\n      swap1\n      dup2\n      mstore\n      0x20\n      add\n      0x00\n      keccak256\n      sload\n        /* \"contracts/erc20.sol\":2894:2927  allowed[from][msg.sender]>=tokens */\n      lt\n      iszero\n        /* \"contracts/erc20.sol\":2886:2953  require(allowed[from][msg.sender]>=tokens,\"Balance is insufficent\") */\n      tag_264\n      jumpi\n      mload(0x40)\n      0x08c379a000000000000000000000000000000000000000000000000000000000\n      dup2\n      mstore\n      0x04\n      add\n      tag_265\n      swap1\n      tag_210\n      jump\t// in\n    tag_265:\n      mload(0x40)\n      dup1\n      swap2\n      sub\n      swap1\n      revert\n    tag_264:\n        /* \"contracts/erc20.sol\":2988:2994  tokens */\n      dup2\n        /* \"contracts/erc20.sol\":2972:2980  balances */\n      0x05\n        /* \"contracts/erc20.sol\":2972:2986  balances[from] */\n      0x00\n        /* \"contracts/erc20.sol\":2981:2985  from */\n      dup7\n        /* \"contracts/erc20.sol\":2972:2986  balances[from] */\n      0xffffffffffffffffffffffffffffffffffffffff\n      and\n      0xffffffffffffffffffffffffffffffffffffffff\n      and\n      dup2\n      mstore\n      0x20\n      add\n      swap1\n      dup2\n      mstore\n      0x20\n      add\n      0x00\n      keccak256\n      sload\n        /* \"contracts/erc20.sol\":2972:2994  balances[from]>=tokens */\n      lt\n      iszero\n        /* \"contracts/erc20.sol\":2964:2995  require(balances[from]>=tokens) */\n      tag_266\n      jumpi\n      0x00\n      dup1\n      revert\n    tag_266:\n        /* \"contracts/erc20.sol\":3087:3093  tokens */\n      dup2\n        /* \"contracts/erc20.sol\":3071:3079  balances */\n      0x05\n        /* \"contracts/erc20.sol\":3071:3085  balances[from] */\n      0x00\n        /* \"contracts/erc20.sol\":3080:3084  from */\n      dup7\n        /* \"contracts/erc20.sol\":3071:3085  balances[from] */\n      0xffffffffffffffffffffffffffffffffffffffff\n      and\n      0xffffffffffffffffffffffffffffffffffffffff\n      and\n      dup2\n      mstore\n      0x20\n      add\n      swap1\n      dup2\n      mstore\n      0x20\n      add\n      0x00\n      keccak256\n      0x00\n        /* \"contracts/erc20.sol\":3071:3093  balances[from]-=tokens */\n      dup3\n      dup3\n      sload\n      tag_267\n      swap2\n      swap1\n      tag_186\n      jump\t// in\n    tag_267:\n      swap3\n      pop\n      pop\n      dup2\n      swap1\n      sstore\n      pop\n        /* \"contracts/erc20.sol\":3131:3137  tokens */\n      dup2\n        /* \"contracts/erc20.sol\":3104:3111  allowed */\n      0x06\n        /* \"contracts/erc20.sol\":3104:3117  allowed[from] */\n      0x00\n        /* \"contracts/erc20.sol\":3112:3116  from */\n      dup7\n        /* \"contracts/erc20.sol\":3104:3117  allowed[from] */\n      0xffffffffffffffffffffffffffffffffffffffff\n      and\n      0xffffffffffffffffffffffffffffffffffffffff\n      and\n      dup2\n      mstore\n      0x20\n      add\n      swap1\n      dup2\n      mstore\n      0x20\n      add\n      0x00\n      keccak256\n        /* \"contracts/erc20.sol\":3104:3129  allowed[from][msg.sender] */\n      0x00\n        /* \"contracts/erc20.sol\":3118:3128  msg.sender */\n      caller\n        /* \"contracts/erc20.sol\":3104:3129  allowed[from][msg.sender] */\n      0xffffffffffffffffffffffffffffffffffffffff\n      and\n      0xffffffffffffffffffffffffffffffffffffffff\n      and\n      dup2\n      mstore\n      0x20\n      add\n      swap1\n      dup2\n      mstore\n      0x20\n      add\n      0x00\n      keccak256\n      0x00\n        /* \"contracts/erc20.sol\":3104:3137  allowed[from][msg.sender]-=tokens */\n      dup3\n      dup3\n      sload\n      tag_268\n      swap2\n      swap1\n      tag_186\n      jump\t// in\n    tag_268:\n      swap3\n      pop\n      pop\n      dup2\n      swap1\n      sstore\n      pop\n        /* \"contracts/erc20.sol\":3199:3205  tokens */\n      dup2\n        /* \"contracts/erc20.sol\":3185:3193  balances */\n      0x05\n        /* \"contracts/erc20.sol\":3185:3197  balances[to] */\n      0x00\n        /* \"contracts/erc20.sol\":3194:3196  to */\n      dup6\n        /* \"contracts/erc20.sol\":3185:3197  balances[to] */\n      0xffffffffffffffffffffffffffffffffffffffff\n      and\n      0xffffffffffffffffffffffffffffffffffffffff\n      and\n      dup2\n      mstore\n      0x20\n      add\n      swap1\n      dup2\n      mstore\n      0x20\n      add\n      0x00\n      keccak256\n      0x00\n        /* \"contracts/erc20.sol\":3185:3205  balances[to]+=tokens */\n      dup3\n      dup3\n      sload\n      tag_269\n      swap2\n      swap1\n      tag_178\n      jump\t// in\n    tag_269:\n      swap3\n      pop\n      pop\n      dup2\n      swap1\n      sstore\n      pop\n        /* \"contracts/erc20.sol\":3265:3267  to */\n      dup3\n        /* \"contracts/erc20.sol\":3250:3276  Transfer(from, to, tokens) */\n      0xffffffffffffffffffffffffffffffffffffffff\n      and\n        /* \"contracts/erc20.sol\":3259:3263  from */\n      dup5\n        /* \"contracts/erc20.sol\":3250:3276  Transfer(from, to, tokens) */\n      0xffffffffffffffffffffffffffffffffffffffff\n      and\n      0xddf252ad1be2c89b69c2b068fc378daa952ba7f163c4a11628f55a4df523b3ef\n        /* \"contracts/erc20.sol\":3269:3275  tokens */\n      dup5\n        /* \"contracts/erc20.sol\":3250:3276  Transfer(from, to, tokens) */\n      mload(0x40)\n      tag_270\n      swap2\n      swap1\n      tag_44\n      jump\t// in\n    tag_270:\n      mload(0x40)\n      dup1\n      swap2\n      sub\n      swap1\n      log3\n        /* \"contracts/erc20.sol\":3296:3300  true */\n      0x01\n        /* \"contracts/erc20.sol\":3289:3300  return true */\n      swap1\n      pop\n        /* \"contracts/erc20.sol\":2765:3308  function transferFrom(address from, address to, uint tokens) public virtual override  returns (bool success){... */\n      swap4\n      swap3\n      pop\n      pop\n      pop\n      jump\t// out\n        /* \"contracts/erc20.sol\":1780:2160  function transfer(address to, uint tokens ) public  virtual override returns(bool success){... */\n    tag_261:\n        /* \"contracts/erc20.sol\":1857:1869  bool success */\n      0x00\n        /* \"contracts/erc20.sol\":1972:1978  tokens */\n      dup2\n        /* \"contracts/erc20.sol\":1950:1958  balances */\n      0x05\n        /* \"contracts/erc20.sol\":1950:1970  balances[msg.sender] */\n      0x00\n        /* \"contracts/erc20.sol\":1959:1969  msg.sender */\n      caller\n        /* \"contracts/erc20.sol\":1950:1970  balances[msg.sender] */\n      0xffffffffffffffffffffffffffffffffffffffff\n      and\n      0xffffffffffffffffffffffffffffffffffffffff\n      and\n      dup2\n      mstore\n      0x20\n      add\n      swap1\n      dup2\n      mstore\n      0x20\n      add\n      0x00\n      keccak256\n      sload\n        /* \"contracts/erc20.sol\":1950:1978  balances[msg.sender]>=tokens */\n      lt\n      iszero\n        /* \"contracts/erc20.sol\":1942:2004  require(balances[msg.sender]>=tokens,\"Balance is insufficent\") */\n      tag_272\n      jumpi\n      mload(0x40)\n      0x08c379a000000000000000000000000000000000000000000000000000000000\n      dup2\n      mstore\n      0x04\n      add\n      tag_273\n      swap1\n      tag_210\n      jump\t// in\n    tag_273:\n      mload(0x40)\n      dup1\n      swap2\n      sub\n      swap1\n      revert\n    tag_272:\n        /* \"contracts/erc20.sol\":2037:2043  tokens */\n      dup2\n        /* \"contracts/erc20.sol\":2023:2031  balances */\n      0x05\n        /* \"contracts/erc20.sol\":2023:2035  balances[to] */\n      0x00\n        /* \"contracts/erc20.sol\":2032:2034  to */\n      dup6\n        /* \"contracts/erc20.sol\":2023:2035  balances[to] */\n      0xffffffffffffffffffffffffffffffffffffffff\n      and\n      0xffffffffffffffffffffffffffffffffffffffff\n      and\n      dup2\n      mstore\n      0x20\n      add\n      swap1\n      dup2\n      mstore\n      0x20\n      add\n      0x00\n      keccak256\n      0x00\n        /* \"contracts/erc20.sol\":2023:2043  balances[to]+=tokens */\n      dup3\n      dup3\n      sload\n      tag_274\n      swap2\n      swap1\n      tag_178\n      jump\t// in\n    tag_274:\n      swap3\n      pop\n      pop\n      dup2\n      swap1\n      sstore\n      pop\n        /* \"contracts/erc20.sol\":2076:2082  tokens */\n      dup2\n        /* \"contracts/erc20.sol\":2054:2062  balances */\n      0x05\n        /* \"contracts/erc20.sol\":2054:2074  balances[msg.sender] */\n      0x00\n        /* \"contracts/erc20.sol\":2063:2073  msg.sender */\n      caller\n        /* \"contracts/erc20.sol\":2054:2074  balances[msg.sender] */\n      0xffffffffffffffffffffffffffffffffffffffff\n      and\n      0xffffffffffffffffffffffffffffffffffffffff\n      and\n      dup2\n      mstore\n      0x20\n      add\n      swap1\n      dup2\n      mstore\n      0x20\n      add\n      0x00\n      keccak256\n      0x00\n        /* \"contracts/erc20.sol\":2054:2082  balances[msg.sender]-=tokens */\n      dup3\n      dup3\n      sload\n      tag_275\n      swap2\n      swap1\n      tag_186\n      jump\t// in\n    tag_275:\n      swap3\n      pop\n      pop\n      dup2\n      swap1\n      sstore\n      pop\n        /* \"contracts/erc20.sol\":2118:2120  to */\n      dup3\n        /* \"contracts/erc20.sol\":2098:2128  Transfer(msg.sender,to,tokens) */\n      0xffffffffffffffffffffffffffffffffffffffff\n      and\n        /* \"contracts/erc20.sol\":2107:2117  msg.sender */\n      caller\n        /* \"contracts/erc20.sol\":2098:2128  Transfer(msg.sender,to,tokens) */\n      0xffffffffffffffffffffffffffffffffffffffff\n      and\n      0xddf252ad1be2c89b69c2b068fc378daa952ba7f163c4a11628f55a4df523b3ef\n        /* \"contracts/erc20.sol\":2121:2127  tokens */\n      dup5\n        /* \"contracts/erc20.sol\":2098:2128  Transfer(msg.sender,to,tokens) */\n      mload(0x40)\n      tag_276\n      swap2\n      swap1\n      tag_44\n      jump\t// in\n    tag_276:\n      mload(0x40)\n      dup1\n      swap2\n      sub\n      swap1\n      log3\n        /* \"contracts/erc20.sol\":2148:2152  true */\n      0x01\n        /* \"contracts/erc20.sol\":2141:2152  return true */\n      swap1\n      pop\n        /* \"contracts/erc20.sol\":1780:2160  function transfer(address to, uint tokens ) public  virtual override returns(bool success){... */\n      swap3\n      swap2\n      pop\n      pop\n      jump\t// out\n        /* \"#utility.yul\":7:84   */\n    tag_277:\n        /* \"#utility.yul\":44:51   */\n      0x00\n        /* \"#utility.yul\":73:78   */\n      dup2\n        /* \"#utility.yul\":62:78   */\n      swap1\n      pop\n        /* \"#utility.yul\":7:84   */\n      swap2\n      swap1\n      pop\n      jump\t// out\n        /* \"#utility.yul\":90:208   */\n    tag_278:\n        /* \"#utility.yul\":177:201   */\n      tag_326\n        /* \"#utility.yul\":195:200   */\n      dup2\n        /* \"#utility.yul\":177:201   */\n      tag_277\n      jump\t// in\n    tag_326:\n        /* \"#utility.yul\":172:175   */\n      dup3\n        /* \"#utility.yul\":165:202   */\n      mstore\n        /* \"#utility.yul\":90:208   */\n      pop\n      pop\n      jump\t// out\n        /* \"#utility.yul\":214:436   */\n    tag_44:\n        /* \"#utility.yul\":307:311   */\n      0x00\n        /* \"#utility.yul\":345:347   */\n      0x20\n        /* \"#utility.yul\":334:343   */\n      dup3\n        /* \"#utility.yul\":330:348   */\n      add\n        /* \"#utility.yul\":322:348   */\n      swap1\n      pop\n        /* \"#utility.yul\":358:429   */\n      tag_328\n        /* \"#utility.yul\":426:427   */\n      0x00\n        /* \"#utility.yul\":415:424   */\n      dup4\n        /* \"#utility.yul\":411:428   */\n      add\n        /* \"#utility.yul\":402:408   */\n      dup5\n        /* \"#utility.yul\":358:429   */\n      tag_278\n      jump\t// in\n    tag_328:\n        /* \"#utility.yul\":214:436   */\n      swap3\n      swap2\n      pop\n      pop\n      jump\t// out\n        /* \"#utility.yul\":442:541   */\n    tag_279:\n        /* \"#utility.yul\":494:500   */\n      0x00\n        /* \"#utility.yul\":528:533   */\n      dup2\n        /* \"#utility.yul\":522:534   */\n      mload\n        /* \"#utility.yul\":512:534   */\n      swap1\n      pop\n        /* \"#utility.yul\":442:541   */\n      swap2\n      swap1\n      pop\n      jump\t// out\n        /* \"#utility.yul\":547:716   */\n    tag_280:\n        /* \"#utility.yul\":631:642   */\n      0x00\n        /* \"#utility.yul\":665:671   */\n      dup3\n        /* \"#utility.yul\":660:663   */\n      dup3\n        /* \"#utility.yul\":653:672   */\n      mstore\n        /* \"#utility.yul\":705:709   */\n      0x20\n        /* \"#utility.yul\":700:703   */\n      dup3\n        /* \"#utility.yul\":696:710   */\n      add\n        /* \"#utility.yul\":681:710   */\n      swap1\n      pop\n        /* \"#utility.yul\":547:716   */\n      swap3\n      swap2\n      pop\n      pop\n      jump\t// out\n        /* \"#utility.yul\":722:968   */\n    tag_281:\n        /* \"#utility.yul\":803:804   */\n      0x00\n        /* \"#utility.yul\":813:926   */\n    tag_332:\n        /* \"#utility.yul\":827:833   */\n      dup4\n        /* \"#utility.yul\":824:825   */\n      dup2\n        /* \"#utility.yul\":821:834   */\n      lt\n        /* \"#utility.yul\":813:926   */\n      iszero\n      tag_334\n      jumpi\n        /* \"#utility.yul\":912:913   */\n      dup1\n        /* \"#utility.yul\":907:910   */\n      dup3\n        /* \"#utility.yul\":903:914   */\n      add\n        /* \"#utility.yul\":897:915   */\n      mload\n        /* \"#utility.yul\":893:894   */\n      dup2\n        /* \"#utility.yul\":888:891   */\n      dup5\n        /* \"#utility.yul\":884:895   */\n      add\n        /* \"#utility.yul\":877:916   */\n      mstore\n        /* \"#utility.yul\":849:851   */\n      0x20\n        /* \"#utility.yul\":846:847   */\n      dup2\n        /* \"#utility.yul\":842:852   */\n      add\n        /* \"#utility.yul\":837:852   */\n      swap1\n      pop\n        /* \"#utility.yul\":813:926   */\n      jump(tag_332)\n    tag_334:\n        /* \"#utility.yul\":960:961   */\n      0x00\n        /* \"#utility.yul\":951:957   */\n      dup5\n        /* \"#utility.yul\":946:949   */\n      dup5\n        /* \"#utility.yul\":942:958   */\n      add\n        /* \"#utility.yul\":935:962   */\n      mstore\n        /* \"#utility.yul\":784:968   */\n      pop\n        /* \"#utility.yul\":722:968   */\n      pop\n      pop\n      pop\n      jump\t// out\n        /* \"#utility.yul\":974:1076   */\n    tag_282:\n        /* \"#utility.yul\":1015:1021   */\n      0x00\n        /* \"#utility.yul\":1066:1068   */\n      0x1f\n        /* \"#utility.yul\":1062:1069   */\n      not\n        /* \"#utility.yul\":1057:1059   */\n      0x1f\n        /* \"#utility.yul\":1050:1055   */\n      dup4\n        /* \"#utility.yul\":1046:1060   */\n      add\n        /* \"#utility.yul\":1042:1070   */\n      and\n        /* \"#utility.yul\":1032:1070   */\n      swap1\n      pop\n        /* \"#utility.yul\":974:1076   */\n      swap2\n      swap1\n      pop\n      jump\t// out\n        /* \"#utility.yul\":1082:1459   */\n    tag_283:\n        /* \"#utility.yul\":1170:1173   */\n      0x00\n        /* \"#utility.yul\":1198:1237   */\n      tag_337\n        /* \"#utility.yul\":1231:1236   */\n      dup3\n        /* \"#utility.yul\":1198:1237   */\n      tag_279\n      jump\t// in\n    tag_337:\n        /* \"#utility.yul\":1253:1324   */\n      tag_338\n        /* \"#utility.yul\":1317:1323   */\n      dup2\n        /* \"#utility.yul\":1312:1315   */\n      dup6\n        /* \"#utility.yul\":1253:1324   */\n      tag_280\n      jump\t// in\n    tag_338:\n        /* \"#utility.yul\":1246:1324   */\n      swap4\n      pop\n        /* \"#utility.yul\":1333:1398   */\n      tag_339\n        /* \"#utility.yul\":1391:1397   */\n      dup2\n        /* \"#utility.yul\":1386:1389   */\n      dup6\n        /* \"#utility.yul\":1379:1383   */\n      0x20\n        /* \"#utility.yul\":1372:1377   */\n      dup7\n        /* \"#utility.yul\":1368:1384   */\n      add\n        /* \"#utility.yul\":1333:1398   */\n      tag_281\n      jump\t// in\n    tag_339:\n        /* \"#utility.yul\":1423:1452   */\n      tag_340\n        /* \"#utility.yul\":1445:1451   */\n      dup2\n        /* \"#utility.yul\":1423:1452   */\n      tag_282\n      jump\t// in\n    tag_340:\n        /* \"#utility.yul\":1418:1421   */\n      dup5\n        /* \"#utility.yul\":1414:1453   */\n      add\n        /* \"#utility.yul\":1407:1453   */\n      swap2\n      pop\n        /* \"#utility.yul\":1174:1459   */\n      pop\n        /* \"#utility.yul\":1082:1459   */\n      swap3\n      swap2\n      pop\n      pop\n      jump\t// out\n        /* \"#utility.yul\":1465:1778   */\n    tag_52:\n        /* \"#utility.yul\":1578:1582   */\n      0x00\n        /* \"#utility.yul\":1616:1618   */\n      0x20\n        /* \"#utility.yul\":1605:1614   */\n      dup3\n        /* \"#utility.yul\":1601:1619   */\n      add\n        /* \"#utility.yul\":1593:1619   */\n      swap1\n      pop\n        /* \"#utility.yul\":1665:1674   */\n      dup2\n        /* \"#utility.yul\":1659:1663   */\n      dup2\n        /* \"#utility.yul\":1655:1675   */\n      sub\n        /* \"#utility.yul\":1651:1652   */\n      0x00\n        /* \"#utility.yul\":1640:1649   */\n      dup4\n        /* \"#utility.yul\":1636:1653   */\n      add\n        /* \"#utility.yul\":1629:1676   */\n      mstore\n        /* \"#utility.yul\":1693:1771   */\n      tag_342\n        /* \"#utility.yul\":1766:1770   */\n      dup2\n        /* \"#utility.yul\":1757:1763   */\n      dup5\n        /* \"#utility.yul\":1693:1771   */\n      tag_283\n      jump\t// in\n    tag_342:\n        /* \"#utility.yul\":1685:1771   */\n      swap1\n      pop\n        /* \"#utility.yul\":1465:1778   */\n      swap3\n      swap2\n      pop\n      pop\n      jump\t// out\n        /* \"#utility.yul\":1865:1982   */\n    tag_285:\n        /* \"#utility.yul\":1974:1975   */\n      0x00\n        /* \"#utility.yul\":1971:1972   */\n      dup1\n        /* \"#utility.yul\":1964:1976   */\n      revert\n        /* \"#utility.yul\":2111:2237   */\n    tag_287:\n        /* \"#utility.yul\":2148:2155   */\n      0x00\n        /* \"#utility.yul\":2188:2230   */\n      0xffffffffffffffffffffffffffffffffffffffff\n        /* \"#utility.yul\":2181:2186   */\n      dup3\n        /* \"#utility.yul\":2177:2231   */\n      and\n        /* \"#utility.yul\":2166:2231   */\n      swap1\n      pop\n        /* \"#utility.yul\":2111:2237   */\n      swap2\n      swap1\n      pop\n      jump\t// out\n        /* \"#utility.yul\":2243:2339   */\n    tag_288:\n        /* \"#utility.yul\":2280:2287   */\n      0x00\n        /* \"#utility.yul\":2309:2333   */\n      tag_348\n        /* \"#utility.yul\":2327:2332   */\n      dup3\n        /* \"#utility.yul\":2309:2333   */\n      tag_287\n      jump\t// in\n    tag_348:\n        /* \"#utility.yul\":2298:2333   */\n      swap1\n      pop\n        /* \"#utility.yul\":2243:2339   */\n      swap2\n      swap1\n      pop\n      jump\t// out\n        /* \"#utility.yul\":2345:2467   */\n    tag_289:\n        /* \"#utility.yul\":2418:2442   */\n      tag_350\n        /* \"#utility.yul\":2436:2441   */\n      dup2\n        /* \"#utility.yul\":2418:2442   */\n      tag_288\n      jump\t// in\n    tag_350:\n        /* \"#utility.yul\":2411:2416   */\n      dup2\n        /* \"#utility.yul\":2408:2443   */\n      eq\n        /* \"#utility.yul\":2398:2461   */\n      tag_351\n      jumpi\n        /* \"#utility.yul\":2457:2458   */\n      0x00\n        /* \"#utility.yul\":2454:2455   */\n      dup1\n        /* \"#utility.yul\":2447:2459   */\n      revert\n        /* \"#utility.yul\":2398:2461   */\n    tag_351:\n        /* \"#utility.yul\":2345:2467   */\n      pop\n      jump\t// out\n        /* \"#utility.yul\":2473:2612   */\n    tag_290:\n        /* \"#utility.yul\":2519:2524   */\n      0x00\n        /* \"#utility.yul\":2557:2563   */\n      dup2\n        /* \"#utility.yul\":2544:2564   */\n      calldataload\n        /* \"#utility.yul\":2535:2564   */\n      swap1\n      pop\n        /* \"#utility.yul\":2573:2606   */\n      tag_353\n        /* \"#utility.yul\":2600:2605   */\n      dup2\n        /* \"#utility.yul\":2573:2606   */\n      tag_289\n      jump\t// in\n    tag_353:\n        /* \"#utility.yul\":2473:2612   */\n      swap3\n      swap2\n      pop\n      pop\n      jump\t// out\n        /* \"#utility.yul\":2618:2740   */\n    tag_291:\n        /* \"#utility.yul\":2691:2715   */\n      tag_355\n        /* \"#utility.yul\":2709:2714   */\n      dup2\n        /* \"#utility.yul\":2691:2715   */\n      tag_277\n      jump\t// in\n    tag_355:\n        /* \"#utility.yul\":2684:2689   */\n      dup2\n        /* \"#utility.yul\":2681:2716   */\n      eq\n        /* \"#utility.yul\":2671:2734   */\n      tag_356\n      jumpi\n        /* \"#utility.yul\":2730:2731   */\n      0x00\n        /* \"#utility.yul\":2727:2728   */\n      dup1\n        /* \"#utility.yul\":2720:2732   */\n      revert\n        /* \"#utility.yul\":2671:2734   */\n    tag_356:\n        /* \"#utility.yul\":2618:2740   */\n      pop\n      jump\t// out\n        /* \"#utility.yul\":2746:2885   */\n    tag_292:\n        /* \"#utility.yul\":2792:2797   */\n      0x00\n        /* \"#utility.yul\":2830:2836   */\n      dup2\n        /* \"#utility.yul\":2817:2837   */\n      calldataload\n        /* \"#utility.yul\":2808:2837   */\n      swap1\n      pop\n        /* \"#utility.yul\":2846:2879   */\n      tag_358\n        /* \"#utility.yul\":2873:2878   */\n      dup2\n        /* \"#utility.yul\":2846:2879   */\n      tag_291\n      jump\t// in\n    tag_358:\n        /* \"#utility.yul\":2746:2885   */\n      swap3\n      swap2\n      pop\n      pop\n      jump\t// out\n        /* \"#utility.yul\":2891:3365   */\n    tag_56:\n        /* \"#utility.yul\":2959:2965   */\n      0x00\n        /* \"#utility.yul\":2967:2973   */\n      dup1\n        /* \"#utility.yul\":3016:3018   */\n      0x40\n        /* \"#utility.yul\":3004:3013   */\n      dup4\n        /* \"#utility.yul\":2995:3002   */\n      dup6\n        /* \"#utility.yul\":2991:3014   */\n      sub\n        /* \"#utility.yul\":2987:3019   */\n      slt\n        /* \"#utility.yul\":2984:3103   */\n      iszero\n      tag_360\n      jumpi\n        /* \"#utility.yul\":3022:3101   */\n      tag_361\n      tag_285\n      jump\t// in\n    tag_361:\n        /* \"#utility.yul\":2984:3103   */\n    tag_360:\n        /* \"#utility.yul\":3142:3143   */\n      0x00\n        /* \"#utility.yul\":3167:3220   */\n      tag_362\n        /* \"#utility.yul\":3212:3219   */\n      dup6\n        /* \"#utility.yul\":3203:3209   */\n      dup3\n        /* \"#utility.yul\":3192:3201   */\n      dup7\n        /* \"#utility.yul\":3188:3210   */\n      add\n        /* \"#utility.yul\":3167:3220   */\n      tag_290\n      jump\t// in\n    tag_362:\n        /* \"#utility.yul\":3157:3220   */\n      swap3\n      pop\n        /* \"#utility.yul\":3113:3230   */\n      pop\n        /* \"#utility.yul\":3269:3271   */\n      0x20\n        /* \"#utility.yul\":3295:3348   */\n      tag_363\n        /* \"#utility.yul\":3340:3347   */\n      dup6\n        /* \"#utility.yul\":3331:3337   */\n      dup3\n        /* \"#utility.yul\":3320:3329   */\n      dup7\n        /* \"#utility.yul\":3316:3338   */\n      add\n        /* \"#utility.yul\":3295:3348   */\n      tag_292\n      jump\t// in\n    tag_363:\n        /* \"#utility.yul\":3285:3348   */\n      swap2\n      pop\n        /* \"#utility.yul\":3240:3358   */\n      pop\n        /* \"#utility.yul\":2891:3365   */\n      swap3\n      pop\n      swap3\n      swap1\n      pop\n      jump\t// out\n        /* \"#utility.yul\":3371:3461   */\n    tag_293:\n        /* \"#utility.yul\":3405:3412   */\n      0x00\n        /* \"#utility.yul\":3448:3453   */\n      dup2\n        /* \"#utility.yul\":3441:3454   */\n      iszero\n        /* \"#utility.yul\":3434:3455   */\n      iszero\n        /* \"#utility.yul\":3423:3455   */\n      swap1\n      pop\n        /* \"#utility.yul\":3371:3461   */\n      swap2\n      swap1\n      pop\n      jump\t// out\n        /* \"#utility.yul\":3467:3576   */\n    tag_294:\n        /* \"#utility.yul\":3548:3569   */\n      tag_366\n        /* \"#utility.yul\":3563:3568   */\n      dup2\n        /* \"#utility.yul\":3548:3569   */\n      tag_293\n      jump\t// in\n    tag_366:\n        /* \"#utility.yul\":3543:3546   */\n      dup3\n        /* \"#utility.yul\":3536:3570   */\n      mstore\n        /* \"#utility.yul\":3467:3576   */\n      pop\n      pop\n      jump\t// out\n        /* \"#utility.yul\":3582:3792   */\n    tag_59:\n        /* \"#utility.yul\":3669:3673   */\n      0x00\n        /* \"#utility.yul\":3707:3709   */\n      0x20\n        /* \"#utility.yul\":3696:3705   */\n      dup3\n        /* \"#utility.yul\":3692:3710   */\n      add\n        /* \"#utility.yul\":3684:3710   */\n      swap1\n      pop\n        /* \"#utility.yul\":3720:3785   */\n      tag_368\n        /* \"#utility.yul\":3782:3783   */\n      0x00\n        /* \"#utility.yul\":3771:3780   */\n      dup4\n        /* \"#utility.yul\":3767:3784   */\n      add\n        /* \"#utility.yul\":3758:3764   */\n      dup5\n        /* \"#utility.yul\":3720:3785   */\n      tag_294\n      jump\t// in\n    tag_368:\n        /* \"#utility.yul\":3582:3792   */\n      swap3\n      swap2\n      pop\n      pop\n      jump\t// out\n        /* \"#utility.yul\":3798:4417   */\n    tag_67:\n        /* \"#utility.yul\":3875:3881   */\n      0x00\n        /* \"#utility.yul\":3883:3889   */\n      dup1\n        /* \"#utility.yul\":3891:3897   */\n      0x00\n        /* \"#utility.yul\":3940:3942   */\n      0x60\n        /* \"#utility.yul\":3928:3937   */\n      dup5\n        /* \"#utility.yul\":3919:3926   */\n      dup7\n        /* \"#utility.yul\":3915:3938   */\n      sub\n        /* \"#utility.yul\":3911:3943   */\n      slt\n        /* \"#utility.yul\":3908:4027   */\n      iszero\n      tag_370\n      jumpi\n        /* \"#utility.yul\":3946:4025   */\n      tag_371\n      tag_285\n      jump\t// in\n    tag_371:\n        /* \"#utility.yul\":3908:4027   */\n    tag_370:\n        /* \"#utility.yul\":4066:4067   */\n      0x00\n        /* \"#utility.yul\":4091:4144   */\n      tag_372\n        /* \"#utility.yul\":4136:4143   */\n      dup7\n        /* \"#utility.yul\":4127:4133   */\n      dup3\n        /* \"#utility.yul\":4116:4125   */\n      dup8\n        /* \"#utility.yul\":4112:4134   */\n      add\n        /* \"#utility.yul\":4091:4144   */\n      tag_290\n      jump\t// in\n    tag_372:\n        /* \"#utility.yul\":4081:4144   */\n      swap4\n      pop\n        /* \"#utility.yul\":4037:4154   */\n      pop\n        /* \"#utility.yul\":4193:4195   */\n      0x20\n        /* \"#utility.yul\":4219:4272   */\n      tag_373\n        /* \"#utility.yul\":4264:4271   */\n      dup7\n        /* \"#utility.yul\":4255:4261   */\n      dup3\n        /* \"#utility.yul\":4244:4253   */\n      dup8\n        /* \"#utility.yul\":4240:4262   */\n      add\n        /* \"#utility.yul\":4219:4272   */\n      tag_290\n      jump\t// in\n    tag_373:\n        /* \"#utility.yul\":4209:4272   */\n      swap3\n      pop\n        /* \"#utility.yul\":4164:4282   */\n      pop\n        /* \"#utility.yul\":4321:4323   */\n      0x40\n        /* \"#utility.yul\":4347:4400   */\n      tag_374\n        /* \"#utility.yul\":4392:4399   */\n      dup7\n        /* \"#utility.yul\":4383:4389   */\n      dup3\n        /* \"#utility.yul\":4372:4381   */\n      dup8\n        /* \"#utility.yul\":4368:4390   */\n      add\n        /* \"#utility.yul\":4347:4400   */\n      tag_292\n      jump\t// in\n    tag_374:\n        /* \"#utility.yul\":4337:4400   */\n      swap2\n      pop\n        /* \"#utility.yul\":4292:4410   */\n      pop\n        /* \"#utility.yul\":3798:4417   */\n      swap3\n      pop\n      swap3\n      pop\n      swap3\n      jump\t// out\n        /* \"#utility.yul\":4423:4752   */\n    tag_73:\n        /* \"#utility.yul\":4482:4488   */\n      0x00\n        /* \"#utility.yul\":4531:4533   */\n      0x20\n        /* \"#utility.yul\":4519:4528   */\n      dup3\n        /* \"#utility.yul\":4510:4517   */\n      dup5\n        /* \"#utility.yul\":4506:4529   */\n      sub\n        /* \"#utility.yul\":4502:4534   */\n      slt\n        /* \"#utility.yul\":4499:4618   */\n      iszero\n      tag_376\n      jumpi\n        /* \"#utility.yul\":4537:4616   */\n      tag_377\n      tag_285\n      jump\t// in\n    tag_377:\n        /* \"#utility.yul\":4499:4618   */\n    tag_376:\n        /* \"#utility.yul\":4657:4658   */\n      0x00\n        /* \"#utility.yul\":4682:4735   */\n      tag_378\n        /* \"#utility.yul\":4727:4734   */\n      dup5\n        /* \"#utility.yul\":4718:4724   */\n      dup3\n        /* \"#utility.yul\":4707:4716   */\n      dup6\n        /* \"#utility.yul\":4703:4725   */\n      add\n        /* \"#utility.yul\":4682:4735   */\n      tag_290\n      jump\t// in\n    tag_378:\n        /* \"#utility.yul\":4672:4735   */\n      swap2\n      pop\n        /* \"#utility.yul\":4628:4745   */\n      pop\n        /* \"#utility.yul\":4423:4752   */\n      swap3\n      swap2\n      pop\n      pop\n      jump\t// out\n        /* \"#utility.yul\":4758:4938   */\n    tag_165:\n        /* \"#utility.yul\":4806:4883   */\n      0x4e487b7100000000000000000000000000000000000000000000000000000000\n        /* \"#utility.yul\":4803:4804   */\n      0x00\n        /* \"#utility.yul\":4796:4884   */\n      mstore\n        /* \"#utility.yul\":4903:4907   */\n      0x21\n        /* \"#utility.yul\":4900:4901   */\n      0x04\n        /* \"#utility.yul\":4893:4908   */\n      mstore\n        /* \"#utility.yul\":4927:4931   */\n      0x24\n        /* \"#utility.yul\":4924:4925   */\n      0x00\n        /* \"#utility.yul\":4917:4932   */\n      revert\n        /* \"#utility.yul\":4944:5058   */\n    tag_295:\n        /* \"#utility.yul\":5026:5027   */\n      0x04\n        /* \"#utility.yul\":5019:5024   */\n      dup2\n        /* \"#utility.yul\":5016:5028   */\n      lt\n        /* \"#utility.yul\":5006:5052   */\n      tag_381\n      jumpi\n        /* \"#utility.yul\":5032:5050   */\n      tag_382\n      tag_165\n      jump\t// in\n    tag_382:\n        /* \"#utility.yul\":5006:5052   */\n    tag_381:\n        /* \"#utility.yul\":4944:5058   */\n      pop\n      jump\t// out\n        /* \"#utility.yul\":5064:5193   */\n    tag_296:\n        /* \"#utility.yul\":5110:5117   */\n      0x00\n        /* \"#utility.yul\":5139:5144   */\n      dup2\n        /* \"#utility.yul\":5128:5144   */\n      swap1\n      pop\n        /* \"#utility.yul\":5145:5187   */\n      tag_384\n        /* \"#utility.yul\":5181:5186   */\n      dup3\n        /* \"#utility.yul\":5145:5187   */\n      tag_295\n      jump\t// in\n    tag_384:\n        /* \"#utility.yul\":5064:5193   */\n      swap2\n      swap1\n      pop\n      jump\t// out\n        /* \"#utility.yul\":5199:5328   */\n    tag_297:\n        /* \"#utility.yul\":5256:5265   */\n      0x00\n        /* \"#utility.yul\":5289:5322   */\n      tag_386\n        /* \"#utility.yul\":5316:5321   */\n      dup3\n        /* \"#utility.yul\":5289:5322   */\n      tag_296\n      jump\t// in\n    tag_386:\n        /* \"#utility.yul\":5276:5322   */\n      swap1\n      pop\n        /* \"#utility.yul\":5199:5328   */\n      swap2\n      swap1\n      pop\n      jump\t// out\n        /* \"#utility.yul\":5334:5479   */\n    tag_298:\n        /* \"#utility.yul\":5428:5472   */\n      tag_388\n        /* \"#utility.yul\":5466:5471   */\n      dup2\n        /* \"#utility.yul\":5428:5472   */\n      tag_297\n      jump\t// in\n    tag_388:\n        /* \"#utility.yul\":5423:5426   */\n      dup3\n        /* \"#utility.yul\":5416:5473   */\n      mstore\n        /* \"#utility.yul\":5334:5479   */\n      pop\n      pop\n      jump\t// out\n        /* \"#utility.yul\":5485:5721   */\n    tag_84:\n        /* \"#utility.yul\":5585:5589   */\n      0x00\n        /* \"#utility.yul\":5623:5625   */\n      0x20\n        /* \"#utility.yul\":5612:5621   */\n      dup3\n        /* \"#utility.yul\":5608:5626   */\n      add\n        /* \"#utility.yul\":5600:5626   */\n      swap1\n      pop\n        /* \"#utility.yul\":5636:5714   */\n      tag_390\n        /* \"#utility.yul\":5711:5712   */\n      0x00\n        /* \"#utility.yul\":5700:5709   */\n      dup4\n        /* \"#utility.yul\":5696:5713   */\n      add\n        /* \"#utility.yul\":5687:5693   */\n      dup5\n        /* \"#utility.yul\":5636:5714   */\n      tag_298\n      jump\t// in\n    tag_390:\n        /* \"#utility.yul\":5485:5721   */\n      swap3\n      swap2\n      pop\n      pop\n      jump\t// out\n        /* \"#utility.yul\":5727:5845   */\n    tag_299:\n        /* \"#utility.yul\":5814:5838   */\n      tag_392\n        /* \"#utility.yul\":5832:5837   */\n      dup2\n        /* \"#utility.yul\":5814:5838   */\n      tag_288\n      jump\t// in\n    tag_392:\n        /* \"#utility.yul\":5809:5812   */\n      dup3\n        /* \"#utility.yul\":5802:5839   */\n      mstore\n        /* \"#utility.yul\":5727:5845   */\n      pop\n      pop\n      jump\t// out\n        /* \"#utility.yul\":5851:6073   */\n    tag_97:\n        /* \"#utility.yul\":5944:5948   */\n      0x00\n        /* \"#utility.yul\":5982:5984   */\n      0x20\n        /* \"#utility.yul\":5971:5980   */\n      dup3\n        /* \"#utility.yul\":5967:5985   */\n      add\n        /* \"#utility.yul\":5959:5985   */\n      swap1\n      pop\n        /* \"#utility.yul\":5995:6066   */\n      tag_394\n        /* \"#utility.yul\":6063:6064   */\n      0x00\n        /* \"#utility.yul\":6052:6061   */\n      dup4\n        /* \"#utility.yul\":6048:6065   */\n      add\n        /* \"#utility.yul\":6039:6045   */\n      dup5\n        /* \"#utility.yul\":5995:6066   */\n      tag_299\n      jump\t// in\n    tag_394:\n        /* \"#utility.yul\":5851:6073   */\n      swap3\n      swap2\n      pop\n      pop\n      jump\t// out\n        /* \"#utility.yul\":6079:6183   */\n    tag_300:\n        /* \"#utility.yul\":6124:6131   */\n      0x00\n        /* \"#utility.yul\":6153:6177   */\n      tag_396\n        /* \"#utility.yul\":6171:6176   */\n      dup3\n        /* \"#utility.yul\":6153:6177   */\n      tag_287\n      jump\t// in\n    tag_396:\n        /* \"#utility.yul\":6142:6177   */\n      swap1\n      pop\n        /* \"#utility.yul\":6079:6183   */\n      swap2\n      swap1\n      pop\n      jump\t// out\n        /* \"#utility.yul\":6189:6327   */\n    tag_301:\n        /* \"#utility.yul\":6270:6302   */\n      tag_398\n        /* \"#utility.yul\":6296:6301   */\n      dup2\n        /* \"#utility.yul\":6270:6302   */\n      tag_300\n      jump\t// in\n    tag_398:\n        /* \"#utility.yul\":6263:6268   */\n      dup2\n        /* \"#utility.yul\":6260:6303   */\n      eq\n        /* \"#utility.yul\":6250:6321   */\n      tag_399\n      jumpi\n        /* \"#utility.yul\":6317:6318   */\n      0x00\n        /* \"#utility.yul\":6314:6315   */\n      dup1\n        /* \"#utility.yul\":6307:6319   */\n      revert\n        /* \"#utility.yul\":6250:6321   */\n    tag_399:\n        /* \"#utility.yul\":6189:6327   */\n      pop\n      jump\t// out\n        /* \"#utility.yul\":6333:6488   */\n    tag_302:\n        /* \"#utility.yul\":6387:6392   */\n      0x00\n        /* \"#utility.yul\":6425:6431   */\n      dup2\n        /* \"#utility.yul\":6412:6432   */\n      calldataload\n        /* \"#utility.yul\":6403:6432   */\n      swap1\n      pop\n        /* \"#utility.yul\":6441:6482   */\n      tag_401\n        /* \"#utility.yul\":6476:6481   */\n      dup2\n        /* \"#utility.yul\":6441:6482   */\n      tag_301\n      jump\t// in\n    tag_401:\n        /* \"#utility.yul\":6333:6488   */\n      swap3\n      swap2\n      pop\n      pop\n      jump\t// out\n        /* \"#utility.yul\":6494:6839   */\n    tag_104:\n        /* \"#utility.yul\":6561:6567   */\n      0x00\n        /* \"#utility.yul\":6610:6612   */\n      0x20\n        /* \"#utility.yul\":6598:6607   */\n      dup3\n        /* \"#utility.yul\":6589:6596   */\n      dup5\n        /* \"#utility.yul\":6585:6608   */\n      sub\n        /* \"#utility.yul\":6581:6613   */\n      slt\n        /* \"#utility.yul\":6578:6697   */\n      iszero\n      tag_403\n      jumpi\n        /* \"#utility.yul\":6616:6695   */\n      tag_404\n      tag_285\n      jump\t// in\n    tag_404:\n        /* \"#utility.yul\":6578:6697   */\n    tag_403:\n        /* \"#utility.yul\":6736:6737   */\n      0x00\n        /* \"#utility.yul\":6761:6822   */\n      tag_405\n        /* \"#utility.yul\":6814:6821   */\n      dup5\n        /* \"#utility.yul\":6805:6811   */\n      dup3\n        /* \"#utility.yul\":6794:6803   */\n      dup6\n        /* \"#utility.yul\":6790:6812   */\n      add\n        /* \"#utility.yul\":6761:6822   */\n      tag_302\n      jump\t// in\n    tag_405:\n        /* \"#utility.yul\":6751:6822   */\n      swap2\n      pop\n        /* \"#utility.yul\":6707:6832   */\n      pop\n        /* \"#utility.yul\":6494:6839   */\n      swap3\n      swap2\n      pop\n      pop\n      jump\t// out\n        /* \"#utility.yul\":6845:6987   */\n    tag_303:\n        /* \"#utility.yul\":6948:6980   */\n      tag_407\n        /* \"#utility.yul\":6974:6979   */\n      dup2\n        /* \"#utility.yul\":6948:6980   */\n      tag_300\n      jump\t// in\n    tag_407:\n        /* \"#utility.yul\":6943:6946   */\n      dup3\n        /* \"#utility.yul\":6936:6981   */\n      mstore\n        /* \"#utility.yul\":6845:6987   */\n      pop\n      pop\n      jump\t// out\n        /* \"#utility.yul\":6993:7247   */\n    tag_144:\n        /* \"#utility.yul\":7102:7106   */\n      0x00\n        /* \"#utility.yul\":7140:7142   */\n      0x20\n        /* \"#utility.yul\":7129:7138   */\n      dup3\n        /* \"#utility.yul\":7125:7143   */\n      add\n        /* \"#utility.yul\":7117:7143   */\n      swap1\n      pop\n        /* \"#utility.yul\":7153:7240   */\n      tag_409\n        /* \"#utility.yul\":7237:7238   */\n      0x00\n        /* \"#utility.yul\":7226:7235   */\n      dup4\n        /* \"#utility.yul\":7222:7239   */\n      add\n        /* \"#utility.yul\":7213:7219   */\n      dup5\n        /* \"#utility.yul\":7153:7240   */\n      tag_303\n      jump\t// in\n    tag_409:\n        /* \"#utility.yul\":6993:7247   */\n      swap3\n      swap2\n      pop\n      pop\n      jump\t// out\n        /* \"#utility.yul\":7253:7727   */\n    tag_148:\n        /* \"#utility.yul\":7321:7327   */\n      0x00\n        /* \"#utility.yul\":7329:7335   */\n      dup1\n        /* \"#utility.yul\":7378:7380   */\n      0x40\n        /* \"#utility.yul\":7366:7375   */\n      dup4\n        /* \"#utility.yul\":7357:7364   */\n      dup6\n        /* \"#utility.yul\":7353:7376   */\n      sub\n        /* \"#utility.yul\":7349:7381   */\n      slt\n        /* \"#utility.yul\":7346:7465   */\n      iszero\n      tag_411\n      jumpi\n        /* \"#utility.yul\":7384:7463   */\n      tag_412\n      tag_285\n      jump\t// in\n    tag_412:\n        /* \"#utility.yul\":7346:7465   */\n    tag_411:\n        /* \"#utility.yul\":7504:7505   */\n      0x00\n        /* \"#utility.yul\":7529:7582   */\n      tag_413\n        /* \"#utility.yul\":7574:7581   */\n      dup6\n        /* \"#utility.yul\":7565:7571   */\n      dup3\n        /* \"#utility.yul\":7554:7563   */\n      dup7\n        /* \"#utility.yul\":7550:7572   */\n      add\n        /* \"#utility.yul\":7529:7582   */\n      tag_290\n      jump\t// in\n    tag_413:\n        /* \"#utility.yul\":7519:7582   */\n      swap3\n      pop\n        /* \"#utility.yul\":7475:7592   */\n      pop\n        /* \"#utility.yul\":7631:7633   */\n      0x20\n        /* \"#utility.yul\":7657:7710   */\n      tag_414\n        /* \"#utility.yul\":7702:7709   */\n      dup6\n        /* \"#utility.yul\":7693:7699   */\n      dup3\n        /* \"#utility.yul\":7682:7691   */\n      dup7\n        /* \"#utility.yul\":7678:7700   */\n      add\n        /* \"#utility.yul\":7657:7710   */\n      tag_290\n      jump\t// in\n    tag_414:\n        /* \"#utility.yul\":7647:7710   */\n      swap2\n      pop\n        /* \"#utility.yul\":7602:7720   */\n      pop\n        /* \"#utility.yul\":7253:7727   */\n      swap3\n      pop\n      swap3\n      swap1\n      pop\n      jump\t// out\n        /* \"#utility.yul\":7733:7901   */\n    tag_304:\n        /* \"#utility.yul\":7873:7893   */\n      0x49434f206973206e6f742072756e6e696e670000000000000000000000000000\n        /* \"#utility.yul\":7869:7870   */\n      0x00\n        /* \"#utility.yul\":7861:7867   */\n      dup3\n        /* \"#utility.yul\":7857:7871   */\n      add\n        /* \"#utility.yul\":7850:7894   */\n      mstore\n        /* \"#utility.yul\":7733:7901   */\n      pop\n      jump\t// out\n        /* \"#utility.yul\":7907:8273   */\n    tag_305:\n        /* \"#utility.yul\":8049:8052   */\n      0x00\n        /* \"#utility.yul\":8070:8137   */\n      tag_417\n        /* \"#utility.yul\":8134:8136   */\n      0x12\n        /* \"#utility.yul\":8129:8132   */\n      dup4\n        /* \"#utility.yul\":8070:8137   */\n      tag_280\n      jump\t// in\n    tag_417:\n        /* \"#utility.yul\":8063:8137   */\n      swap2\n      pop\n        /* \"#utility.yul\":8146:8239   */\n      tag_418\n        /* \"#utility.yul\":8235:8238   */\n      dup3\n        /* \"#utility.yul\":8146:8239   */\n      tag_304\n      jump\t// in\n    tag_418:\n        /* \"#utility.yul\":8264:8266   */\n      0x20\n        /* \"#utility.yul\":8259:8262   */\n      dup3\n        /* \"#utility.yul\":8255:8267   */\n      add\n        /* \"#utility.yul\":8248:8267   */\n      swap1\n      pop\n        /* \"#utility.yul\":7907:8273   */\n      swap2\n      swap1\n      pop\n      jump\t// out\n        /* \"#utility.yul\":8279:8698   */\n    tag_172:\n        /* \"#utility.yul\":8445:8449   */\n      0x00\n        /* \"#utility.yul\":8483:8485   */\n      0x20\n        /* \"#utility.yul\":8472:8481   */\n      dup3\n        /* \"#utility.yul\":8468:8486   */\n      add\n        /* \"#utility.yul\":8460:8486   */\n      swap1\n      pop\n        /* \"#utility.yul\":8532:8541   */\n      dup2\n        /* \"#utility.yul\":8526:8530   */\n      dup2\n        /* \"#utility.yul\":8522:8542   */\n      sub\n        /* \"#utility.yul\":8518:8519   */\n      0x00\n        /* \"#utility.yul\":8507:8516   */\n      dup4\n        /* \"#utility.yul\":8503:8520   */\n      add\n        /* \"#utility.yul\":8496:8543   */\n      mstore\n        /* \"#utility.yul\":8560:8691   */\n      tag_420\n        /* \"#utility.yul\":8686:8690   */\n      dup2\n        /* \"#utility.yul\":8560:8691   */\n      tag_305\n      jump\t// in\n    tag_420:\n        /* \"#utility.yul\":8552:8691   */\n      swap1\n      pop\n        /* \"#utility.yul\":8279:8698   */\n      swap2\n      swap1\n      pop\n      jump\t// out\n        /* \"#utility.yul\":8704:8944   */\n    tag_306:\n        /* \"#utility.yul\":8844:8878   */\n      0x496e766573746e6d656e742076616c75652073686f756c642062652062657477\n        /* \"#utility.yul\":8840:8841   */\n      0x00\n        /* \"#utility.yul\":8832:8838   */\n      dup3\n        /* \"#utility.yul\":8828:8842   */\n      add\n        /* \"#utility.yul\":8821:8879   */\n      mstore\n        /* \"#utility.yul\":8913:8936   */\n      0x65656e20302e312045544820616e642035204554480000000000000000000000\n        /* \"#utility.yul\":8908:8910   */\n      0x20\n        /* \"#utility.yul\":8900:8906   */\n      dup3\n        /* \"#utility.yul\":8896:8911   */\n      add\n        /* \"#utility.yul\":8889:8937   */\n      mstore\n        /* \"#utility.yul\":8704:8944   */\n      pop\n      jump\t// out\n        /* \"#utility.yul\":8950:9316   */\n    tag_307:\n        /* \"#utility.yul\":9092:9095   */\n      0x00\n        /* \"#utility.yul\":9113:9180   */\n      tag_423\n        /* \"#utility.yul\":9177:9179   */\n      0x35\n        /* \"#utility.yul\":9172:9175   */\n      dup4\n        /* \"#utility.yul\":9113:9180   */\n      tag_280\n      jump\t// in\n    tag_423:\n        /* \"#utility.yul\":9106:9180   */\n      swap2\n      pop\n        /* \"#utility.yul\":9189:9282   */\n      tag_424\n        /* \"#utility.yul\":9278:9281   */\n      dup3\n        /* \"#utility.yul\":9189:9282   */\n      tag_306\n      jump\t// in\n    tag_424:\n        /* \"#utility.yul\":9307:9309   */\n      0x40\n        /* \"#utility.yul\":9302:9305   */\n      dup3\n        /* \"#utility.yul\":9298:9310   */\n      add\n        /* \"#utility.yul\":9291:9310   */\n      swap1\n      pop\n        /* \"#utility.yul\":8950:9316   */\n      swap2\n      swap1\n      pop\n      jump\t// out\n        /* \"#utility.yul\":9322:9741   */\n    tag_176:\n        /* \"#utility.yul\":9488:9492   */\n      0x00\n        /* \"#utility.yul\":9526:9528   */\n      0x20\n        /* \"#utility.yul\":9515:9524   */\n      dup3\n        /* \"#utility.yul\":9511:9529   */\n      add\n        /* \"#utility.yul\":9503:9529   */\n      swap1\n      pop\n        /* \"#utility.yul\":9575:9584   */\n      dup2\n        /* \"#utility.yul\":9569:9573   */\n      dup2\n        /* \"#utility.yul\":9565:9585   */\n      sub\n        /* \"#utility.yul\":9561:9562   */\n      0x00\n        /* \"#utility.yul\":9550:9559   */\n      dup4\n        /* \"#utility.yul\":9546:9563   */\n      add\n        /* \"#utility.yul\":9539:9586   */\n      mstore\n        /* \"#utility.yul\":9603:9734   */\n      tag_426\n        /* \"#utility.yul\":9729:9733   */\n      dup2\n        /* \"#utility.yul\":9603:9734   */\n      tag_307\n      jump\t// in\n    tag_426:\n        /* \"#utility.yul\":9595:9734   */\n      swap1\n      pop\n        /* \"#utility.yul\":9322:9741   */\n      swap2\n      swap1\n      pop\n      jump\t// out\n        /* \"#utility.yul\":9747:9927   */\n    tag_308:\n        /* \"#utility.yul\":9795:9872   */\n      0x4e487b7100000000000000000000000000000000000000000000000000000000\n        /* \"#utility.yul\":9792:9793   */\n      0x00\n        /* \"#utility.yul\":9785:9873   */\n      mstore\n        /* \"#utility.yul\":9892:9896   */\n      0x11\n        /* \"#utility.yul\":9889:9890   */\n      0x04\n        /* \"#utility.yul\":9882:9897   */\n      mstore\n        /* \"#utility.yul\":9916:9920   */\n      0x24\n        /* \"#utility.yul\":9913:9914   */\n      0x00\n        /* \"#utility.yul\":9906:9921   */\n      revert\n        /* \"#utility.yul\":9933:10124   */\n    tag_178:\n        /* \"#utility.yul\":9973:9976   */\n      0x00\n        /* \"#utility.yul\":9992:10012   */\n      tag_429\n        /* \"#utility.yul\":10010:10011   */\n      dup3\n        /* \"#utility.yul\":9992:10012   */\n      tag_277\n      jump\t// in\n    tag_429:\n        /* \"#utility.yul\":9987:10012   */\n      swap2\n      pop\n        /* \"#utility.yul\":10026:10046   */\n      tag_430\n        /* \"#utility.yul\":10044:10045   */\n      dup4\n        /* \"#utility.yul\":10026:10046   */\n      tag_277\n      jump\t// in\n    tag_430:\n        /* \"#utility.yul\":10021:10046   */\n      swap3\n      pop\n        /* \"#utility.yul\":10069:10070   */\n      dup3\n        /* \"#utility.yul\":10066:10067   */\n      dup3\n        /* \"#utility.yul\":10062:10071   */\n      add\n        /* \"#utility.yul\":10055:10071   */\n      swap1\n      pop\n        /* \"#utility.yul\":10090:10093   */\n      dup1\n        /* \"#utility.yul\":10087:10088   */\n      dup3\n        /* \"#utility.yul\":10084:10094   */\n      gt\n        /* \"#utility.yul\":10081:10117   */\n      iszero\n      tag_431\n      jumpi\n        /* \"#utility.yul\":10097:10115   */\n      tag_432\n      tag_308\n      jump\t// in\n    tag_432:\n        /* \"#utility.yul\":10081:10117   */\n    tag_431:\n        /* \"#utility.yul\":9933:10124   */\n      swap3\n      swap2\n      pop\n      pop\n      jump\t// out\n        /* \"#utility.yul\":10130:10369   */\n    tag_309:\n        /* \"#utility.yul\":10270:10304   */\n      0x546f74616c2072616973656420616d6f756e742073686f756c64206e6f742062\n        /* \"#utility.yul\":10266:10267   */\n      0x00\n        /* \"#utility.yul\":10258:10264   */\n      dup3\n        /* \"#utility.yul\":10254:10268   */\n      add\n        /* \"#utility.yul\":10247:10305   */\n      mstore\n        /* \"#utility.yul\":10339:10361   */\n      0x65206d6f7265207468616e204861726420436170000000000000000000000000\n        /* \"#utility.yul\":10334:10336   */\n      0x20\n        /* \"#utility.yul\":10326:10332   */\n      dup3\n        /* \"#utility.yul\":10322:10337   */\n      add\n        /* \"#utility.yul\":10315:10362   */\n      mstore\n        /* \"#utility.yul\":10130:10369   */\n      pop\n      jump\t// out\n        /* \"#utility.yul\":10375:10741   */\n    tag_310:\n        /* \"#utility.yul\":10517:10520   */\n      0x00\n        /* \"#utility.yul\":10538:10605   */\n      tag_435\n        /* \"#utility.yul\":10602:10604   */\n      0x34\n        /* \"#utility.yul\":10597:10600   */\n      dup4\n        /* \"#utility.yul\":10538:10605   */\n      tag_280\n      jump\t// in\n    tag_435:\n        /* \"#utility.yul\":10531:10605   */\n      swap2\n      pop\n        /* \"#utility.yul\":10614:10707   */\n      tag_436\n        /* \"#utility.yul\":10703:10706   */\n      dup3\n        /* \"#utility.yul\":10614:10707   */\n      tag_309\n      jump\t// in\n    tag_436:\n        /* \"#utility.yul\":10732:10734   */\n      0x40\n        /* \"#utility.yul\":10727:10730   */\n      dup3\n        /* \"#utility.yul\":10723:10735   */\n      add\n        /* \"#utility.yul\":10716:10735   */\n      swap1\n      pop\n        /* \"#utility.yul\":10375:10741   */\n      swap2\n      swap1\n      pop\n      jump\t// out\n        /* \"#utility.yul\":10747:11166   */\n    tag_181:\n        /* \"#utility.yul\":10913:10917   */\n      0x00\n        /* \"#utility.yul\":10951:10953   */\n      0x20\n        /* \"#utility.yul\":10940:10949   */\n      dup3\n        /* \"#utility.yul\":10936:10954   */\n      add\n        /* \"#utility.yul\":10928:10954   */\n      swap1\n      pop\n        /* \"#utility.yul\":11000:11009   */\n      dup2\n        /* \"#utility.yul\":10994:10998   */\n      dup2\n        /* \"#utility.yul\":10990:11010   */\n      sub\n        /* \"#utility.yul\":10986:10987   */\n      0x00\n        /* \"#utility.yul\":10975:10984   */\n      dup4\n        /* \"#utility.yul\":10971:10988   */\n      add\n        /* \"#utility.yul\":10964:11011   */\n      mstore\n        /* \"#utility.yul\":11028:11159   */\n      tag_438\n        /* \"#utility.yul\":11154:11158   */\n      dup2\n        /* \"#utility.yul\":11028:11159   */\n      tag_310\n      jump\t// in\n    tag_438:\n        /* \"#utility.yul\":11020:11159   */\n      swap1\n      pop\n        /* \"#utility.yul\":10747:11166   */\n      swap2\n      swap1\n      pop\n      jump\t// out\n        /* \"#utility.yul\":11172:11352   */\n    tag_311:\n        /* \"#utility.yul\":11220:11297   */\n      0x4e487b7100000000000000000000000000000000000000000000000000000000\n        /* \"#utility.yul\":11217:11218   */\n      0x00\n        /* \"#utility.yul\":11210:11298   */\n      mstore\n        /* \"#utility.yul\":11317:11321   */\n      0x12\n        /* \"#utility.yul\":11314:11315   */\n      0x04\n        /* \"#utility.yul\":11307:11322   */\n      mstore\n        /* \"#utility.yul\":11341:11345   */\n      0x24\n        /* \"#utility.yul\":11338:11339   */\n      0x00\n        /* \"#utility.yul\":11331:11346   */\n      revert\n        /* \"#utility.yul\":11358:11543   */\n    tag_183:\n        /* \"#utility.yul\":11398:11399   */\n      0x00\n        /* \"#utility.yul\":11415:11435   */\n      tag_441\n        /* \"#utility.yul\":11433:11434   */\n      dup3\n        /* \"#utility.yul\":11415:11435   */\n      tag_277\n      jump\t// in\n    tag_441:\n        /* \"#utility.yul\":11410:11435   */\n      swap2\n      pop\n        /* \"#utility.yul\":11449:11469   */\n      tag_442\n        /* \"#utility.yul\":11467:11468   */\n      dup4\n        /* \"#utility.yul\":11449:11469   */\n      tag_277\n      jump\t// in\n    tag_442:\n        /* \"#utility.yul\":11444:11469   */\n      swap3\n      pop\n        /* \"#utility.yul\":11488:11489   */\n      dup3\n        /* \"#utility.yul\":11478:11513   */\n      tag_443\n      jumpi\n        /* \"#utility.yul\":11493:11511   */\n      tag_444\n      tag_311\n      jump\t// in\n    tag_444:\n        /* \"#utility.yul\":11478:11513   */\n    tag_443:\n        /* \"#utility.yul\":11535:11536   */\n      dup3\n        /* \"#utility.yul\":11532:11533   */\n      dup3\n        /* \"#utility.yul\":11528:11537   */\n      div\n        /* \"#utility.yul\":11523:11537   */\n      swap1\n      pop\n        /* \"#utility.yul\":11358:11543   */\n      swap3\n      swap2\n      pop\n      pop\n      jump\t// out\n        /* \"#utility.yul\":11549:11743   */\n    tag_186:\n        /* \"#utility.yul\":11589:11593   */\n      0x00\n        /* \"#utility.yul\":11609:11629   */\n      tag_446\n        /* \"#utility.yul\":11627:11628   */\n      dup3\n        /* \"#utility.yul\":11609:11629   */\n      tag_277\n      jump\t// in\n    tag_446:\n        /* \"#utility.yul\":11604:11629   */\n      swap2\n      pop\n        /* \"#utility.yul\":11643:11663   */\n      tag_447\n        /* \"#utility.yul\":11661:11662   */\n      dup4\n        /* \"#utility.yul\":11643:11663   */\n      tag_277\n      jump\t// in\n    tag_447:\n        /* \"#utility.yul\":11638:11663   */\n      swap3\n      pop\n        /* \"#utility.yul\":11687:11688   */\n      dup3\n        /* \"#utility.yul\":11684:11685   */\n      dup3\n        /* \"#utility.yul\":11680:11689   */\n      sub\n        /* \"#utility.yul\":11672:11689   */\n      swap1\n      pop\n        /* \"#utility.yul\":11711:11712   */\n      dup2\n        /* \"#utility.yul\":11705:11709   */\n      dup2\n        /* \"#utility.yul\":11702:11713   */\n      gt\n        /* \"#utility.yul\":11699:11736   */\n      iszero\n      tag_448\n      jumpi\n        /* \"#utility.yul\":11716:11734   */\n      tag_449\n      tag_308\n      jump\t// in\n    tag_449:\n        /* \"#utility.yul\":11699:11736   */\n    tag_448:\n        /* \"#utility.yul\":11549:11743   */\n      swap3\n      swap2\n      pop\n      pop\n      jump\t// out\n        /* \"#utility.yul\":11749:12191   */\n    tag_190:\n        /* \"#utility.yul\":11898:11902   */\n      0x00\n        /* \"#utility.yul\":11936:11938   */\n      0x60\n        /* \"#utility.yul\":11925:11934   */\n      dup3\n        /* \"#utility.yul\":11921:11939   */\n      add\n        /* \"#utility.yul\":11913:11939   */\n      swap1\n      pop\n        /* \"#utility.yul\":11949:12020   */\n      tag_451\n        /* \"#utility.yul\":12017:12018   */\n      0x00\n        /* \"#utility.yul\":12006:12015   */\n      dup4\n        /* \"#utility.yul\":12002:12019   */\n      add\n        /* \"#utility.yul\":11993:11999   */\n      dup7\n        /* \"#utility.yul\":11949:12020   */\n      tag_299\n      jump\t// in\n    tag_451:\n        /* \"#utility.yul\":12030:12102   */\n      tag_452\n        /* \"#utility.yul\":12098:12100   */\n      0x20\n        /* \"#utility.yul\":12087:12096   */\n      dup4\n        /* \"#utility.yul\":12083:12101   */\n      add\n        /* \"#utility.yul\":12074:12080   */\n      dup6\n        /* \"#utility.yul\":12030:12102   */\n      tag_278\n      jump\t// in\n    tag_452:\n        /* \"#utility.yul\":12112:12184   */\n      tag_453\n        /* \"#utility.yul\":12180:12182   */\n      0x40\n        /* \"#utility.yul\":12169:12178   */\n      dup4\n        /* \"#utility.yul\":12165:12183   */\n      add\n        /* \"#utility.yul\":12156:12162   */\n      dup5\n        /* \"#utility.yul\":12112:12184   */\n      tag_278\n      jump\t// in\n    tag_453:\n        /* \"#utility.yul\":11749:12191   */\n      swap5\n      swap4\n      pop\n      pop\n      pop\n      pop\n      jump\t// out\n        /* \"#utility.yul\":12197:12368   */\n    tag_312:\n        /* \"#utility.yul\":12337:12360   */\n      0x4f6e6c792061646d696e20697320616c6c6f7765640000000000000000000000\n        /* \"#utility.yul\":12333:12334   */\n      0x00\n        /* \"#utility.yul\":12325:12331   */\n      dup3\n        /* \"#utility.yul\":12321:12335   */\n      add\n        /* \"#utility.yul\":12314:12361   */\n      mstore\n        /* \"#utility.yul\":12197:12368   */\n      pop\n      jump\t// out\n        /* \"#utility.yul\":12374:12740   */\n    tag_313:\n        /* \"#utility.yul\":12516:12519   */\n      0x00\n        /* \"#utility.yul\":12537:12604   */\n      tag_456\n        /* \"#utility.yul\":12601:12603   */\n      0x15\n        /* \"#utility.yul\":12596:12599   */\n      dup4\n        /* \"#utility.yul\":12537:12604   */\n      tag_280\n      jump\t// in\n    tag_456:\n        /* \"#utility.yul\":12530:12604   */\n      swap2\n      pop\n        /* \"#utility.yul\":12613:12706   */\n      tag_457\n        /* \"#utility.yul\":12702:12705   */\n      dup3\n        /* \"#utility.yul\":12613:12706   */\n      tag_312\n      jump\t// in\n    tag_457:\n        /* \"#utility.yul\":12731:12733   */\n      0x20\n        /* \"#utility.yul\":12726:12729   */\n      dup3\n        /* \"#utility.yul\":12722:12734   */\n      add\n        /* \"#utility.yul\":12715:12734   */\n      swap1\n      pop\n        /* \"#utility.yul\":12374:12740   */\n      swap2\n      swap1\n      pop\n      jump\t// out\n        /* \"#utility.yul\":12746:13165   */\n    tag_194:\n        /* \"#utility.yul\":12912:12916   */\n      0x00\n        /* \"#utility.yul\":12950:12952   */\n      0x20\n        /* \"#utility.yul\":12939:12948   */\n      dup3\n        /* \"#utility.yul\":12935:12953   */\n      add\n        /* \"#utility.yul\":12927:12953   */\n      swap1\n      pop\n        /* \"#utility.yul\":12999:13008   */\n      dup2\n        /* \"#utility.yul\":12993:12997   */\n      dup2\n        /* \"#utility.yul\":12989:13009   */\n      sub\n        /* \"#utility.yul\":12985:12986   */\n      0x00\n        /* \"#utility.yul\":12974:12983   */\n      dup4\n        /* \"#utility.yul\":12970:12987   */\n      add\n        /* \"#utility.yul\":12963:13010   */\n      mstore\n        /* \"#utility.yul\":13027:13158   */\n      tag_459\n        /* \"#utility.yul\":13153:13157   */\n      dup2\n        /* \"#utility.yul\":13027:13158   */\n      tag_313\n      jump\t// in\n    tag_459:\n        /* \"#utility.yul\":13019:13158   */\n      swap1\n      pop\n        /* \"#utility.yul\":12746:13165   */\n      swap2\n      swap1\n      pop\n      jump\t// out\n        /* \"#utility.yul\":13171:13351   */\n    tag_314:\n        /* \"#utility.yul\":13219:13296   */\n      0x4e487b7100000000000000000000000000000000000000000000000000000000\n        /* \"#utility.yul\":13216:13217   */\n      0x00\n        /* \"#utility.yul\":13209:13297   */\n      mstore\n        /* \"#utility.yul\":13316:13320   */\n      0x22\n        /* \"#utility.yul\":13313:13314   */\n      0x04\n        /* \"#utility.yul\":13306:13321   */\n      mstore\n        /* \"#utility.yul\":13340:13344   */\n      0x24\n        /* \"#utility.yul\":13337:13338   */\n      0x00\n        /* \"#utility.yul\":13330:13345   */\n      revert\n        /* \"#utility.yul\":13357:13677   */\n    tag_199:\n        /* \"#utility.yul\":13401:13407   */\n      0x00\n        /* \"#utility.yul\":13438:13439   */\n      0x02\n        /* \"#utility.yul\":13432:13436   */\n      dup3\n        /* \"#utility.yul\":13428:13440   */\n      div\n        /* \"#utility.yul\":13418:13440   */\n      swap1\n      pop\n        /* \"#utility.yul\":13485:13486   */\n      0x01\n        /* \"#utility.yul\":13479:13483   */\n      dup3\n        /* \"#utility.yul\":13475:13487   */\n      and\n        /* \"#utility.yul\":13506:13524   */\n      dup1\n        /* \"#utility.yul\":13496:13577   */\n      tag_462\n      jumpi\n        /* \"#utility.yul\":13562:13566   */\n      0x7f\n        /* \"#utility.yul\":13554:13560   */\n      dup3\n        /* \"#utility.yul\":13550:13567   */\n      and\n        /* \"#utility.yul\":13540:13567   */\n      swap2\n      pop\n        /* \"#utility.yul\":13496:13577   */\n    tag_462:\n        /* \"#utility.yul\":13624:13626   */\n      0x20\n        /* \"#utility.yul\":13616:13622   */\n      dup3\n        /* \"#utility.yul\":13613:13627   */\n      lt\n        /* \"#utility.yul\":13593:13611   */\n      dup2\n        /* \"#utility.yul\":13590:13628   */\n      sub\n        /* \"#utility.yul\":13587:13671   */\n      tag_463\n      jumpi\n        /* \"#utility.yul\":13643:13661   */\n      tag_464\n      tag_314\n      jump\t// in\n    tag_464:\n        /* \"#utility.yul\":13587:13671   */\n    tag_463:\n        /* \"#utility.yul\":13408:13677   */\n      pop\n        /* \"#utility.yul\":13357:13677   */\n      swap2\n      swap1\n      pop\n      jump\t// out\n        /* \"#utility.yul\":13683:13864   */\n    tag_315:\n        /* \"#utility.yul\":13823:13856   */\n      0x746f6b656e732073686f756c642062652067726561746572207468616e203000\n        /* \"#utility.yul\":13819:13820   */\n      0x00\n        /* \"#utility.yul\":13811:13817   */\n      dup3\n        /* \"#utility.yul\":13807:13821   */\n      add\n        /* \"#utility.yul\":13800:13857   */\n      mstore\n        /* \"#utility.yul\":13683:13864   */\n      pop\n      jump\t// out\n        /* \"#utility.yul\":13870:14236   */\n    tag_316:\n        /* \"#utility.yul\":14012:14015   */\n      0x00\n        /* \"#utility.yul\":14033:14100   */\n      tag_467\n        /* \"#utility.yul\":14097:14099   */\n      0x1f\n        /* \"#utility.yul\":14092:14095   */\n      dup4\n        /* \"#utility.yul\":14033:14100   */\n      tag_280\n      jump\t// in\n    tag_467:\n        /* \"#utility.yul\":14026:14100   */\n      swap2\n      pop\n        /* \"#utility.yul\":14109:14202   */\n      tag_468\n        /* \"#utility.yul\":14198:14201   */\n      dup3\n        /* \"#utility.yul\":14109:14202   */\n      tag_315\n      jump\t// in\n    tag_468:\n        /* \"#utility.yul\":14227:14229   */\n      0x20\n        /* \"#utility.yul\":14222:14225   */\n      dup3\n        /* \"#utility.yul\":14218:14230   */\n      add\n        /* \"#utility.yul\":14211:14230   */\n      swap1\n      pop\n        /* \"#utility.yul\":13870:14236   */\n      swap2\n      swap1\n      pop\n      jump\t// out\n        /* \"#utility.yul\":14242:14661   */\n    tag_207:\n        /* \"#utility.yul\":14408:14412   */\n      0x00\n        /* \"#utility.yul\":14446:14448   */\n      0x20\n        /* \"#utility.yul\":14435:14444   */\n      dup3\n        /* \"#utility.yul\":14431:14449   */\n      add\n        /* \"#utility.yul\":14423:14449   */\n      swap1\n      pop\n        /* \"#utility.yul\":14495:14504   */\n      dup2\n        /* \"#utility.yul\":14489:14493   */\n      dup2\n        /* \"#utility.yul\":14485:14505   */\n      sub\n        /* \"#utility.yul\":14481:14482   */\n      0x00\n        /* \"#utility.yul\":14470:14479   */\n      dup4\n        /* \"#utility.yul\":14466:14483   */\n      add\n        /* \"#utility.yul\":14459:14506   */\n      mstore\n        /* \"#utility.yul\":14523:14654   */\n      tag_470\n        /* \"#utility.yul\":14649:14653   */\n      dup2\n        /* \"#utility.yul\":14523:14654   */\n      tag_316\n      jump\t// in\n    tag_470:\n        /* \"#utility.yul\":14515:14654   */\n      swap1\n      pop\n        /* \"#utility.yul\":14242:14661   */\n      swap2\n      swap1\n      pop\n      jump\t// out\n        /* \"#utility.yul\":14667:14839   */\n    tag_317:\n        /* \"#utility.yul\":14807:14831   */\n      0x42616c616e636520697320696e737566666963656e7400000000000000000000\n        /* \"#utility.yul\":14803:14804   */\n      0x00\n        /* \"#utility.yul\":14795:14801   */\n      dup3\n        /* \"#utility.yul\":14791:14805   */\n      add\n        /* \"#utility.yul\":14784:14832   */\n      mstore\n        /* \"#utility.yul\":14667:14839   */\n      pop\n      jump\t// out\n        /* \"#utility.yul\":14845:15211   */\n    tag_318:\n        /* \"#utility.yul\":14987:14990   */\n      0x00\n        /* \"#utility.yul\":15008:15075   */\n      tag_473\n        /* \"#utility.yul\":15072:15074   */\n      0x16\n        /* \"#utility.yul\":15067:15070   */\n      dup4\n        /* \"#utility.yul\":15008:15075   */\n      tag_280\n      jump\t// in\n    tag_473:\n        /* \"#utility.yul\":15001:15075   */\n      swap2\n      pop\n        /* \"#utility.yul\":15084:15177   */\n      tag_474\n        /* \"#utility.yul\":15173:15176   */\n      dup3\n        /* \"#utility.yul\":15084:15177   */\n      tag_317\n      jump\t// in\n    tag_474:\n        /* \"#utility.yul\":15202:15204   */\n      0x20\n        /* \"#utility.yul\":15197:15200   */\n      dup3\n        /* \"#utility.yul\":15193:15205   */\n      add\n        /* \"#utility.yul\":15186:15205   */\n      swap1\n      pop\n        /* \"#utility.yul\":14845:15211   */\n      swap2\n      swap1\n      pop\n      jump\t// out\n        /* \"#utility.yul\":15217:15636   */\n    tag_210:\n        /* \"#utility.yul\":15383:15387   */\n      0x00\n        /* \"#utility.yul\":15421:15423   */\n      0x20\n        /* \"#utility.yul\":15410:15419   */\n      dup3\n        /* \"#utility.yul\":15406:15424   */\n      add\n        /* \"#utility.yul\":15398:15424   */\n      swap1\n      pop\n        /* \"#utility.yul\":15470:15479   */\n      dup2\n        /* \"#utility.yul\":15464:15468   */\n      dup2\n        /* \"#utility.yul\":15460:15480   */\n      sub\n        /* \"#utility.yul\":15456:15457   */\n      0x00\n        /* \"#utility.yul\":15445:15454   */\n      dup4\n        /* \"#utility.yul\":15441:15458   */\n      add\n        /* \"#utility.yul\":15434:15481   */\n      mstore\n        /* \"#utility.yul\":15498:15629   */\n      tag_476\n        /* \"#utility.yul\":15624:15628   */\n      dup2\n        /* \"#utility.yul\":15498:15629   */\n      tag_318\n      jump\t// in\n    tag_476:\n        /* \"#utility.yul\":15490:15629   */\n      swap1\n      pop\n        /* \"#utility.yul\":15217:15636   */\n      swap2\n      swap1\n      pop\n      jump\t// out\n        /* \"#utility.yul\":15642:15824   */\n    tag_319:\n        /* \"#utility.yul\":15782:15816   */\n      0x546f6b656e2063616e6e6f7420626520747261746564207269676874206e6f77\n        /* \"#utility.yul\":15778:15779   */\n      0x00\n        /* \"#utility.yul\":15770:15776   */\n      dup3\n        /* \"#utility.yul\":15766:15780   */\n      add\n        /* \"#utility.yul\":15759:15817   */\n      mstore\n        /* \"#utility.yul\":15642:15824   */\n      pop\n      jump\t// out\n        /* \"#utility.yul\":15830:16196   */\n    tag_320:\n        /* \"#utility.yul\":15972:15975   */\n      0x00\n        /* \"#utility.yul\":15993:16060   */\n      tag_479\n        /* \"#utility.yul\":16057:16059   */\n      0x20\n        /* \"#utility.yul\":16052:16055   */\n      dup4\n        /* \"#utility.yul\":15993:16060   */\n      tag_280\n      jump\t// in\n    tag_479:\n        /* \"#utility.yul\":15986:16060   */\n      swap2\n      pop\n        /* \"#utility.yul\":16069:16162   */\n      tag_480\n        /* \"#utility.yul\":16158:16161   */\n      dup3\n        /* \"#utility.yul\":16069:16162   */\n      tag_319\n      jump\t// in\n    tag_480:\n        /* \"#utility.yul\":16187:16189   */\n      0x20\n        /* \"#utility.yul\":16182:16185   */\n      dup3\n        /* \"#utility.yul\":16178:16190   */\n      add\n        /* \"#utility.yul\":16171:16190   */\n      swap1\n      pop\n        /* \"#utility.yul\":15830:16196   */\n      swap2\n      swap1\n      pop\n      jump\t// out\n        /* \"#utility.yul\":16202:16621   */\n    tag_215:\n        /* \"#utility.yul\":16368:16372   */\n      0x00\n        /* \"#utility.yul\":16406:16408   */\n      0x20\n        /* \"#utility.yul\":16395:16404   */\n      dup3\n        /* \"#utility.yul\":16391:16409   */\n      add\n        /* \"#utility.yul\":16383:16409   */\n      swap1\n      pop\n        /* \"#utility.yul\":16455:16464   */\n      dup2\n        /* \"#utility.yul\":16449:16453   */\n      dup2\n        /* \"#utility.yul\":16445:16465   */\n      sub\n        /* \"#utility.yul\":16441:16442   */\n      0x00\n        /* \"#utility.yul\":16430:16439   */\n      dup4\n        /* \"#utility.yul\":16426:16443   */\n      add\n        /* \"#utility.yul\":16419:16466   */\n      mstore\n        /* \"#utility.yul\":16483:16614   */\n      tag_482\n        /* \"#utility.yul\":16609:16613   */\n      dup2\n        /* \"#utility.yul\":16483:16614   */\n      tag_320\n      jump\t// in\n    tag_482:\n        /* \"#utility.yul\":16475:16614   */\n      swap1\n      pop\n        /* \"#utility.yul\":16202:16621   */\n      swap2\n      swap1\n      pop\n      jump\t// out\n        /* \"#utility.yul\":16627:16858   */\n    tag_321:\n        /* \"#utility.yul\":16767:16801   */\n      0x546f6b656e732063616e206265206275726e656420696e206f6e6c7920616674\n        /* \"#utility.yul\":16763:16764   */\n      0x00\n        /* \"#utility.yul\":16755:16761   */\n      dup3\n        /* \"#utility.yul\":16751:16765   */\n      add\n        /* \"#utility.yul\":16744:16802   */\n      mstore\n        /* \"#utility.yul\":16836:16850   */\n      0x657220656e642073746174650000000000000000000000000000000000000000\n        /* \"#utility.yul\":16831:16833   */\n      0x20\n        /* \"#utility.yul\":16823:16829   */\n      dup3\n        /* \"#utility.yul\":16819:16834   */\n      add\n        /* \"#utility.yul\":16812:16851   */\n      mstore\n        /* \"#utility.yul\":16627:16858   */\n      pop\n      jump\t// out\n        /* \"#utility.yul\":16864:17230   */\n    tag_322:\n        /* \"#utility.yul\":17006:17009   */\n      0x00\n        /* \"#utility.yul\":17027:17094   */\n      tag_485\n        /* \"#utility.yul\":17091:17093   */\n      0x2c\n        /* \"#utility.yul\":17086:17089   */\n      dup4\n        /* \"#utility.yul\":17027:17094   */\n      tag_280\n      jump\t// in\n    tag_485:\n        /* \"#utility.yul\":17020:17094   */\n      swap2\n      pop\n        /* \"#utility.yul\":17103:17196   */\n      tag_486\n        /* \"#utility.yul\":17192:17195   */\n      dup3\n        /* \"#utility.yul\":17103:17196   */\n      tag_321\n      jump\t// in\n    tag_486:\n        /* \"#utility.yul\":17221:17223   */\n      0x40\n        /* \"#utility.yul\":17216:17219   */\n      dup3\n        /* \"#utility.yul\":17212:17224   */\n      add\n        /* \"#utility.yul\":17205:17224   */\n      swap1\n      pop\n        /* \"#utility.yul\":16864:17230   */\n      swap2\n      swap1\n      pop\n      jump\t// out\n        /* \"#utility.yul\":17236:17655   */\n    tag_240:\n        /* \"#utility.yul\":17402:17406   */\n      0x00\n        /* \"#utility.yul\":17440:17442   */\n      0x20\n        /* \"#utility.yul\":17429:17438   */\n      dup3\n        /* \"#utility.yul\":17425:17443   */\n      add\n        /* \"#utility.yul\":17417:17443   */\n      swap1\n      pop\n        /* \"#utility.yul\":17489:17498   */\n      dup2\n        /* \"#utility.yul\":17483:17487   */\n      dup2\n        /* \"#utility.yul\":17479:17499   */\n      sub\n        /* \"#utility.yul\":17475:17476   */\n      0x00\n        /* \"#utility.yul\":17464:17473   */\n      dup4\n        /* \"#utility.yul\":17460:17477   */\n      add\n        /* \"#utility.yul\":17453:17500   */\n      mstore\n        /* \"#utility.yul\":17517:17648   */\n      tag_488\n        /* \"#utility.yul\":17643:17647   */\n      dup2\n        /* \"#utility.yul\":17517:17648   */\n      tag_322\n      jump\t// in\n    tag_488:\n        /* \"#utility.yul\":17509:17648   */\n      swap1\n      pop\n        /* \"#utility.yul\":17236:17655   */\n      swap2\n      swap1\n      pop\n      jump\t// out\n\n    auxdata: 0xa2646970667358221220434280ec76ca7a3468962c6be00bfacc7c9fc2b43e721979821e7f48fe82810a64736f6c63430008160033\n}\n",
				"bytecode": {
					"linkReferences": {},
					"object": "60806040526040518060400160405280600781526020017f43727970746f73000000000000000000000000000000000000000000000000008152505f9081620000499190620004eb565b506040518060400160405280600481526020017f435250540000000000000000000000000000000000000000000000000000000081525060019081620000909190620004eb565b505f60025566038d7ea4c68000600955681043561a8829300000600a5542600c5562093a8042620000c29190620005fc565b600d5562093a80600d54620000d89190620005fc565b600e55674563918244f40000600f5567016345785d8a0000601055348015620000ff575f80fd5b50604051620026933803806200269383398181016040528101906200012591906200069b565b620f42406003819055503360045f6101000a81548173ffffffffffffffffffffffffffffffffffffffff021916908373ffffffffffffffffffffffffffffffffffffffff16021790555060035460055f60045f9054906101000a900473ffffffffffffffffffffffffffffffffffffffff1673ffffffffffffffffffffffffffffffffffffffff1673ffffffffffffffffffffffffffffffffffffffff1681526020019081526020015f20819055508060085f6101000a81548173ffffffffffffffffffffffffffffffffffffffff021916908373ffffffffffffffffffffffffffffffffffffffff1602179055503360075f6101000a81548173ffffffffffffffffffffffffffffffffffffffff021916908373ffffffffffffffffffffffffffffffffffffffff1602179055505f60115f6101000a81548160ff021916908360038111156200027b576200027a620006cb565b5b021790555050620006f8565b5f81519050919050565b7f4e487b71000000000000000000000000000000000000000000000000000000005f52604160045260245ffd5b7f4e487b71000000000000000000000000000000000000000000000000000000005f52602260045260245ffd5b5f60028204905060018216806200030357607f821691505b602082108103620003195762000318620002be565b5b50919050565b5f819050815f5260205f209050919050565b5f6020601f8301049050919050565b5f82821b905092915050565b5f600883026200037d7fffffffffffffffffffffffffffffffffffffffffffffffffffffffffffffffff8262000340565b62000389868362000340565b95508019841693508086168417925050509392505050565b5f819050919050565b5f819050919050565b5f620003d3620003cd620003c784620003a1565b620003aa565b620003a1565b9050919050565b5f819050919050565b620003ee83620003b3565b62000406620003fd82620003da565b8484546200034c565b825550505050565b5f90565b6200041c6200040e565b62000429818484620003e3565b505050565b5b818110156200045057620004445f8262000412565b6001810190506200042f565b5050565b601f8211156200049f5762000469816200031f565b620004748462000331565b8101602085101562000484578190505b6200049c620004938562000331565b8301826200042e565b50505b505050565b5f82821c905092915050565b5f620004c15f1984600802620004a4565b1980831691505092915050565b5f620004db8383620004b0565b9150826002028217905092915050565b620004f68262000287565b67ffffffffffffffff81111562000512576200051162000291565b5b6200051e8254620002eb565b6200052b82828562000454565b5f60209050601f83116001811462000561575f84156200054c578287015190505b620005588582620004ce565b865550620005c7565b601f19841662000571866200031f565b5f5b828110156200059a5784890151825560018201915060208501945060208101905062000573565b86831015620005ba5784890151620005b6601f891682620004b0565b8355505b6001600288020188555050505b505050505050565b7f4e487b71000000000000000000000000000000000000000000000000000000005f52601160045260245ffd5b5f6200060882620003a1565b91506200061583620003a1565b925082820190508082111562000630576200062f620005cf565b5b92915050565b5f80fd5b5f73ffffffffffffffffffffffffffffffffffffffff82169050919050565b5f62000665826200063a565b9050919050565b620006778162000659565b811462000682575f80fd5b50565b5f8151905062000695816200066c565b92915050565b5f60208284031215620006b357620006b262000636565b5b5f620006c28482850162000685565b91505092915050565b7f4e487b71000000000000000000000000000000000000000000000000000000005f52602160045260245ffd5b611f8d80620007065f395ff3fe60806040526004361061019f575f3560e01c80636d58c88f116100eb578063c4f2e0ec11610089578063dd62ed3e11610063578063dd62ed3e146105a8578063e8b5e51f146105e4578063f851a44014610602578063fb86a4041461062c576101ae565b8063c4f2e0ec1461052a578063cc9ba58314610554578063d0e30db01461057e576101ae565b8063a9059cbb116100c5578063a9059cbb14610470578063ab0bcc41146104ac578063ac369bb5146104d6578063c10b935814610500576101ae565b80636d58c88f146103e257806370a082311461040a57806395d89b4114610446576101ae565b806327e235e31161015857806344df8e701161013257806344df8e701461034e57806344f38756146103785780634d853ee5146103a25780635ed7ca5b146103cc576101ae565b806327e235e3146102be578063313ce567146102fa578063378aa70114610324576101ae565b8063046383a2146101b2578063046f7da2146101dc57806306fdde03146101f2578063095ea7b31461021c57806318160ddd1461025857806323b872dd14610282576101ae565b366101ae576101ac610656565b005b5f80fd5b3480156101bd575f80fd5b506101c661092e565b6040516101d3919061166c565b60405180910390f35b3480156101e7575f80fd5b506101f0610934565b005b3480156101fd575f80fd5b506102066109ef565b604051610213919061170f565b60405180910390f35b348015610227575f80fd5b50610242600480360381019061023d91906117b7565b610a7a565b60405161024f919061180f565b60405180910390f35b348015610263575f80fd5b5061026c610c29565b604051610279919061166c565b60405180910390f35b34801561028d575f80fd5b506102a860048036038101906102a39190611828565b610c2f565b6040516102b5919061180f565b60405180910390f35b3480156102c9575f80fd5b506102e460048036038101906102df9190611878565b610c8b565b6040516102f1919061166c565b60405180910390f35b348015610305575f80fd5b5061030e610ca0565b60405161031b919061166c565b60405180910390f35b34801561032f575f80fd5b50610338610ca6565b6040516103459190611916565b60405180910390f35b348015610359575f80fd5b50610362610d25565b60405161036f919061180f565b60405180910390f35b348015610383575f80fd5b5061038c610e35565b6040516103999190611916565b60405180910390f35b3480156103ad575f80fd5b506103b6610e47565b6040516103c3919061193e565b60405180910390f35b3480156103d7575f80fd5b506103e0610e6c565b005b3480156103ed575f80fd5b5061040860048036038101906104039190611992565b610f27565b005b348015610415575f80fd5b50610430600480360381019061042b9190611878565b610ff9565b60405161043d919061166c565b60405180910390f35b348015610451575f80fd5b5061045a61103f565b604051610467919061170f565b60405180910390f35b34801561047b575f80fd5b50610496600480360381019061049191906117b7565b6110cb565b6040516104a3919061180f565b60405180910390f35b3480156104b7575f80fd5b506104c0611125565b6040516104cd919061166c565b60405180910390f35b3480156104e1575f80fd5b506104ea61112b565b6040516104f7919061166c565b60405180910390f35b34801561050b575f80fd5b50610514611131565b604051610521919061166c565b60405180910390f35b348015610535575f80fd5b5061053e611137565b60405161054b919061166c565b60405180910390f35b34801561055f575f80fd5b5061056861113d565b604051610575919061166c565b60405180910390f35b348015610589575f80fd5b50610592611143565b60405161059f91906119cc565b60405180910390f35b3480156105b3575f80fd5b506105ce60048036038101906105c991906119e5565b611168565b6040516105db919061166c565b60405180910390f35b6105ec610656565b6040516105f9919061180f565b60405180910390f35b34801561060d575f80fd5b506106166111ea565b604051610623919061193e565b60405180910390f35b348015610637575f80fd5b5061064061120f565b60405161064d919061166c565b60405180910390f35b5f61065f610ca6565b60115f6101000a81548160ff02191690836003811115610682576106816118a3565b5b02179055506001600381111561069b5761069a6118a3565b5b60115f9054906101000a900460ff1660038111156106bc576106bb6118a3565b5b146106fc576040517f08c379a00000000000000000000000000000000000000000000000000000000081526004016106f390611a6d565b60405180910390fd5b60105434101580156107105750600f543411155b61074f576040517f08c379a000000000000000000000000000000000000000000000000000000000815260040161074690611afb565b60405180910390fd5b34600b5f8282546107609190611b46565b92505081905550600a54600b5411156107ae576040517f08c379a00000000000000000000000000000000000000000000000000000000081526004016107a590611be9565b60405180910390fd5b5f600954346107bd9190611c34565b90508060055f3373ffffffffffffffffffffffffffffffffffffffff1673ffffffffffffffffffffffffffffffffffffffff1681526020019081526020015f205f82825461080b9190611b46565b925050819055508060055f60045f9054906101000a900473ffffffffffffffffffffffffffffffffffffffff1673ffffffffffffffffffffffffffffffffffffffff1673ffffffffffffffffffffffffffffffffffffffff1681526020019081526020015f205f82825461087f9190611c64565b9250508190555060085f9054906101000a900473ffffffffffffffffffffffffffffffffffffffff1673ffffffffffffffffffffffffffffffffffffffff166108fc3490811502906040515f60405180830381858888f193505050501580156108ea573d5f803e3d5ffd5b507f4ae4bd7655e0d350876a23cd90c4227b13db560e34435c6a488150a9c844bf5f33348360405161091e93929190611c97565b60405180910390a1600191505090565b600f5481565b60075f9054906101000a900473ffffffffffffffffffffffffffffffffffffffff1673ffffffffffffffffffffffffffffffffffffffff163373ffffffffffffffffffffffffffffffffffffffff16146109c3576040517f08c379a00000000000000000000000000000000000000000000000000000000081526004016109ba90611d16565b60405180910390fd5b600160115f6101000a81548160ff021916908360038111156109e8576109e76118a3565b5b0217905550565b5f80546109fb90611d61565b80601f0160208091040260200160405190810160405280929190818152602001828054610a2790611d61565b8015610a725780601f10610a4957610100808354040283529160200191610a72565b820191905f5260205f20905b815481529060010190602001808311610a5557829003601f168201915b505050505081565b5f808211610abd576040517f08c379a0000000000000000000000000000000000000000000000000000000008152600401610ab490611ddb565b60405180910390fd5b8160055f3373ffffffffffffffffffffffffffffffffffffffff1673ffffffffffffffffffffffffffffffffffffffff1681526020019081526020015f20541015610b3d576040517f08c379a0000000000000000000000000000000000000000000000000000000008152600401610b3490611e43565b60405180910390fd5b8160065f3373ffffffffffffffffffffffffffffffffffffffff1673ffffffffffffffffffffffffffffffffffffffff1681526020019081526020015f205f8573ffffffffffffffffffffffffffffffffffffffff1673ffffffffffffffffffffffffffffffffffffffff1681526020019081526020015f20819055508273ffffffffffffffffffffffffffffffffffffffff163373ffffffffffffffffffffffffffffffffffffffff167f8c5be1e5ebec7d5bd14f71427d1e84f3dd0314c0f7b2291e5b200ac8c7c3b92584604051610c17919061166c565b60405180910390a36001905092915050565b60035481565b5f600e544211610c74576040517f08c379a0000000000000000000000000000000000000000000000000000000008152600401610c6b90611eab565b60405180910390fd5b610c7f848484611215565b50600190509392505050565b6005602052805f5260405f205f915090505481565b60025481565b5f600380811115610cba57610cb96118a3565b5b60115f9054906101000a900460ff166003811115610cdb57610cda6118a3565b5b03610ce95760039050610d22565b600c54421015610cfb575f9050610d22565b600c544210158015610d0f5750600d544211155b15610d1d5760019050610d22565b600290505b90565b5f610d2e610ca6565b60115f6101000a81548160ff02191690836003811115610d5157610d506118a3565b5b021790555060026003811115610d6a57610d696118a3565b5b60115f9054906101000a900460ff166003811115610d8b57610d8a6118a3565b5b14610dcb576040517f08c379a0000000000000000000000000000000000000000000000000000000008152600401610dc290611f39565b60405180910390fd5b5f60055f60045f9054906101000a900473ffffffffffffffffffffffffffffffffffffffff1673ffffffffffffffffffffffffffffffffffffffff1673ffffffffffffffffffffffffffffffffffffffff1681526020019081526020015f20819055506001905090565b60115f9054906101000a900460ff1681565b60045f9054906101000a900473ffffffffffffffffffffffffffffffffffffffff1681565b60075f9054906101000a900473ffffffffffffffffffffffffffffffffffffffff1673ffffffffffffffffffffffffffffffffffffffff163373ffffffffffffffffffffffffffffffffffffffff1614610efb576040517f08c379a0000000000000000000000000000000000000000000000000000000008152600401610ef290611d16565b60405180910390fd5b600360115f6101000a81548160ff02191690836003811115610f2057610f1f6118a3565b5b0217905550565b60075f9054906101000a900473ffffffffffffffffffffffffffffffffffffffff1673ffffffffffffffffffffffffffffffffffffffff163373ffffffffffffffffffffffffffffffffffffffff1614610fb6576040517f08c379a0000000000000000000000000000000000000000000000000000000008152600401610fad90611d16565b60405180910390fd5b8060085f6101000a81548173ffffffffffffffffffffffffffffffffffffffff021916908373ffffffffffffffffffffffffffffffffffffffff16021790555050565b5f60055f8373ffffffffffffffffffffffffffffffffffffffff1673ffffffffffffffffffffffffffffffffffffffff1681526020019081526020015f20549050919050565b6001805461104c90611d61565b80601f016020809104026020016040519081016040528092919081815260200182805461107890611d61565b80156110c35780601f1061109a576101008083540402835291602001916110c3565b820191905f5260205f20905b8154815290600101906020018083116110a657829003601f168201915b505050505081565b5f600e544211611110576040517f08c379a000000000000000000000000000000000000000000000000000000000815260040161110790611eab565b60405180910390fd5b61111a83836114be565b506001905092915050565b600c5481565b600b5481565b600d5481565b60105481565b600e5481565b60085f9054906101000a900473ffffffffffffffffffffffffffffffffffffffff1681565b5f60065f8473ffffffffffffffffffffffffffffffffffffffff1673ffffffffffffffffffffffffffffffffffffffff1681526020019081526020015f205f8373ffffffffffffffffffffffffffffffffffffffff1673ffffffffffffffffffffffffffffffffffffffff1681526020019081526020015f2054905092915050565b60075f9054906101000a900473ffffffffffffffffffffffffffffffffffffffff1681565b600a5481565b5f8160065f8673ffffffffffffffffffffffffffffffffffffffff1673ffffffffffffffffffffffffffffffffffffffff1681526020019081526020015f205f3373ffffffffffffffffffffffffffffffffffffffff1673ffffffffffffffffffffffffffffffffffffffff1681526020019081526020015f205410156112d1576040517f08c379a00000000000000000000000000000000000000000000000000000000081526004016112c890611e43565b60405180910390fd5b8160055f8673ffffffffffffffffffffffffffffffffffffffff1673ffffffffffffffffffffffffffffffffffffffff1681526020019081526020015f2054101561131a575f80fd5b8160055f8673ffffffffffffffffffffffffffffffffffffffff1673ffffffffffffffffffffffffffffffffffffffff1681526020019081526020015f205f8282546113669190611c64565b925050819055508160065f8673ffffffffffffffffffffffffffffffffffffffff1673ffffffffffffffffffffffffffffffffffffffff1681526020019081526020015f205f3373ffffffffffffffffffffffffffffffffffffffff1673ffffffffffffffffffffffffffffffffffffffff1681526020019081526020015f205f8282546113f49190611c64565b925050819055508160055f8573ffffffffffffffffffffffffffffffffffffffff1673ffffffffffffffffffffffffffffffffffffffff1681526020019081526020015f205f8282546114479190611b46565b925050819055508273ffffffffffffffffffffffffffffffffffffffff168473ffffffffffffffffffffffffffffffffffffffff167fddf252ad1be2c89b69c2b068fc378daa952ba7f163c4a11628f55a4df523b3ef846040516114ab919061166c565b60405180910390a3600190509392505050565b5f8160055f3373ffffffffffffffffffffffffffffffffffffffff1673ffffffffffffffffffffffffffffffffffffffff1681526020019081526020015f2054101561153f576040517f08c379a000000000000000000000000000000000000000000000000000000000815260040161153690611e43565b60405180910390fd5b8160055f8573ffffffffffffffffffffffffffffffffffffffff1673ffffffffffffffffffffffffffffffffffffffff1681526020019081526020015f205f82825461158b9190611b46565b925050819055508160055f3373ffffffffffffffffffffffffffffffffffffffff1673ffffffffffffffffffffffffffffffffffffffff1681526020019081526020015f205f8282546115de9190611c64565b925050819055508273ffffffffffffffffffffffffffffffffffffffff163373ffffffffffffffffffffffffffffffffffffffff167fddf252ad1be2c89b69c2b068fc378daa952ba7f163c4a11628f55a4df523b3ef84604051611642919061166c565b60405180910390a36001905092915050565b5f819050919050565b61166681611654565b82525050565b5f60208201905061167f5f83018461165d565b92915050565b5f81519050919050565b5f82825260208201905092915050565b5f5b838110156116bc5780820151818401526020810190506116a1565b5f8484015250505050565b5f601f19601f8301169050919050565b5f6116e182611685565b6116eb818561168f565b93506116fb81856020860161169f565b611704816116c7565b840191505092915050565b5f6020820190508181035f83015261172781846116d7565b905092915050565b5f80fd5b5f73ffffffffffffffffffffffffffffffffffffffff82169050919050565b5f61175c82611733565b9050919050565b61176c81611752565b8114611776575f80fd5b50565b5f8135905061178781611763565b92915050565b61179681611654565b81146117a0575f80fd5b50565b5f813590506117b18161178d565b92915050565b5f80604083850312156117cd576117cc61172f565b5b5f6117da85828601611779565b92505060206117eb858286016117a3565b9150509250929050565b5f8115159050919050565b611809816117f5565b82525050565b5f6020820190506118225f830184611800565b92915050565b5f805f6060848603121561183f5761183e61172f565b5b5f61184c86828701611779565b935050602061185d86828701611779565b925050604061186e868287016117a3565b9150509250925092565b5f6020828403121561188d5761188c61172f565b5b5f61189a84828501611779565b91505092915050565b7f4e487b71000000000000000000000000000000000000000000000000000000005f52602160045260245ffd5b600481106118e1576118e06118a3565b5b50565b5f8190506118f1826118d0565b919050565b5f611900826118e4565b9050919050565b611910816118f6565b82525050565b5f6020820190506119295f830184611907565b92915050565b61193881611752565b82525050565b5f6020820190506119515f83018461192f565b92915050565b5f61196182611733565b9050919050565b61197181611957565b811461197b575f80fd5b50565b5f8135905061198c81611968565b92915050565b5f602082840312156119a7576119a661172f565b5b5f6119b48482850161197e565b91505092915050565b6119c681611957565b82525050565b5f6020820190506119df5f8301846119bd565b92915050565b5f80604083850312156119fb576119fa61172f565b5b5f611a0885828601611779565b9250506020611a1985828601611779565b9150509250929050565b7f49434f206973206e6f742072756e6e696e6700000000000000000000000000005f82015250565b5f611a5760128361168f565b9150611a6282611a23565b602082019050919050565b5f6020820190508181035f830152611a8481611a4b565b9050919050565b7f496e766573746e6d656e742076616c75652073686f756c6420626520626574775f8201527f65656e20302e312045544820616e642035204554480000000000000000000000602082015250565b5f611ae560358361168f565b9150611af082611a8b565b604082019050919050565b5f6020820190508181035f830152611b1281611ad9565b9050919050565b7f4e487b71000000000000000000000000000000000000000000000000000000005f52601160045260245ffd5b5f611b5082611654565b9150611b5b83611654565b9250828201905080821115611b7357611b72611b19565b5b92915050565b7f546f74616c2072616973656420616d6f756e742073686f756c64206e6f7420625f8201527f65206d6f7265207468616e204861726420436170000000000000000000000000602082015250565b5f611bd360348361168f565b9150611bde82611b79565b604082019050919050565b5f6020820190508181035f830152611c0081611bc7565b9050919050565b7f4e487b71000000000000000000000000000000000000000000000000000000005f52601260045260245ffd5b5f611c3e82611654565b9150611c4983611654565b925082611c5957611c58611c07565b5b828204905092915050565b5f611c6e82611654565b9150611c7983611654565b9250828203905081811115611c9157611c90611b19565b5b92915050565b5f606082019050611caa5f83018661192f565b611cb7602083018561165d565b611cc4604083018461165d565b949350505050565b7f4f6e6c792061646d696e20697320616c6c6f77656400000000000000000000005f82015250565b5f611d0060158361168f565b9150611d0b82611ccc565b602082019050919050565b5f6020820190508181035f830152611d2d81611cf4565b9050919050565b7f4e487b71000000000000000000000000000000000000000000000000000000005f52602260045260245ffd5b5f6002820490506001821680611d7857607f821691505b602082108103611d8b57611d8a611d34565b5b50919050565b7f746f6b656e732073686f756c642062652067726561746572207468616e2030005f82015250565b5f611dc5601f8361168f565b9150611dd082611d91565b602082019050919050565b5f6020820190508181035f830152611df281611db9565b9050919050565b7f42616c616e636520697320696e737566666963656e74000000000000000000005f82015250565b5f611e2d60168361168f565b9150611e3882611df9565b602082019050919050565b5f6020820190508181035f830152611e5a81611e21565b9050919050565b7f546f6b656e2063616e6e6f7420626520747261746564207269676874206e6f775f82015250565b5f611e9560208361168f565b9150611ea082611e61565b602082019050919050565b5f6020820190508181035f830152611ec281611e89565b9050919050565b7f546f6b656e732063616e206265206275726e656420696e206f6e6c79206166745f8201527f657220656e642073746174650000000000000000000000000000000000000000602082015250565b5f611f23602c8361168f565b9150611f2e82611ec9565b604082019050919050565b5f6020820190508181035f830152611f5081611f17565b905091905056fea2646970667358221220434280ec76ca7a3468962c6be00bfacc7c9fc2b43e721979821e7f48fe82810a64736f6c63430008160033",
					"opcodes": "PUSH1 0x80 PUSH1 0x40 MSTORE PUSH1 0x40 MLOAD DUP1 PUSH1 0x40 ADD PUSH1 0x40 MSTORE DUP1 PUSH1 0x7 DUP2 MSTORE PUSH1 0x20 ADD PUSH32 0x43727970746F7300000000000000000000000000000000000000000000000000 DUP2 MSTORE POP PUSH0 SWAP1 DUP2 PUSH3 0x49 SWAP2 SWAP1 PUSH3 0x4EB JUMP JUMPDEST POP PUSH1 0x40 MLOAD DUP1 PUSH1 0x40 ADD PUSH1 0x40 MSTORE DUP1 PUSH1 0x4 DUP2 MSTORE PUSH1 0x20 ADD PUSH32 0x4352505400000000000000000000000000000000000000000000000000000000 DUP2 MSTORE POP PUSH1 0x1 SWAP1 DUP2 PUSH3 0x90 SWAP2 SWAP1 PUSH3 0x4EB JUMP JUMPDEST POP PUSH0 PUSH1 0x2 SSTORE PUSH7 0x38D7EA4C68000 PUSH1 0x9 SSTORE PUSH9 0x1043561A8829300000 PUSH1 0xA SSTORE TIMESTAMP PUSH1 0xC SSTORE PUSH3 0x93A80 TIMESTAMP PUSH3 0xC2 SWAP2 SWAP1 PUSH3 0x5FC JUMP JUMPDEST PUSH1 0xD SSTORE PUSH3 0x93A80 PUSH1 0xD SLOAD PUSH3 0xD8 SWAP2 SWAP1 PUSH3 0x5FC JUMP JUMPDEST PUSH1 0xE SSTORE PUSH8 0x4563918244F40000 PUSH1 0xF SSTORE PUSH8 0x16345785D8A0000 PUSH1 0x10 SSTORE CALLVALUE DUP1 ISZERO PUSH3 0xFF JUMPI PUSH0 DUP1 REVERT JUMPDEST POP PUSH1 0x40 MLOAD PUSH3 0x2693 CODESIZE SUB DUP1 PUSH3 0x2693 DUP4 CODECOPY DUP2 DUP2 ADD PUSH1 0x40 MSTORE DUP2 ADD SWAP1 PUSH3 0x125 SWAP2 SWAP1 PUSH3 0x69B JUMP JUMPDEST PUSH3 0xF4240 PUSH1 0x3 DUP2 SWAP1 SSTORE POP CALLER PUSH1 0x4 PUSH0 PUSH2 0x100 EXP DUP2 SLOAD DUP2 PUSH20 0xFFFFFFFFFFFFFFFFFFFFFFFFFFFFFFFFFFFFFFFF MUL NOT AND SWAP1 DUP4 PUSH20 0xFFFFFFFFFFFFFFFFFFFFFFFFFFFFFFFFFFFFFFFF AND MUL OR SWAP1 SSTORE POP PUSH1 0x3 SLOAD PUSH1 0x5 PUSH0 PUSH1 0x4 PUSH0 SWAP1 SLOAD SWAP1 PUSH2 0x100 EXP SWAP1 DIV PUSH20 0xFFFFFFFFFFFFFFFFFFFFFFFFFFFFFFFFFFFFFFFF AND PUSH20 0xFFFFFFFFFFFFFFFFFFFFFFFFFFFFFFFFFFFFFFFF AND PUSH20 0xFFFFFFFFFFFFFFFFFFFFFFFFFFFFFFFFFFFFFFFF AND DUP2 MSTORE PUSH1 0x20 ADD SWAP1 DUP2 MSTORE PUSH1 0x20 ADD PUSH0 KECCAK256 DUP2 SWAP1 SSTORE POP DUP1 PUSH1 0x8 PUSH0 PUSH2 0x100 EXP DUP2 SLOAD DUP2 PUSH20 0xFFFFFFFFFFFFFFFFFFFFFFFFFFFFFFFFFFFFFFFF MUL NOT AND SWAP1 DUP4 PUSH20 0xFFFFFFFFFFFFFFFFFFFFFFFFFFFFFFFFFFFFFFFF AND MUL OR SWAP1 SSTORE POP CALLER PUSH1 0x7 PUSH0 PUSH2 0x100 EXP DUP2 SLOAD DUP2 PUSH20 0xFFFFFFFFFFFFFFFFFFFFFFFFFFFFFFFFFFFFFFFF MUL NOT AND SWAP1 DUP4 PUSH20 0xFFFFFFFFFFFFFFFFFFFFFFFFFFFFFFFFFFFFFFFF AND MUL OR SWAP1 SSTORE POP PUSH0 PUSH1 0x11 PUSH0 PUSH2 0x100 EXP DUP2 SLOAD DUP2 PUSH1 0xFF MUL NOT AND SWAP1 DUP4 PUSH1 0x3 DUP2 GT ISZERO PUSH3 0x27B JUMPI PUSH3 0x27A PUSH3 0x6CB JUMP JUMPDEST JUMPDEST MUL OR SWAP1 SSTORE POP POP PUSH3 0x6F8 JUMP JUMPDEST PUSH0 DUP2 MLOAD SWAP1 POP SWAP2 SWAP1 POP JUMP JUMPDEST PUSH32 0x4E487B7100000000000000000000000000000000000000000000000000000000 PUSH0 MSTORE PUSH1 0x41 PUSH1 0x4 MSTORE PUSH1 0x24 PUSH0 REVERT JUMPDEST PUSH32 0x4E487B7100000000000000000000000000000000000000000000000000000000 PUSH0 MSTORE PUSH1 0x22 PUSH1 0x4 MSTORE PUSH1 0x24 PUSH0 REVERT JUMPDEST PUSH0 PUSH1 0x2 DUP3 DIV SWAP1 POP PUSH1 0x1 DUP3 AND DUP1 PUSH3 0x303 JUMPI PUSH1 0x7F DUP3 AND SWAP2 POP JUMPDEST PUSH1 0x20 DUP3 LT DUP2 SUB PUSH3 0x319 JUMPI PUSH3 0x318 PUSH3 0x2BE JUMP JUMPDEST JUMPDEST POP SWAP2 SWAP1 POP JUMP JUMPDEST PUSH0 DUP2 SWAP1 POP DUP2 PUSH0 MSTORE PUSH1 0x20 PUSH0 KECCAK256 SWAP1 POP SWAP2 SWAP1 POP JUMP JUMPDEST PUSH0 PUSH1 0x20 PUSH1 0x1F DUP4 ADD DIV SWAP1 POP SWAP2 SWAP1 POP JUMP JUMPDEST PUSH0 DUP3 DUP3 SHL SWAP1 POP SWAP3 SWAP2 POP POP JUMP JUMPDEST PUSH0 PUSH1 0x8 DUP4 MUL PUSH3 0x37D PUSH32 0xFFFFFFFFFFFFFFFFFFFFFFFFFFFFFFFFFFFFFFFFFFFFFFFFFFFFFFFFFFFFFFFF DUP3 PUSH3 0x340 JUMP JUMPDEST PUSH3 0x389 DUP7 DUP4 PUSH3 0x340 JUMP JUMPDEST SWAP6 POP DUP1 NOT DUP5 AND SWAP4 POP DUP1 DUP7 AND DUP5 OR SWAP3 POP POP POP SWAP4 SWAP3 POP POP POP JUMP JUMPDEST PUSH0 DUP2 SWAP1 POP SWAP2 SWAP1 POP JUMP JUMPDEST PUSH0 DUP2 SWAP1 POP SWAP2 SWAP1 POP JUMP JUMPDEST PUSH0 PUSH3 0x3D3 PUSH3 0x3CD PUSH3 0x3C7 DUP5 PUSH3 0x3A1 JUMP JUMPDEST PUSH3 0x3AA JUMP JUMPDEST PUSH3 0x3A1 JUMP JUMPDEST SWAP1 POP SWAP2 SWAP1 POP JUMP JUMPDEST PUSH0 DUP2 SWAP1 POP SWAP2 SWAP1 POP JUMP JUMPDEST PUSH3 0x3EE DUP4 PUSH3 0x3B3 JUMP JUMPDEST PUSH3 0x406 PUSH3 0x3FD DUP3 PUSH3 0x3DA JUMP JUMPDEST DUP5 DUP5 SLOAD PUSH3 0x34C JUMP JUMPDEST DUP3 SSTORE POP POP POP POP JUMP JUMPDEST PUSH0 SWAP1 JUMP JUMPDEST PUSH3 0x41C PUSH3 0x40E JUMP JUMPDEST PUSH3 0x429 DUP2 DUP5 DUP5 PUSH3 0x3E3 JUMP JUMPDEST POP POP POP JUMP JUMPDEST JUMPDEST DUP2 DUP2 LT ISZERO PUSH3 0x450 JUMPI PUSH3 0x444 PUSH0 DUP3 PUSH3 0x412 JUMP JUMPDEST PUSH1 0x1 DUP2 ADD SWAP1 POP PUSH3 0x42F JUMP JUMPDEST POP POP JUMP JUMPDEST PUSH1 0x1F DUP3 GT ISZERO PUSH3 0x49F JUMPI PUSH3 0x469 DUP2 PUSH3 0x31F JUMP JUMPDEST PUSH3 0x474 DUP5 PUSH3 0x331 JUMP JUMPDEST DUP2 ADD PUSH1 0x20 DUP6 LT ISZERO PUSH3 0x484 JUMPI DUP2 SWAP1 POP JUMPDEST PUSH3 0x49C PUSH3 0x493 DUP6 PUSH3 0x331 JUMP JUMPDEST DUP4 ADD DUP3 PUSH3 0x42E JUMP JUMPDEST POP POP JUMPDEST POP POP POP JUMP JUMPDEST PUSH0 DUP3 DUP3 SHR SWAP1 POP SWAP3 SWAP2 POP POP JUMP JUMPDEST PUSH0 PUSH3 0x4C1 PUSH0 NOT DUP5 PUSH1 0x8 MUL PUSH3 0x4A4 JUMP JUMPDEST NOT DUP1 DUP4 AND SWAP2 POP POP SWAP3 SWAP2 POP POP JUMP JUMPDEST PUSH0 PUSH3 0x4DB DUP4 DUP4 PUSH3 0x4B0 JUMP JUMPDEST SWAP2 POP DUP3 PUSH1 0x2 MUL DUP3 OR SWAP1 POP SWAP3 SWAP2 POP POP JUMP JUMPDEST PUSH3 0x4F6 DUP3 PUSH3 0x287 JUMP JUMPDEST PUSH8 0xFFFFFFFFFFFFFFFF DUP2 GT ISZERO PUSH3 0x512 JUMPI PUSH3 0x511 PUSH3 0x291 JUMP JUMPDEST JUMPDEST PUSH3 0x51E DUP3 SLOAD PUSH3 0x2EB JUMP JUMPDEST PUSH3 0x52B DUP3 DUP3 DUP6 PUSH3 0x454 JUMP JUMPDEST PUSH0 PUSH1 0x20 SWAP1 POP PUSH1 0x1F DUP4 GT PUSH1 0x1 DUP2 EQ PUSH3 0x561 JUMPI PUSH0 DUP5 ISZERO PUSH3 0x54C JUMPI DUP3 DUP8 ADD MLOAD SWAP1 POP JUMPDEST PUSH3 0x558 DUP6 DUP3 PUSH3 0x4CE JUMP JUMPDEST DUP7 SSTORE POP PUSH3 0x5C7 JUMP JUMPDEST PUSH1 0x1F NOT DUP5 AND PUSH3 0x571 DUP7 PUSH3 0x31F JUMP JUMPDEST PUSH0 JUMPDEST DUP3 DUP2 LT ISZERO PUSH3 0x59A JUMPI DUP5 DUP10 ADD MLOAD DUP3 SSTORE PUSH1 0x1 DUP3 ADD SWAP2 POP PUSH1 0x20 DUP6 ADD SWAP5 POP PUSH1 0x20 DUP2 ADD SWAP1 POP PUSH3 0x573 JUMP JUMPDEST DUP7 DUP4 LT ISZERO PUSH3 0x5BA JUMPI DUP5 DUP10 ADD MLOAD PUSH3 0x5B6 PUSH1 0x1F DUP10 AND DUP3 PUSH3 0x4B0 JUMP JUMPDEST DUP4 SSTORE POP JUMPDEST PUSH1 0x1 PUSH1 0x2 DUP9 MUL ADD DUP9 SSTORE POP POP POP JUMPDEST POP POP POP POP POP POP JUMP JUMPDEST PUSH32 0x4E487B7100000000000000000000000000000000000000000000000000000000 PUSH0 MSTORE PUSH1 0x11 PUSH1 0x4 MSTORE PUSH1 0x24 PUSH0 REVERT JUMPDEST PUSH0 PUSH3 0x608 DUP3 PUSH3 0x3A1 JUMP JUMPDEST SWAP2 POP PUSH3 0x615 DUP4 PUSH3 0x3A1 JUMP JUMPDEST SWAP3 POP DUP3 DUP3 ADD SWAP1 POP DUP1 DUP3 GT ISZERO PUSH3 0x630 JUMPI PUSH3 0x62F PUSH3 0x5CF JUMP JUMPDEST JUMPDEST SWAP3 SWAP2 POP POP JUMP JUMPDEST PUSH0 DUP1 REVERT JUMPDEST PUSH0 PUSH20 0xFFFFFFFFFFFFFFFFFFFFFFFFFFFFFFFFFFFFFFFF DUP3 AND SWAP1 POP SWAP2 SWAP1 POP JUMP JUMPDEST PUSH0 PUSH3 0x665 DUP3 PUSH3 0x63A JUMP JUMPDEST SWAP1 POP SWAP2 SWAP1 POP JUMP JUMPDEST PUSH3 0x677 DUP2 PUSH3 0x659 JUMP JUMPDEST DUP2 EQ PUSH3 0x682 JUMPI PUSH0 DUP1 REVERT JUMPDEST POP JUMP JUMPDEST PUSH0 DUP2 MLOAD SWAP1 POP PUSH3 0x695 DUP2 PUSH3 0x66C JUMP JUMPDEST SWAP3 SWAP2 POP POP JUMP JUMPDEST PUSH0 PUSH1 0x20 DUP3 DUP5 SUB SLT ISZERO PUSH3 0x6B3 JUMPI PUSH3 0x6B2 PUSH3 0x636 JUMP JUMPDEST JUMPDEST PUSH0 PUSH3 0x6C2 DUP5 DUP3 DUP6 ADD PUSH3 0x685 JUMP JUMPDEST SWAP2 POP POP SWAP3 SWAP2 POP POP JUMP JUMPDEST PUSH32 0x4E487B7100000000000000000000000000000000000000000000000000000000 PUSH0 MSTORE PUSH1 0x21 PUSH1 0x4 MSTORE PUSH1 0x24 PUSH0 REVERT JUMPDEST PUSH2 0x1F8D DUP1 PUSH3 0x706 PUSH0 CODECOPY PUSH0 RETURN INVALID PUSH1 0x80 PUSH1 0x40 MSTORE PUSH1 0x4 CALLDATASIZE LT PUSH2 0x19F JUMPI PUSH0 CALLDATALOAD PUSH1 0xE0 SHR DUP1 PUSH4 0x6D58C88F GT PUSH2 0xEB JUMPI DUP1 PUSH4 0xC4F2E0EC GT PUSH2 0x89 JUMPI DUP1 PUSH4 0xDD62ED3E GT PUSH2 0x63 JUMPI DUP1 PUSH4 0xDD62ED3E EQ PUSH2 0x5A8 JUMPI DUP1 PUSH4 0xE8B5E51F EQ PUSH2 0x5E4 JUMPI DUP1 PUSH4 0xF851A440 EQ PUSH2 0x602 JUMPI DUP1 PUSH4 0xFB86A404 EQ PUSH2 0x62C JUMPI PUSH2 0x1AE JUMP JUMPDEST DUP1 PUSH4 0xC4F2E0EC EQ PUSH2 0x52A JUMPI DUP1 PUSH4 0xCC9BA583 EQ PUSH2 0x554 JUMPI DUP1 PUSH4 0xD0E30DB0 EQ PUSH2 0x57E JUMPI PUSH2 0x1AE JUMP JUMPDEST DUP1 PUSH4 0xA9059CBB GT PUSH2 0xC5 JUMPI DUP1 PUSH4 0xA9059CBB EQ PUSH2 0x470 JUMPI DUP1 PUSH4 0xAB0BCC41 EQ PUSH2 0x4AC JUMPI DUP1 PUSH4 0xAC369BB5 EQ PUSH2 0x4D6 JUMPI DUP1 PUSH4 0xC10B9358 EQ PUSH2 0x500 JUMPI PUSH2 0x1AE JUMP JUMPDEST DUP1 PUSH4 0x6D58C88F EQ PUSH2 0x3E2 JUMPI DUP1 PUSH4 0x70A08231 EQ PUSH2 0x40A JUMPI DUP1 PUSH4 0x95D89B41 EQ PUSH2 0x446 JUMPI PUSH2 0x1AE JUMP JUMPDEST DUP1 PUSH4 0x27E235E3 GT PUSH2 0x158 JUMPI DUP1 PUSH4 0x44DF8E70 GT PUSH2 0x132 JUMPI DUP1 PUSH4 0x44DF8E70 EQ PUSH2 0x34E JUMPI DUP1 PUSH4 0x44F38756 EQ PUSH2 0x378 JUMPI DUP1 PUSH4 0x4D853EE5 EQ PUSH2 0x3A2 JUMPI DUP1 PUSH4 0x5ED7CA5B EQ PUSH2 0x3CC JUMPI PUSH2 0x1AE JUMP JUMPDEST DUP1 PUSH4 0x27E235E3 EQ PUSH2 0x2BE JUMPI DUP1 PUSH4 0x313CE567 EQ PUSH2 0x2FA JUMPI DUP1 PUSH4 0x378AA701 EQ PUSH2 0x324 JUMPI PUSH2 0x1AE JUMP JUMPDEST DUP1 PUSH4 0x46383A2 EQ PUSH2 0x1B2 JUMPI DUP1 PUSH4 0x46F7DA2 EQ PUSH2 0x1DC JUMPI DUP1 PUSH4 0x6FDDE03 EQ PUSH2 0x1F2 JUMPI DUP1 PUSH4 0x95EA7B3 EQ PUSH2 0x21C JUMPI DUP1 PUSH4 0x18160DDD EQ PUSH2 0x258 JUMPI DUP1 PUSH4 0x23B872DD EQ PUSH2 0x282 JUMPI PUSH2 0x1AE JUMP JUMPDEST CALLDATASIZE PUSH2 0x1AE JUMPI PUSH2 0x1AC PUSH2 0x656 JUMP JUMPDEST STOP JUMPDEST PUSH0 DUP1 REVERT JUMPDEST CALLVALUE DUP1 ISZERO PUSH2 0x1BD JUMPI PUSH0 DUP1 REVERT JUMPDEST POP PUSH2 0x1C6 PUSH2 0x92E JUMP JUMPDEST PUSH1 0x40 MLOAD PUSH2 0x1D3 SWAP2 SWAP1 PUSH2 0x166C JUMP JUMPDEST PUSH1 0x40 MLOAD DUP1 SWAP2 SUB SWAP1 RETURN JUMPDEST CALLVALUE DUP1 ISZERO PUSH2 0x1E7 JUMPI PUSH0 DUP1 REVERT JUMPDEST POP PUSH2 0x1F0 PUSH2 0x934 JUMP JUMPDEST STOP JUMPDEST CALLVALUE DUP1 ISZERO PUSH2 0x1FD JUMPI PUSH0 DUP1 REVERT JUMPDEST POP PUSH2 0x206 PUSH2 0x9EF JUMP JUMPDEST PUSH1 0x40 MLOAD PUSH2 0x213 SWAP2 SWAP1 PUSH2 0x170F JUMP JUMPDEST PUSH1 0x40 MLOAD DUP1 SWAP2 SUB SWAP1 RETURN JUMPDEST CALLVALUE DUP1 ISZERO PUSH2 0x227 JUMPI PUSH0 DUP1 REVERT JUMPDEST POP PUSH2 0x242 PUSH1 0x4 DUP1 CALLDATASIZE SUB DUP2 ADD SWAP1 PUSH2 0x23D SWAP2 SWAP1 PUSH2 0x17B7 JUMP JUMPDEST PUSH2 0xA7A JUMP JUMPDEST PUSH1 0x40 MLOAD PUSH2 0x24F SWAP2 SWAP1 PUSH2 0x180F JUMP JUMPDEST PUSH1 0x40 MLOAD DUP1 SWAP2 SUB SWAP1 RETURN JUMPDEST CALLVALUE DUP1 ISZERO PUSH2 0x263 JUMPI PUSH0 DUP1 REVERT JUMPDEST POP PUSH2 0x26C PUSH2 0xC29 JUMP JUMPDEST PUSH1 0x40 MLOAD PUSH2 0x279 SWAP2 SWAP1 PUSH2 0x166C JUMP JUMPDEST PUSH1 0x40 MLOAD DUP1 SWAP2 SUB SWAP1 RETURN JUMPDEST CALLVALUE DUP1 ISZERO PUSH2 0x28D JUMPI PUSH0 DUP1 REVERT JUMPDEST POP PUSH2 0x2A8 PUSH1 0x4 DUP1 CALLDATASIZE SUB DUP2 ADD SWAP1 PUSH2 0x2A3 SWAP2 SWAP1 PUSH2 0x1828 JUMP JUMPDEST PUSH2 0xC2F JUMP JUMPDEST PUSH1 0x40 MLOAD PUSH2 0x2B5 SWAP2 SWAP1 PUSH2 0x180F JUMP JUMPDEST PUSH1 0x40 MLOAD DUP1 SWAP2 SUB SWAP1 RETURN JUMPDEST CALLVALUE DUP1 ISZERO PUSH2 0x2C9 JUMPI PUSH0 DUP1 REVERT JUMPDEST POP PUSH2 0x2E4 PUSH1 0x4 DUP1 CALLDATASIZE SUB DUP2 ADD SWAP1 PUSH2 0x2DF SWAP2 SWAP1 PUSH2 0x1878 JUMP JUMPDEST PUSH2 0xC8B JUMP JUMPDEST PUSH1 0x40 MLOAD PUSH2 0x2F1 SWAP2 SWAP1 PUSH2 0x166C JUMP JUMPDEST PUSH1 0x40 MLOAD DUP1 SWAP2 SUB SWAP1 RETURN JUMPDEST CALLVALUE DUP1 ISZERO PUSH2 0x305 JUMPI PUSH0 DUP1 REVERT JUMPDEST POP PUSH2 0x30E PUSH2 0xCA0 JUMP JUMPDEST PUSH1 0x40 MLOAD PUSH2 0x31B SWAP2 SWAP1 PUSH2 0x166C JUMP JUMPDEST PUSH1 0x40 MLOAD DUP1 SWAP2 SUB SWAP1 RETURN JUMPDEST CALLVALUE DUP1 ISZERO PUSH2 0x32F JUMPI PUSH0 DUP1 REVERT JUMPDEST POP PUSH2 0x338 PUSH2 0xCA6 JUMP JUMPDEST PUSH1 0x40 MLOAD PUSH2 0x345 SWAP2 SWAP1 PUSH2 0x1916 JUMP JUMPDEST PUSH1 0x40 MLOAD DUP1 SWAP2 SUB SWAP1 RETURN JUMPDEST CALLVALUE DUP1 ISZERO PUSH2 0x359 JUMPI PUSH0 DUP1 REVERT JUMPDEST POP PUSH2 0x362 PUSH2 0xD25 JUMP JUMPDEST PUSH1 0x40 MLOAD PUSH2 0x36F SWAP2 SWAP1 PUSH2 0x180F JUMP JUMPDEST PUSH1 0x40 MLOAD DUP1 SWAP2 SUB SWAP1 RETURN JUMPDEST CALLVALUE DUP1 ISZERO PUSH2 0x383 JUMPI PUSH0 DUP1 REVERT JUMPDEST POP PUSH2 0x38C PUSH2 0xE35 JUMP JUMPDEST PUSH1 0x40 MLOAD PUSH2 0x399 SWAP2 SWAP1 PUSH2 0x1916 JUMP JUMPDEST PUSH1 0x40 MLOAD DUP1 SWAP2 SUB SWAP1 RETURN JUMPDEST CALLVALUE DUP1 ISZERO PUSH2 0x3AD JUMPI PUSH0 DUP1 REVERT JUMPDEST POP PUSH2 0x3B6 PUSH2 0xE47 JUMP JUMPDEST PUSH1 0x40 MLOAD PUSH2 0x3C3 SWAP2 SWAP1 PUSH2 0x193E JUMP JUMPDEST PUSH1 0x40 MLOAD DUP1 SWAP2 SUB SWAP1 RETURN JUMPDEST CALLVALUE DUP1 ISZERO PUSH2 0x3D7 JUMPI PUSH0 DUP1 REVERT JUMPDEST POP PUSH2 0x3E0 PUSH2 0xE6C JUMP JUMPDEST STOP JUMPDEST CALLVALUE DUP1 ISZERO PUSH2 0x3ED JUMPI PUSH0 DUP1 REVERT JUMPDEST POP PUSH2 0x408 PUSH1 0x4 DUP1 CALLDATASIZE SUB DUP2 ADD SWAP1 PUSH2 0x403 SWAP2 SWAP1 PUSH2 0x1992 JUMP JUMPDEST PUSH2 0xF27 JUMP JUMPDEST STOP JUMPDEST CALLVALUE DUP1 ISZERO PUSH2 0x415 JUMPI PUSH0 DUP1 REVERT JUMPDEST POP PUSH2 0x430 PUSH1 0x4 DUP1 CALLDATASIZE SUB DUP2 ADD SWAP1 PUSH2 0x42B SWAP2 SWAP1 PUSH2 0x1878 JUMP JUMPDEST PUSH2 0xFF9 JUMP JUMPDEST PUSH1 0x40 MLOAD PUSH2 0x43D SWAP2 SWAP1 PUSH2 0x166C JUMP JUMPDEST PUSH1 0x40 MLOAD DUP1 SWAP2 SUB SWAP1 RETURN JUMPDEST CALLVALUE DUP1 ISZERO PUSH2 0x451 JUMPI PUSH0 DUP1 REVERT JUMPDEST POP PUSH2 0x45A PUSH2 0x103F JUMP JUMPDEST PUSH1 0x40 MLOAD PUSH2 0x467 SWAP2 SWAP1 PUSH2 0x170F JUMP JUMPDEST PUSH1 0x40 MLOAD DUP1 SWAP2 SUB SWAP1 RETURN JUMPDEST CALLVALUE DUP1 ISZERO PUSH2 0x47B JUMPI PUSH0 DUP1 REVERT JUMPDEST POP PUSH2 0x496 PUSH1 0x4 DUP1 CALLDATASIZE SUB DUP2 ADD SWAP1 PUSH2 0x491 SWAP2 SWAP1 PUSH2 0x17B7 JUMP JUMPDEST PUSH2 0x10CB JUMP JUMPDEST PUSH1 0x40 MLOAD PUSH2 0x4A3 SWAP2 SWAP1 PUSH2 0x180F JUMP JUMPDEST PUSH1 0x40 MLOAD DUP1 SWAP2 SUB SWAP1 RETURN JUMPDEST CALLVALUE DUP1 ISZERO PUSH2 0x4B7 JUMPI PUSH0 DUP1 REVERT JUMPDEST POP PUSH2 0x4C0 PUSH2 0x1125 JUMP JUMPDEST PUSH1 0x40 MLOAD PUSH2 0x4CD SWAP2 SWAP1 PUSH2 0x166C JUMP JUMPDEST PUSH1 0x40 MLOAD DUP1 SWAP2 SUB SWAP1 RETURN JUMPDEST CALLVALUE DUP1 ISZERO PUSH2 0x4E1 JUMPI PUSH0 DUP1 REVERT JUMPDEST POP PUSH2 0x4EA PUSH2 0x112B JUMP JUMPDEST PUSH1 0x40 MLOAD PUSH2 0x4F7 SWAP2 SWAP1 PUSH2 0x166C JUMP JUMPDEST PUSH1 0x40 MLOAD DUP1 SWAP2 SUB SWAP1 RETURN JUMPDEST CALLVALUE DUP1 ISZERO PUSH2 0x50B JUMPI PUSH0 DUP1 REVERT JUMPDEST POP PUSH2 0x514 PUSH2 0x1131 JUMP JUMPDEST PUSH1 0x40 MLOAD PUSH2 0x521 SWAP2 SWAP1 PUSH2 0x166C JUMP JUMPDEST PUSH1 0x40 MLOAD DUP1 SWAP2 SUB SWAP1 RETURN JUMPDEST CALLVALUE DUP1 ISZERO PUSH2 0x535 JUMPI PUSH0 DUP1 REVERT JUMPDEST POP PUSH2 0x53E PUSH2 0x1137 JUMP JUMPDEST PUSH1 0x40 MLOAD PUSH2 0x54B SWAP2 SWAP1 PUSH2 0x166C JUMP JUMPDEST PUSH1 0x40 MLOAD DUP1 SWAP2 SUB SWAP1 RETURN JUMPDEST CALLVALUE DUP1 ISZERO PUSH2 0x55F JUMPI PUSH0 DUP1 REVERT JUMPDEST POP PUSH2 0x568 PUSH2 0x113D JUMP JUMPDEST PUSH1 0x40 MLOAD PUSH2 0x575 SWAP2 SWAP1 PUSH2 0x166C JUMP JUMPDEST PUSH1 0x40 MLOAD DUP1 SWAP2 SUB SWAP1 RETURN JUMPDEST CALLVALUE DUP1 ISZERO PUSH2 0x589 JUMPI PUSH0 DUP1 REVERT JUMPDEST POP PUSH2 0x592 PUSH2 0x1143 JUMP JUMPDEST PUSH1 0x40 MLOAD PUSH2 0x59F SWAP2 SWAP1 PUSH2 0x19CC JUMP JUMPDEST PUSH1 0x40 MLOAD DUP1 SWAP2 SUB SWAP1 RETURN JUMPDEST CALLVALUE DUP1 ISZERO PUSH2 0x5B3 JUMPI PUSH0 DUP1 REVERT JUMPDEST POP PUSH2 0x5CE PUSH1 0x4 DUP1 CALLDATASIZE SUB DUP2 ADD SWAP1 PUSH2 0x5C9 SWAP2 SWAP1 PUSH2 0x19E5 JUMP JUMPDEST PUSH2 0x1168 JUMP JUMPDEST PUSH1 0x40 MLOAD PUSH2 0x5DB SWAP2 SWAP1 PUSH2 0x166C JUMP JUMPDEST PUSH1 0x40 MLOAD DUP1 SWAP2 SUB SWAP1 RETURN JUMPDEST PUSH2 0x5EC PUSH2 0x656 JUMP JUMPDEST PUSH1 0x40 MLOAD PUSH2 0x5F9 SWAP2 SWAP1 PUSH2 0x180F JUMP JUMPDEST PUSH1 0x40 MLOAD DUP1 SWAP2 SUB SWAP1 RETURN JUMPDEST CALLVALUE DUP1 ISZERO PUSH2 0x60D JUMPI PUSH0 DUP1 REVERT JUMPDEST POP PUSH2 0x616 PUSH2 0x11EA JUMP JUMPDEST PUSH1 0x40 MLOAD PUSH2 0x623 SWAP2 SWAP1 PUSH2 0x193E JUMP JUMPDEST PUSH1 0x40 MLOAD DUP1 SWAP2 SUB SWAP1 RETURN JUMPDEST CALLVALUE DUP1 ISZERO PUSH2 0x637 JUMPI PUSH0 DUP1 REVERT JUMPDEST POP PUSH2 0x640 PUSH2 0x120F JUMP JUMPDEST PUSH1 0x40 MLOAD PUSH2 0x64D SWAP2 SWAP1 PUSH2 0x166C JUMP JUMPDEST PUSH1 0x40 MLOAD DUP1 SWAP2 SUB SWAP1 RETURN JUMPDEST PUSH0 PUSH2 0x65F PUSH2 0xCA6 JUMP JUMPDEST PUSH1 0x11 PUSH0 PUSH2 0x100 EXP DUP2 SLOAD DUP2 PUSH1 0xFF MUL NOT AND SWAP1 DUP4 PUSH1 0x3 DUP2 GT ISZERO PUSH2 0x682 JUMPI PUSH2 0x681 PUSH2 0x18A3 JUMP JUMPDEST JUMPDEST MUL OR SWAP1 SSTORE POP PUSH1 0x1 PUSH1 0x3 DUP2 GT ISZERO PUSH2 0x69B JUMPI PUSH2 0x69A PUSH2 0x18A3 JUMP JUMPDEST JUMPDEST PUSH1 0x11 PUSH0 SWAP1 SLOAD SWAP1 PUSH2 0x100 EXP SWAP1 DIV PUSH1 0xFF AND PUSH1 0x3 DUP2 GT ISZERO PUSH2 0x6BC JUMPI PUSH2 0x6BB PUSH2 0x18A3 JUMP JUMPDEST JUMPDEST EQ PUSH2 0x6FC JUMPI PUSH1 0x40 MLOAD PUSH32 0x8C379A000000000000000000000000000000000000000000000000000000000 DUP2 MSTORE PUSH1 0x4 ADD PUSH2 0x6F3 SWAP1 PUSH2 0x1A6D JUMP JUMPDEST PUSH1 0x40 MLOAD DUP1 SWAP2 SUB SWAP1 REVERT JUMPDEST PUSH1 0x10 SLOAD CALLVALUE LT ISZERO DUP1 ISZERO PUSH2 0x710 JUMPI POP PUSH1 0xF SLOAD CALLVALUE GT ISZERO JUMPDEST PUSH2 0x74F JUMPI PUSH1 0x40 MLOAD PUSH32 0x8C379A000000000000000000000000000000000000000000000000000000000 DUP2 MSTORE PUSH1 0x4 ADD PUSH2 0x746 SWAP1 PUSH2 0x1AFB JUMP JUMPDEST PUSH1 0x40 MLOAD DUP1 SWAP2 SUB SWAP1 REVERT JUMPDEST CALLVALUE PUSH1 0xB PUSH0 DUP3 DUP3 SLOAD PUSH2 0x760 SWAP2 SWAP1 PUSH2 0x1B46 JUMP JUMPDEST SWAP3 POP POP DUP2 SWAP1 SSTORE POP PUSH1 0xA SLOAD PUSH1 0xB SLOAD GT ISZERO PUSH2 0x7AE JUMPI PUSH1 0x40 MLOAD PUSH32 0x8C379A000000000000000000000000000000000000000000000000000000000 DUP2 MSTORE PUSH1 0x4 ADD PUSH2 0x7A5 SWAP1 PUSH2 0x1BE9 JUMP JUMPDEST PUSH1 0x40 MLOAD DUP1 SWAP2 SUB SWAP1 REVERT JUMPDEST PUSH0 PUSH1 0x9 SLOAD CALLVALUE PUSH2 0x7BD SWAP2 SWAP1 PUSH2 0x1C34 JUMP JUMPDEST SWAP1 POP DUP1 PUSH1 0x5 PUSH0 CALLER PUSH20 0xFFFFFFFFFFFFFFFFFFFFFFFFFFFFFFFFFFFFFFFF AND PUSH20 0xFFFFFFFFFFFFFFFFFFFFFFFFFFFFFFFFFFFFFFFF AND DUP2 MSTORE PUSH1 0x20 ADD SWAP1 DUP2 MSTORE PUSH1 0x20 ADD PUSH0 KECCAK256 PUSH0 DUP3 DUP3 SLOAD PUSH2 0x80B SWAP2 SWAP1 PUSH2 0x1B46 JUMP JUMPDEST SWAP3 POP POP DUP2 SWAP1 SSTORE POP DUP1 PUSH1 0x5 PUSH0 PUSH1 0x4 PUSH0 SWAP1 SLOAD SWAP1 PUSH2 0x100 EXP SWAP1 DIV PUSH20 0xFFFFFFFFFFFFFFFFFFFFFFFFFFFFFFFFFFFFFFFF AND PUSH20 0xFFFFFFFFFFFFFFFFFFFFFFFFFFFFFFFFFFFFFFFF AND PUSH20 0xFFFFFFFFFFFFFFFFFFFFFFFFFFFFFFFFFFFFFFFF AND DUP2 MSTORE PUSH1 0x20 ADD SWAP1 DUP2 MSTORE PUSH1 0x20 ADD PUSH0 KECCAK256 PUSH0 DUP3 DUP3 SLOAD PUSH2 0x87F SWAP2 SWAP1 PUSH2 0x1C64 JUMP JUMPDEST SWAP3 POP POP DUP2 SWAP1 SSTORE POP PUSH1 0x8 PUSH0 SWAP1 SLOAD SWAP1 PUSH2 0x100 EXP SWAP1 DIV PUSH20 0xFFFFFFFFFFFFFFFFFFFFFFFFFFFFFFFFFFFFFFFF AND PUSH20 0xFFFFFFFFFFFFFFFFFFFFFFFFFFFFFFFFFFFFFFFF AND PUSH2 0x8FC CALLVALUE SWAP1 DUP2 ISZERO MUL SWAP1 PUSH1 0x40 MLOAD PUSH0 PUSH1 0x40 MLOAD DUP1 DUP4 SUB DUP2 DUP6 DUP9 DUP9 CALL SWAP4 POP POP POP POP ISZERO DUP1 ISZERO PUSH2 0x8EA JUMPI RETURNDATASIZE PUSH0 DUP1 RETURNDATACOPY RETURNDATASIZE PUSH0 REVERT JUMPDEST POP PUSH32 0x4AE4BD7655E0D350876A23CD90C4227B13DB560E34435C6A488150A9C844BF5F CALLER CALLVALUE DUP4 PUSH1 0x40 MLOAD PUSH2 0x91E SWAP4 SWAP3 SWAP2 SWAP1 PUSH2 0x1C97 JUMP JUMPDEST PUSH1 0x40 MLOAD DUP1 SWAP2 SUB SWAP1 LOG1 PUSH1 0x1 SWAP2 POP POP SWAP1 JUMP JUMPDEST PUSH1 0xF SLOAD DUP2 JUMP JUMPDEST PUSH1 0x7 PUSH0 SWAP1 SLOAD SWAP1 PUSH2 0x100 EXP SWAP1 DIV PUSH20 0xFFFFFFFFFFFFFFFFFFFFFFFFFFFFFFFFFFFFFFFF AND PUSH20 0xFFFFFFFFFFFFFFFFFFFFFFFFFFFFFFFFFFFFFFFF AND CALLER PUSH20 0xFFFFFFFFFFFFFFFFFFFFFFFFFFFFFFFFFFFFFFFF AND EQ PUSH2 0x9C3 JUMPI PUSH1 0x40 MLOAD PUSH32 0x8C379A000000000000000000000000000000000000000000000000000000000 DUP2 MSTORE PUSH1 0x4 ADD PUSH2 0x9BA SWAP1 PUSH2 0x1D16 JUMP JUMPDEST PUSH1 0x40 MLOAD DUP1 SWAP2 SUB SWAP1 REVERT JUMPDEST PUSH1 0x1 PUSH1 0x11 PUSH0 PUSH2 0x100 EXP DUP2 SLOAD DUP2 PUSH1 0xFF MUL NOT AND SWAP1 DUP4 PUSH1 0x3 DUP2 GT ISZERO PUSH2 0x9E8 JUMPI PUSH2 0x9E7 PUSH2 0x18A3 JUMP JUMPDEST JUMPDEST MUL OR SWAP1 SSTORE POP JUMP JUMPDEST PUSH0 DUP1 SLOAD PUSH2 0x9FB SWAP1 PUSH2 0x1D61 JUMP JUMPDEST DUP1 PUSH1 0x1F ADD PUSH1 0x20 DUP1 SWAP2 DIV MUL PUSH1 0x20 ADD PUSH1 0x40 MLOAD SWAP1 DUP2 ADD PUSH1 0x40 MSTORE DUP1 SWAP3 SWAP2 SWAP1 DUP2 DUP2 MSTORE PUSH1 0x20 ADD DUP3 DUP1 SLOAD PUSH2 0xA27 SWAP1 PUSH2 0x1D61 JUMP JUMPDEST DUP1 ISZERO PUSH2 0xA72 JUMPI DUP1 PUSH1 0x1F LT PUSH2 0xA49 JUMPI PUSH2 0x100 DUP1 DUP4 SLOAD DIV MUL DUP4 MSTORE SWAP2 PUSH1 0x20 ADD SWAP2 PUSH2 0xA72 JUMP JUMPDEST DUP3 ADD SWAP2 SWAP1 PUSH0 MSTORE PUSH1 0x20 PUSH0 KECCAK256 SWAP1 JUMPDEST DUP2 SLOAD DUP2 MSTORE SWAP1 PUSH1 0x1 ADD SWAP1 PUSH1 0x20 ADD DUP1 DUP4 GT PUSH2 0xA55 JUMPI DUP3 SWAP1 SUB PUSH1 0x1F AND DUP3 ADD SWAP2 JUMPDEST POP POP POP POP POP DUP2 JUMP JUMPDEST PUSH0 DUP1 DUP3 GT PUSH2 0xABD JUMPI PUSH1 0x40 MLOAD PUSH32 0x8C379A000000000000000000000000000000000000000000000000000000000 DUP2 MSTORE PUSH1 0x4 ADD PUSH2 0xAB4 SWAP1 PUSH2 0x1DDB JUMP JUMPDEST PUSH1 0x40 MLOAD DUP1 SWAP2 SUB SWAP1 REVERT JUMPDEST DUP2 PUSH1 0x5 PUSH0 CALLER PUSH20 0xFFFFFFFFFFFFFFFFFFFFFFFFFFFFFFFFFFFFFFFF AND PUSH20 0xFFFFFFFFFFFFFFFFFFFFFFFFFFFFFFFFFFFFFFFF AND DUP2 MSTORE PUSH1 0x20 ADD SWAP1 DUP2 MSTORE PUSH1 0x20 ADD PUSH0 KECCAK256 SLOAD LT ISZERO PUSH2 0xB3D JUMPI PUSH1 0x40 MLOAD PUSH32 0x8C379A000000000000000000000000000000000000000000000000000000000 DUP2 MSTORE PUSH1 0x4 ADD PUSH2 0xB34 SWAP1 PUSH2 0x1E43 JUMP JUMPDEST PUSH1 0x40 MLOAD DUP1 SWAP2 SUB SWAP1 REVERT JUMPDEST DUP2 PUSH1 0x6 PUSH0 CALLER PUSH20 0xFFFFFFFFFFFFFFFFFFFFFFFFFFFFFFFFFFFFFFFF AND PUSH20 0xFFFFFFFFFFFFFFFFFFFFFFFFFFFFFFFFFFFFFFFF AND DUP2 MSTORE PUSH1 0x20 ADD SWAP1 DUP2 MSTORE PUSH1 0x20 ADD PUSH0 KECCAK256 PUSH0 DUP6 PUSH20 0xFFFFFFFFFFFFFFFFFFFFFFFFFFFFFFFFFFFFFFFF AND PUSH20 0xFFFFFFFFFFFFFFFFFFFFFFFFFFFFFFFFFFFFFFFF AND DUP2 MSTORE PUSH1 0x20 ADD SWAP1 DUP2 MSTORE PUSH1 0x20 ADD PUSH0 KECCAK256 DUP2 SWAP1 SSTORE POP DUP3 PUSH20 0xFFFFFFFFFFFFFFFFFFFFFFFFFFFFFFFFFFFFFFFF AND CALLER PUSH20 0xFFFFFFFFFFFFFFFFFFFFFFFFFFFFFFFFFFFFFFFF AND PUSH32 0x8C5BE1E5EBEC7D5BD14F71427D1E84F3DD0314C0F7B2291E5B200AC8C7C3B925 DUP5 PUSH1 0x40 MLOAD PUSH2 0xC17 SWAP2 SWAP1 PUSH2 0x166C JUMP JUMPDEST PUSH1 0x40 MLOAD DUP1 SWAP2 SUB SWAP1 LOG3 PUSH1 0x1 SWAP1 POP SWAP3 SWAP2 POP POP JUMP JUMPDEST PUSH1 0x3 SLOAD DUP2 JUMP JUMPDEST PUSH0 PUSH1 0xE SLOAD TIMESTAMP GT PUSH2 0xC74 JUMPI PUSH1 0x40 MLOAD PUSH32 0x8C379A000000000000000000000000000000000000000000000000000000000 DUP2 MSTORE PUSH1 0x4 ADD PUSH2 0xC6B SWAP1 PUSH2 0x1EAB JUMP JUMPDEST PUSH1 0x40 MLOAD DUP1 SWAP2 SUB SWAP1 REVERT JUMPDEST PUSH2 0xC7F DUP5 DUP5 DUP5 PUSH2 0x1215 JUMP JUMPDEST POP PUSH1 0x1 SWAP1 POP SWAP4 SWAP3 POP POP POP JUMP JUMPDEST PUSH1 0x5 PUSH1 0x20 MSTORE DUP1 PUSH0 MSTORE PUSH1 0x40 PUSH0 KECCAK256 PUSH0 SWAP2 POP SWAP1 POP SLOAD DUP2 JUMP JUMPDEST PUSH1 0x2 SLOAD DUP2 JUMP JUMPDEST PUSH0 PUSH1 0x3 DUP1 DUP2 GT ISZERO PUSH2 0xCBA JUMPI PUSH2 0xCB9 PUSH2 0x18A3 JUMP JUMPDEST JUMPDEST PUSH1 0x11 PUSH0 SWAP1 SLOAD SWAP1 PUSH2 0x100 EXP SWAP1 DIV PUSH1 0xFF AND PUSH1 0x3 DUP2 GT ISZERO PUSH2 0xCDB JUMPI PUSH2 0xCDA PUSH2 0x18A3 JUMP JUMPDEST JUMPDEST SUB PUSH2 0xCE9 JUMPI PUSH1 0x3 SWAP1 POP PUSH2 0xD22 JUMP JUMPDEST PUSH1 0xC SLOAD TIMESTAMP LT ISZERO PUSH2 0xCFB JUMPI PUSH0 SWAP1 POP PUSH2 0xD22 JUMP JUMPDEST PUSH1 0xC SLOAD TIMESTAMP LT ISZERO DUP1 ISZERO PUSH2 0xD0F JUMPI POP PUSH1 0xD SLOAD TIMESTAMP GT ISZERO JUMPDEST ISZERO PUSH2 0xD1D JUMPI PUSH1 0x1 SWAP1 POP PUSH2 0xD22 JUMP JUMPDEST PUSH1 0x2 SWAP1 POP JUMPDEST SWAP1 JUMP JUMPDEST PUSH0 PUSH2 0xD2E PUSH2 0xCA6 JUMP JUMPDEST PUSH1 0x11 PUSH0 PUSH2 0x100 EXP DUP2 SLOAD DUP2 PUSH1 0xFF MUL NOT AND SWAP1 DUP4 PUSH1 0x3 DUP2 GT ISZERO PUSH2 0xD51 JUMPI PUSH2 0xD50 PUSH2 0x18A3 JUMP JUMPDEST JUMPDEST MUL OR SWAP1 SSTORE POP PUSH1 0x2 PUSH1 0x3 DUP2 GT ISZERO PUSH2 0xD6A JUMPI PUSH2 0xD69 PUSH2 0x18A3 JUMP JUMPDEST JUMPDEST PUSH1 0x11 PUSH0 SWAP1 SLOAD SWAP1 PUSH2 0x100 EXP SWAP1 DIV PUSH1 0xFF AND PUSH1 0x3 DUP2 GT ISZERO PUSH2 0xD8B JUMPI PUSH2 0xD8A PUSH2 0x18A3 JUMP JUMPDEST JUMPDEST EQ PUSH2 0xDCB JUMPI PUSH1 0x40 MLOAD PUSH32 0x8C379A000000000000000000000000000000000000000000000000000000000 DUP2 MSTORE PUSH1 0x4 ADD PUSH2 0xDC2 SWAP1 PUSH2 0x1F39 JUMP JUMPDEST PUSH1 0x40 MLOAD DUP1 SWAP2 SUB SWAP1 REVERT JUMPDEST PUSH0 PUSH1 0x5 PUSH0 PUSH1 0x4 PUSH0 SWAP1 SLOAD SWAP1 PUSH2 0x100 EXP SWAP1 DIV PUSH20 0xFFFFFFFFFFFFFFFFFFFFFFFFFFFFFFFFFFFFFFFF AND PUSH20 0xFFFFFFFFFFFFFFFFFFFFFFFFFFFFFFFFFFFFFFFF AND PUSH20 0xFFFFFFFFFFFFFFFFFFFFFFFFFFFFFFFFFFFFFFFF AND DUP2 MSTORE PUSH1 0x20 ADD SWAP1 DUP2 MSTORE PUSH1 0x20 ADD PUSH0 KECCAK256 DUP2 SWAP1 SSTORE POP PUSH1 0x1 SWAP1 POP SWAP1 JUMP JUMPDEST PUSH1 0x11 PUSH0 SWAP1 SLOAD SWAP1 PUSH2 0x100 EXP SWAP1 DIV PUSH1 0xFF AND DUP2 JUMP JUMPDEST PUSH1 0x4 PUSH0 SWAP1 SLOAD SWAP1 PUSH2 0x100 EXP SWAP1 DIV PUSH20 0xFFFFFFFFFFFFFFFFFFFFFFFFFFFFFFFFFFFFFFFF AND DUP2 JUMP JUMPDEST PUSH1 0x7 PUSH0 SWAP1 SLOAD SWAP1 PUSH2 0x100 EXP SWAP1 DIV PUSH20 0xFFFFFFFFFFFFFFFFFFFFFFFFFFFFFFFFFFFFFFFF AND PUSH20 0xFFFFFFFFFFFFFFFFFFFFFFFFFFFFFFFFFFFFFFFF AND CALLER PUSH20 0xFFFFFFFFFFFFFFFFFFFFFFFFFFFFFFFFFFFFFFFF AND EQ PUSH2 0xEFB JUMPI PUSH1 0x40 MLOAD PUSH32 0x8C379A000000000000000000000000000000000000000000000000000000000 DUP2 MSTORE PUSH1 0x4 ADD PUSH2 0xEF2 SWAP1 PUSH2 0x1D16 JUMP JUMPDEST PUSH1 0x40 MLOAD DUP1 SWAP2 SUB SWAP1 REVERT JUMPDEST PUSH1 0x3 PUSH1 0x11 PUSH0 PUSH2 0x100 EXP DUP2 SLOAD DUP2 PUSH1 0xFF MUL NOT AND SWAP1 DUP4 PUSH1 0x3 DUP2 GT ISZERO PUSH2 0xF20 JUMPI PUSH2 0xF1F PUSH2 0x18A3 JUMP JUMPDEST JUMPDEST MUL OR SWAP1 SSTORE POP JUMP JUMPDEST PUSH1 0x7 PUSH0 SWAP1 SLOAD SWAP1 PUSH2 0x100 EXP SWAP1 DIV PUSH20 0xFFFFFFFFFFFFFFFFFFFFFFFFFFFFFFFFFFFFFFFF AND PUSH20 0xFFFFFFFFFFFFFFFFFFFFFFFFFFFFFFFFFFFFFFFF AND CALLER PUSH20 0xFFFFFFFFFFFFFFFFFFFFFFFFFFFFFFFFFFFFFFFF AND EQ PUSH2 0xFB6 JUMPI PUSH1 0x40 MLOAD PUSH32 0x8C379A000000000000000000000000000000000000000000000000000000000 DUP2 MSTORE PUSH1 0x4 ADD PUSH2 0xFAD SWAP1 PUSH2 0x1D16 JUMP JUMPDEST PUSH1 0x40 MLOAD DUP1 SWAP2 SUB SWAP1 REVERT JUMPDEST DUP1 PUSH1 0x8 PUSH0 PUSH2 0x100 EXP DUP2 SLOAD DUP2 PUSH20 0xFFFFFFFFFFFFFFFFFFFFFFFFFFFFFFFFFFFFFFFF MUL NOT AND SWAP1 DUP4 PUSH20 0xFFFFFFFFFFFFFFFFFFFFFFFFFFFFFFFFFFFFFFFF AND MUL OR SWAP1 SSTORE POP POP JUMP JUMPDEST PUSH0 PUSH1 0x5 PUSH0 DUP4 PUSH20 0xFFFFFFFFFFFFFFFFFFFFFFFFFFFFFFFFFFFFFFFF AND PUSH20 0xFFFFFFFFFFFFFFFFFFFFFFFFFFFFFFFFFFFFFFFF AND DUP2 MSTORE PUSH1 0x20 ADD SWAP1 DUP2 MSTORE PUSH1 0x20 ADD PUSH0 KECCAK256 SLOAD SWAP1 POP SWAP2 SWAP1 POP JUMP JUMPDEST PUSH1 0x1 DUP1 SLOAD PUSH2 0x104C SWAP1 PUSH2 0x1D61 JUMP JUMPDEST DUP1 PUSH1 0x1F ADD PUSH1 0x20 DUP1 SWAP2 DIV MUL PUSH1 0x20 ADD PUSH1 0x40 MLOAD SWAP1 DUP2 ADD PUSH1 0x40 MSTORE DUP1 SWAP3 SWAP2 SWAP1 DUP2 DUP2 MSTORE PUSH1 0x20 ADD DUP3 DUP1 SLOAD PUSH2 0x1078 SWAP1 PUSH2 0x1D61 JUMP JUMPDEST DUP1 ISZERO PUSH2 0x10C3 JUMPI DUP1 PUSH1 0x1F LT PUSH2 0x109A JUMPI PUSH2 0x100 DUP1 DUP4 SLOAD DIV MUL DUP4 MSTORE SWAP2 PUSH1 0x20 ADD SWAP2 PUSH2 0x10C3 JUMP JUMPDEST DUP3 ADD SWAP2 SWAP1 PUSH0 MSTORE PUSH1 0x20 PUSH0 KECCAK256 SWAP1 JUMPDEST DUP2 SLOAD DUP2 MSTORE SWAP1 PUSH1 0x1 ADD SWAP1 PUSH1 0x20 ADD DUP1 DUP4 GT PUSH2 0x10A6 JUMPI DUP3 SWAP1 SUB PUSH1 0x1F AND DUP3 ADD SWAP2 JUMPDEST POP POP POP POP POP DUP2 JUMP JUMPDEST PUSH0 PUSH1 0xE SLOAD TIMESTAMP GT PUSH2 0x1110 JUMPI PUSH1 0x40 MLOAD PUSH32 0x8C379A000000000000000000000000000000000000000000000000000000000 DUP2 MSTORE PUSH1 0x4 ADD PUSH2 0x1107 SWAP1 PUSH2 0x1EAB JUMP JUMPDEST PUSH1 0x40 MLOAD DUP1 SWAP2 SUB SWAP1 REVERT JUMPDEST PUSH2 0x111A DUP4 DUP4 PUSH2 0x14BE JUMP JUMPDEST POP PUSH1 0x1 SWAP1 POP SWAP3 SWAP2 POP POP JUMP JUMPDEST PUSH1 0xC SLOAD DUP2 JUMP JUMPDEST PUSH1 0xB SLOAD DUP2 JUMP JUMPDEST PUSH1 0xD SLOAD DUP2 JUMP JUMPDEST PUSH1 0x10 SLOAD DUP2 JUMP JUMPDEST PUSH1 0xE SLOAD DUP2 JUMP JUMPDEST PUSH1 0x8 PUSH0 SWAP1 SLOAD SWAP1 PUSH2 0x100 EXP SWAP1 DIV PUSH20 0xFFFFFFFFFFFFFFFFFFFFFFFFFFFFFFFFFFFFFFFF AND DUP2 JUMP JUMPDEST PUSH0 PUSH1 0x6 PUSH0 DUP5 PUSH20 0xFFFFFFFFFFFFFFFFFFFFFFFFFFFFFFFFFFFFFFFF AND PUSH20 0xFFFFFFFFFFFFFFFFFFFFFFFFFFFFFFFFFFFFFFFF AND DUP2 MSTORE PUSH1 0x20 ADD SWAP1 DUP2 MSTORE PUSH1 0x20 ADD PUSH0 KECCAK256 PUSH0 DUP4 PUSH20 0xFFFFFFFFFFFFFFFFFFFFFFFFFFFFFFFFFFFFFFFF AND PUSH20 0xFFFFFFFFFFFFFFFFFFFFFFFFFFFFFFFFFFFFFFFF AND DUP2 MSTORE PUSH1 0x20 ADD SWAP1 DUP2 MSTORE PUSH1 0x20 ADD PUSH0 KECCAK256 SLOAD SWAP1 POP SWAP3 SWAP2 POP POP JUMP JUMPDEST PUSH1 0x7 PUSH0 SWAP1 SLOAD SWAP1 PUSH2 0x100 EXP SWAP1 DIV PUSH20 0xFFFFFFFFFFFFFFFFFFFFFFFFFFFFFFFFFFFFFFFF AND DUP2 JUMP JUMPDEST PUSH1 0xA SLOAD DUP2 JUMP JUMPDEST PUSH0 DUP2 PUSH1 0x6 PUSH0 DUP7 PUSH20 0xFFFFFFFFFFFFFFFFFFFFFFFFFFFFFFFFFFFFFFFF AND PUSH20 0xFFFFFFFFFFFFFFFFFFFFFFFFFFFFFFFFFFFFFFFF AND DUP2 MSTORE PUSH1 0x20 ADD SWAP1 DUP2 MSTORE PUSH1 0x20 ADD PUSH0 KECCAK256 PUSH0 CALLER PUSH20 0xFFFFFFFFFFFFFFFFFFFFFFFFFFFFFFFFFFFFFFFF AND PUSH20 0xFFFFFFFFFFFFFFFFFFFFFFFFFFFFFFFFFFFFFFFF AND DUP2 MSTORE PUSH1 0x20 ADD SWAP1 DUP2 MSTORE PUSH1 0x20 ADD PUSH0 KECCAK256 SLOAD LT ISZERO PUSH2 0x12D1 JUMPI PUSH1 0x40 MLOAD PUSH32 0x8C379A000000000000000000000000000000000000000000000000000000000 DUP2 MSTORE PUSH1 0x4 ADD PUSH2 0x12C8 SWAP1 PUSH2 0x1E43 JUMP JUMPDEST PUSH1 0x40 MLOAD DUP1 SWAP2 SUB SWAP1 REVERT JUMPDEST DUP2 PUSH1 0x5 PUSH0 DUP7 PUSH20 0xFFFFFFFFFFFFFFFFFFFFFFFFFFFFFFFFFFFFFFFF AND PUSH20 0xFFFFFFFFFFFFFFFFFFFFFFFFFFFFFFFFFFFFFFFF AND DUP2 MSTORE PUSH1 0x20 ADD SWAP1 DUP2 MSTORE PUSH1 0x20 ADD PUSH0 KECCAK256 SLOAD LT ISZERO PUSH2 0x131A JUMPI PUSH0 DUP1 REVERT JUMPDEST DUP2 PUSH1 0x5 PUSH0 DUP7 PUSH20 0xFFFFFFFFFFFFFFFFFFFFFFFFFFFFFFFFFFFFFFFF AND PUSH20 0xFFFFFFFFFFFFFFFFFFFFFFFFFFFFFFFFFFFFFFFF AND DUP2 MSTORE PUSH1 0x20 ADD SWAP1 DUP2 MSTORE PUSH1 0x20 ADD PUSH0 KECCAK256 PUSH0 DUP3 DUP3 SLOAD PUSH2 0x1366 SWAP2 SWAP1 PUSH2 0x1C64 JUMP JUMPDEST SWAP3 POP POP DUP2 SWAP1 SSTORE POP DUP2 PUSH1 0x6 PUSH0 DUP7 PUSH20 0xFFFFFFFFFFFFFFFFFFFFFFFFFFFFFFFFFFFFFFFF AND PUSH20 0xFFFFFFFFFFFFFFFFFFFFFFFFFFFFFFFFFFFFFFFF AND DUP2 MSTORE PUSH1 0x20 ADD SWAP1 DUP2 MSTORE PUSH1 0x20 ADD PUSH0 KECCAK256 PUSH0 CALLER PUSH20 0xFFFFFFFFFFFFFFFFFFFFFFFFFFFFFFFFFFFFFFFF AND PUSH20 0xFFFFFFFFFFFFFFFFFFFFFFFFFFFFFFFFFFFFFFFF AND DUP2 MSTORE PUSH1 0x20 ADD SWAP1 DUP2 MSTORE PUSH1 0x20 ADD PUSH0 KECCAK256 PUSH0 DUP3 DUP3 SLOAD PUSH2 0x13F4 SWAP2 SWAP1 PUSH2 0x1C64 JUMP JUMPDEST SWAP3 POP POP DUP2 SWAP1 SSTORE POP DUP2 PUSH1 0x5 PUSH0 DUP6 PUSH20 0xFFFFFFFFFFFFFFFFFFFFFFFFFFFFFFFFFFFFFFFF AND PUSH20 0xFFFFFFFFFFFFFFFFFFFFFFFFFFFFFFFFFFFFFFFF AND DUP2 MSTORE PUSH1 0x20 ADD SWAP1 DUP2 MSTORE PUSH1 0x20 ADD PUSH0 KECCAK256 PUSH0 DUP3 DUP3 SLOAD PUSH2 0x1447 SWAP2 SWAP1 PUSH2 0x1B46 JUMP JUMPDEST SWAP3 POP POP DUP2 SWAP1 SSTORE POP DUP3 PUSH20 0xFFFFFFFFFFFFFFFFFFFFFFFFFFFFFFFFFFFFFFFF AND DUP5 PUSH20 0xFFFFFFFFFFFFFFFFFFFFFFFFFFFFFFFFFFFFFFFF AND PUSH32 0xDDF252AD1BE2C89B69C2B068FC378DAA952BA7F163C4A11628F55A4DF523B3EF DUP5 PUSH1 0x40 MLOAD PUSH2 0x14AB SWAP2 SWAP1 PUSH2 0x166C JUMP JUMPDEST PUSH1 0x40 MLOAD DUP1 SWAP2 SUB SWAP1 LOG3 PUSH1 0x1 SWAP1 POP SWAP4 SWAP3 POP POP POP JUMP JUMPDEST PUSH0 DUP2 PUSH1 0x5 PUSH0 CALLER PUSH20 0xFFFFFFFFFFFFFFFFFFFFFFFFFFFFFFFFFFFFFFFF AND PUSH20 0xFFFFFFFFFFFFFFFFFFFFFFFFFFFFFFFFFFFFFFFF AND DUP2 MSTORE PUSH1 0x20 ADD SWAP1 DUP2 MSTORE PUSH1 0x20 ADD PUSH0 KECCAK256 SLOAD LT ISZERO PUSH2 0x153F JUMPI PUSH1 0x40 MLOAD PUSH32 0x8C379A000000000000000000000000000000000000000000000000000000000 DUP2 MSTORE PUSH1 0x4 ADD PUSH2 0x1536 SWAP1 PUSH2 0x1E43 JUMP JUMPDEST PUSH1 0x40 MLOAD DUP1 SWAP2 SUB SWAP1 REVERT JUMPDEST DUP2 PUSH1 0x5 PUSH0 DUP6 PUSH20 0xFFFFFFFFFFFFFFFFFFFFFFFFFFFFFFFFFFFFFFFF AND PUSH20 0xFFFFFFFFFFFFFFFFFFFFFFFFFFFFFFFFFFFFFFFF AND DUP2 MSTORE PUSH1 0x20 ADD SWAP1 DUP2 MSTORE PUSH1 0x20 ADD PUSH0 KECCAK256 PUSH0 DUP3 DUP3 SLOAD PUSH2 0x158B SWAP2 SWAP1 PUSH2 0x1B46 JUMP JUMPDEST SWAP3 POP POP DUP2 SWAP1 SSTORE POP DUP2 PUSH1 0x5 PUSH0 CALLER PUSH20 0xFFFFFFFFFFFFFFFFFFFFFFFFFFFFFFFFFFFFFFFF AND PUSH20 0xFFFFFFFFFFFFFFFFFFFFFFFFFFFFFFFFFFFFFFFF AND DUP2 MSTORE PUSH1 0x20 ADD SWAP1 DUP2 MSTORE PUSH1 0x20 ADD PUSH0 KECCAK256 PUSH0 DUP3 DUP3 SLOAD PUSH2 0x15DE SWAP2 SWAP1 PUSH2 0x1C64 JUMP JUMPDEST SWAP3 POP POP DUP2 SWAP1 SSTORE POP DUP3 PUSH20 0xFFFFFFFFFFFFFFFFFFFFFFFFFFFFFFFFFFFFFFFF AND CALLER PUSH20 0xFFFFFFFFFFFFFFFFFFFFFFFFFFFFFFFFFFFFFFFF AND PUSH32 0xDDF252AD1BE2C89B69C2B068FC378DAA952BA7F163C4A11628F55A4DF523B3EF DUP5 PUSH1 0x40 MLOAD PUSH2 0x1642 SWAP2 SWAP1 PUSH2 0x166C JUMP JUMPDEST PUSH1 0x40 MLOAD DUP1 SWAP2 SUB SWAP1 LOG3 PUSH1 0x1 SWAP1 POP SWAP3 SWAP2 POP POP JUMP JUMPDEST PUSH0 DUP2 SWAP1 POP SWAP2 SWAP1 POP JUMP JUMPDEST PUSH2 0x1666 DUP2 PUSH2 0x1654 JUMP JUMPDEST DUP3 MSTORE POP POP JUMP JUMPDEST PUSH0 PUSH1 0x20 DUP3 ADD SWAP1 POP PUSH2 0x167F PUSH0 DUP4 ADD DUP5 PUSH2 0x165D JUMP JUMPDEST SWAP3 SWAP2 POP POP JUMP JUMPDEST PUSH0 DUP2 MLOAD SWAP1 POP SWAP2 SWAP1 POP JUMP JUMPDEST PUSH0 DUP3 DUP3 MSTORE PUSH1 0x20 DUP3 ADD SWAP1 POP SWAP3 SWAP2 POP POP JUMP JUMPDEST PUSH0 JUMPDEST DUP4 DUP2 LT ISZERO PUSH2 0x16BC JUMPI DUP1 DUP3 ADD MLOAD DUP2 DUP5 ADD MSTORE PUSH1 0x20 DUP2 ADD SWAP1 POP PUSH2 0x16A1 JUMP JUMPDEST PUSH0 DUP5 DUP5 ADD MSTORE POP POP POP POP JUMP JUMPDEST PUSH0 PUSH1 0x1F NOT PUSH1 0x1F DUP4 ADD AND SWAP1 POP SWAP2 SWAP1 POP JUMP JUMPDEST PUSH0 PUSH2 0x16E1 DUP3 PUSH2 0x1685 JUMP JUMPDEST PUSH2 0x16EB DUP2 DUP6 PUSH2 0x168F JUMP JUMPDEST SWAP4 POP PUSH2 0x16FB DUP2 DUP6 PUSH1 0x20 DUP7 ADD PUSH2 0x169F JUMP JUMPDEST PUSH2 0x1704 DUP2 PUSH2 0x16C7 JUMP JUMPDEST DUP5 ADD SWAP2 POP POP SWAP3 SWAP2 POP POP JUMP JUMPDEST PUSH0 PUSH1 0x20 DUP3 ADD SWAP1 POP DUP2 DUP2 SUB PUSH0 DUP4 ADD MSTORE PUSH2 0x1727 DUP2 DUP5 PUSH2 0x16D7 JUMP JUMPDEST SWAP1 POP SWAP3 SWAP2 POP POP JUMP JUMPDEST PUSH0 DUP1 REVERT JUMPDEST PUSH0 PUSH20 0xFFFFFFFFFFFFFFFFFFFFFFFFFFFFFFFFFFFFFFFF DUP3 AND SWAP1 POP SWAP2 SWAP1 POP JUMP JUMPDEST PUSH0 PUSH2 0x175C DUP3 PUSH2 0x1733 JUMP JUMPDEST SWAP1 POP SWAP2 SWAP1 POP JUMP JUMPDEST PUSH2 0x176C DUP2 PUSH2 0x1752 JUMP JUMPDEST DUP2 EQ PUSH2 0x1776 JUMPI PUSH0 DUP1 REVERT JUMPDEST POP JUMP JUMPDEST PUSH0 DUP2 CALLDATALOAD SWAP1 POP PUSH2 0x1787 DUP2 PUSH2 0x1763 JUMP JUMPDEST SWAP3 SWAP2 POP POP JUMP JUMPDEST PUSH2 0x1796 DUP2 PUSH2 0x1654 JUMP JUMPDEST DUP2 EQ PUSH2 0x17A0 JUMPI PUSH0 DUP1 REVERT JUMPDEST POP JUMP JUMPDEST PUSH0 DUP2 CALLDATALOAD SWAP1 POP PUSH2 0x17B1 DUP2 PUSH2 0x178D JUMP JUMPDEST SWAP3 SWAP2 POP POP JUMP JUMPDEST PUSH0 DUP1 PUSH1 0x40 DUP4 DUP6 SUB SLT ISZERO PUSH2 0x17CD JUMPI PUSH2 0x17CC PUSH2 0x172F JUMP JUMPDEST JUMPDEST PUSH0 PUSH2 0x17DA DUP6 DUP3 DUP7 ADD PUSH2 0x1779 JUMP JUMPDEST SWAP3 POP POP PUSH1 0x20 PUSH2 0x17EB DUP6 DUP3 DUP7 ADD PUSH2 0x17A3 JUMP JUMPDEST SWAP2 POP POP SWAP3 POP SWAP3 SWAP1 POP JUMP JUMPDEST PUSH0 DUP2 ISZERO ISZERO SWAP1 POP SWAP2 SWAP1 POP JUMP JUMPDEST PUSH2 0x1809 DUP2 PUSH2 0x17F5 JUMP JUMPDEST DUP3 MSTORE POP POP JUMP JUMPDEST PUSH0 PUSH1 0x20 DUP3 ADD SWAP1 POP PUSH2 0x1822 PUSH0 DUP4 ADD DUP5 PUSH2 0x1800 JUMP JUMPDEST SWAP3 SWAP2 POP POP JUMP JUMPDEST PUSH0 DUP1 PUSH0 PUSH1 0x60 DUP5 DUP7 SUB SLT ISZERO PUSH2 0x183F JUMPI PUSH2 0x183E PUSH2 0x172F JUMP JUMPDEST JUMPDEST PUSH0 PUSH2 0x184C DUP7 DUP3 DUP8 ADD PUSH2 0x1779 JUMP JUMPDEST SWAP4 POP POP PUSH1 0x20 PUSH2 0x185D DUP7 DUP3 DUP8 ADD PUSH2 0x1779 JUMP JUMPDEST SWAP3 POP POP PUSH1 0x40 PUSH2 0x186E DUP7 DUP3 DUP8 ADD PUSH2 0x17A3 JUMP JUMPDEST SWAP2 POP POP SWAP3 POP SWAP3 POP SWAP3 JUMP JUMPDEST PUSH0 PUSH1 0x20 DUP3 DUP5 SUB SLT ISZERO PUSH2 0x188D JUMPI PUSH2 0x188C PUSH2 0x172F JUMP JUMPDEST JUMPDEST PUSH0 PUSH2 0x189A DUP5 DUP3 DUP6 ADD PUSH2 0x1779 JUMP JUMPDEST SWAP2 POP POP SWAP3 SWAP2 POP POP JUMP JUMPDEST PUSH32 0x4E487B7100000000000000000000000000000000000000000000000000000000 PUSH0 MSTORE PUSH1 0x21 PUSH1 0x4 MSTORE PUSH1 0x24 PUSH0 REVERT JUMPDEST PUSH1 0x4 DUP2 LT PUSH2 0x18E1 JUMPI PUSH2 0x18E0 PUSH2 0x18A3 JUMP JUMPDEST JUMPDEST POP JUMP JUMPDEST PUSH0 DUP2 SWAP1 POP PUSH2 0x18F1 DUP3 PUSH2 0x18D0 JUMP JUMPDEST SWAP2 SWAP1 POP JUMP JUMPDEST PUSH0 PUSH2 0x1900 DUP3 PUSH2 0x18E4 JUMP JUMPDEST SWAP1 POP SWAP2 SWAP1 POP JUMP JUMPDEST PUSH2 0x1910 DUP2 PUSH2 0x18F6 JUMP JUMPDEST DUP3 MSTORE POP POP JUMP JUMPDEST PUSH0 PUSH1 0x20 DUP3 ADD SWAP1 POP PUSH2 0x1929 PUSH0 DUP4 ADD DUP5 PUSH2 0x1907 JUMP JUMPDEST SWAP3 SWAP2 POP POP JUMP JUMPDEST PUSH2 0x1938 DUP2 PUSH2 0x1752 JUMP JUMPDEST DUP3 MSTORE POP POP JUMP JUMPDEST PUSH0 PUSH1 0x20 DUP3 ADD SWAP1 POP PUSH2 0x1951 PUSH0 DUP4 ADD DUP5 PUSH2 0x192F JUMP JUMPDEST SWAP3 SWAP2 POP POP JUMP JUMPDEST PUSH0 PUSH2 0x1961 DUP3 PUSH2 0x1733 JUMP JUMPDEST SWAP1 POP SWAP2 SWAP1 POP JUMP JUMPDEST PUSH2 0x1971 DUP2 PUSH2 0x1957 JUMP JUMPDEST DUP2 EQ PUSH2 0x197B JUMPI PUSH0 DUP1 REVERT JUMPDEST POP JUMP JUMPDEST PUSH0 DUP2 CALLDATALOAD SWAP1 POP PUSH2 0x198C DUP2 PUSH2 0x1968 JUMP JUMPDEST SWAP3 SWAP2 POP POP JUMP JUMPDEST PUSH0 PUSH1 0x20 DUP3 DUP5 SUB SLT ISZERO PUSH2 0x19A7 JUMPI PUSH2 0x19A6 PUSH2 0x172F JUMP JUMPDEST JUMPDEST PUSH0 PUSH2 0x19B4 DUP5 DUP3 DUP6 ADD PUSH2 0x197E JUMP JUMPDEST SWAP2 POP POP SWAP3 SWAP2 POP POP JUMP JUMPDEST PUSH2 0x19C6 DUP2 PUSH2 0x1957 JUMP JUMPDEST DUP3 MSTORE POP POP JUMP JUMPDEST PUSH0 PUSH1 0x20 DUP3 ADD SWAP1 POP PUSH2 0x19DF PUSH0 DUP4 ADD DUP5 PUSH2 0x19BD JUMP JUMPDEST SWAP3 SWAP2 POP POP JUMP JUMPDEST PUSH0 DUP1 PUSH1 0x40 DUP4 DUP6 SUB SLT ISZERO PUSH2 0x19FB JUMPI PUSH2 0x19FA PUSH2 0x172F JUMP JUMPDEST JUMPDEST PUSH0 PUSH2 0x1A08 DUP6 DUP3 DUP7 ADD PUSH2 0x1779 JUMP JUMPDEST SWAP3 POP POP PUSH1 0x20 PUSH2 0x1A19 DUP6 DUP3 DUP7 ADD PUSH2 0x1779 JUMP JUMPDEST SWAP2 POP POP SWAP3 POP SWAP3 SWAP1 POP JUMP JUMPDEST PUSH32 0x49434F206973206E6F742072756E6E696E670000000000000000000000000000 PUSH0 DUP3 ADD MSTORE POP JUMP JUMPDEST PUSH0 PUSH2 0x1A57 PUSH1 0x12 DUP4 PUSH2 0x168F JUMP JUMPDEST SWAP2 POP PUSH2 0x1A62 DUP3 PUSH2 0x1A23 JUMP JUMPDEST PUSH1 0x20 DUP3 ADD SWAP1 POP SWAP2 SWAP1 POP JUMP JUMPDEST PUSH0 PUSH1 0x20 DUP3 ADD SWAP1 POP DUP2 DUP2 SUB PUSH0 DUP4 ADD MSTORE PUSH2 0x1A84 DUP2 PUSH2 0x1A4B JUMP JUMPDEST SWAP1 POP SWAP2 SWAP1 POP JUMP JUMPDEST PUSH32 0x496E766573746E6D656E742076616C75652073686F756C642062652062657477 PUSH0 DUP3 ADD MSTORE PUSH32 0x65656E20302E312045544820616E642035204554480000000000000000000000 PUSH1 0x20 DUP3 ADD MSTORE POP JUMP JUMPDEST PUSH0 PUSH2 0x1AE5 PUSH1 0x35 DUP4 PUSH2 0x168F JUMP JUMPDEST SWAP2 POP PUSH2 0x1AF0 DUP3 PUSH2 0x1A8B JUMP JUMPDEST PUSH1 0x40 DUP3 ADD SWAP1 POP SWAP2 SWAP1 POP JUMP JUMPDEST PUSH0 PUSH1 0x20 DUP3 ADD SWAP1 POP DUP2 DUP2 SUB PUSH0 DUP4 ADD MSTORE PUSH2 0x1B12 DUP2 PUSH2 0x1AD9 JUMP JUMPDEST SWAP1 POP SWAP2 SWAP1 POP JUMP JUMPDEST PUSH32 0x4E487B7100000000000000000000000000000000000000000000000000000000 PUSH0 MSTORE PUSH1 0x11 PUSH1 0x4 MSTORE PUSH1 0x24 PUSH0 REVERT JUMPDEST PUSH0 PUSH2 0x1B50 DUP3 PUSH2 0x1654 JUMP JUMPDEST SWAP2 POP PUSH2 0x1B5B DUP4 PUSH2 0x1654 JUMP JUMPDEST SWAP3 POP DUP3 DUP3 ADD SWAP1 POP DUP1 DUP3 GT ISZERO PUSH2 0x1B73 JUMPI PUSH2 0x1B72 PUSH2 0x1B19 JUMP JUMPDEST JUMPDEST SWAP3 SWAP2 POP POP JUMP JUMPDEST PUSH32 0x546F74616C2072616973656420616D6F756E742073686F756C64206E6F742062 PUSH0 DUP3 ADD MSTORE PUSH32 0x65206D6F7265207468616E204861726420436170000000000000000000000000 PUSH1 0x20 DUP3 ADD MSTORE POP JUMP JUMPDEST PUSH0 PUSH2 0x1BD3 PUSH1 0x34 DUP4 PUSH2 0x168F JUMP JUMPDEST SWAP2 POP PUSH2 0x1BDE DUP3 PUSH2 0x1B79 JUMP JUMPDEST PUSH1 0x40 DUP3 ADD SWAP1 POP SWAP2 SWAP1 POP JUMP JUMPDEST PUSH0 PUSH1 0x20 DUP3 ADD SWAP1 POP DUP2 DUP2 SUB PUSH0 DUP4 ADD MSTORE PUSH2 0x1C00 DUP2 PUSH2 0x1BC7 JUMP JUMPDEST SWAP1 POP SWAP2 SWAP1 POP JUMP JUMPDEST PUSH32 0x4E487B7100000000000000000000000000000000000000000000000000000000 PUSH0 MSTORE PUSH1 0x12 PUSH1 0x4 MSTORE PUSH1 0x24 PUSH0 REVERT JUMPDEST PUSH0 PUSH2 0x1C3E DUP3 PUSH2 0x1654 JUMP JUMPDEST SWAP2 POP PUSH2 0x1C49 DUP4 PUSH2 0x1654 JUMP JUMPDEST SWAP3 POP DUP3 PUSH2 0x1C59 JUMPI PUSH2 0x1C58 PUSH2 0x1C07 JUMP JUMPDEST JUMPDEST DUP3 DUP3 DIV SWAP1 POP SWAP3 SWAP2 POP POP JUMP JUMPDEST PUSH0 PUSH2 0x1C6E DUP3 PUSH2 0x1654 JUMP JUMPDEST SWAP2 POP PUSH2 0x1C79 DUP4 PUSH2 0x1654 JUMP JUMPDEST SWAP3 POP DUP3 DUP3 SUB SWAP1 POP DUP2 DUP2 GT ISZERO PUSH2 0x1C91 JUMPI PUSH2 0x1C90 PUSH2 0x1B19 JUMP JUMPDEST JUMPDEST SWAP3 SWAP2 POP POP JUMP JUMPDEST PUSH0 PUSH1 0x60 DUP3 ADD SWAP1 POP PUSH2 0x1CAA PUSH0 DUP4 ADD DUP7 PUSH2 0x192F JUMP JUMPDEST PUSH2 0x1CB7 PUSH1 0x20 DUP4 ADD DUP6 PUSH2 0x165D JUMP JUMPDEST PUSH2 0x1CC4 PUSH1 0x40 DUP4 ADD DUP5 PUSH2 0x165D JUMP JUMPDEST SWAP5 SWAP4 POP POP POP POP JUMP JUMPDEST PUSH32 0x4F6E6C792061646D696E20697320616C6C6F7765640000000000000000000000 PUSH0 DUP3 ADD MSTORE POP JUMP JUMPDEST PUSH0 PUSH2 0x1D00 PUSH1 0x15 DUP4 PUSH2 0x168F JUMP JUMPDEST SWAP2 POP PUSH2 0x1D0B DUP3 PUSH2 0x1CCC JUMP JUMPDEST PUSH1 0x20 DUP3 ADD SWAP1 POP SWAP2 SWAP1 POP JUMP JUMPDEST PUSH0 PUSH1 0x20 DUP3 ADD SWAP1 POP DUP2 DUP2 SUB PUSH0 DUP4 ADD MSTORE PUSH2 0x1D2D DUP2 PUSH2 0x1CF4 JUMP JUMPDEST SWAP1 POP SWAP2 SWAP1 POP JUMP JUMPDEST PUSH32 0x4E487B7100000000000000000000000000000000000000000000000000000000 PUSH0 MSTORE PUSH1 0x22 PUSH1 0x4 MSTORE PUSH1 0x24 PUSH0 REVERT JUMPDEST PUSH0 PUSH1 0x2 DUP3 DIV SWAP1 POP PUSH1 0x1 DUP3 AND DUP1 PUSH2 0x1D78 JUMPI PUSH1 0x7F DUP3 AND SWAP2 POP JUMPDEST PUSH1 0x20 DUP3 LT DUP2 SUB PUSH2 0x1D8B JUMPI PUSH2 0x1D8A PUSH2 0x1D34 JUMP JUMPDEST JUMPDEST POP SWAP2 SWAP1 POP JUMP JUMPDEST PUSH32 0x746F6B656E732073686F756C642062652067726561746572207468616E203000 PUSH0 DUP3 ADD MSTORE POP JUMP JUMPDEST PUSH0 PUSH2 0x1DC5 PUSH1 0x1F DUP4 PUSH2 0x168F JUMP JUMPDEST SWAP2 POP PUSH2 0x1DD0 DUP3 PUSH2 0x1D91 JUMP JUMPDEST PUSH1 0x20 DUP3 ADD SWAP1 POP SWAP2 SWAP1 POP JUMP JUMPDEST PUSH0 PUSH1 0x20 DUP3 ADD SWAP1 POP DUP2 DUP2 SUB PUSH0 DUP4 ADD MSTORE PUSH2 0x1DF2 DUP2 PUSH2 0x1DB9 JUMP JUMPDEST SWAP1 POP SWAP2 SWAP1 POP JUMP JUMPDEST PUSH32 0x42616C616E636520697320696E737566666963656E7400000000000000000000 PUSH0 DUP3 ADD MSTORE POP JUMP JUMPDEST PUSH0 PUSH2 0x1E2D PUSH1 0x16 DUP4 PUSH2 0x168F JUMP JUMPDEST SWAP2 POP PUSH2 0x1E38 DUP3 PUSH2 0x1DF9 JUMP JUMPDEST PUSH1 0x20 DUP3 ADD SWAP1 POP SWAP2 SWAP1 POP JUMP JUMPDEST PUSH0 PUSH1 0x20 DUP3 ADD SWAP1 POP DUP2 DUP2 SUB PUSH0 DUP4 ADD MSTORE PUSH2 0x1E5A DUP2 PUSH2 0x1E21 JUMP JUMPDEST SWAP1 POP SWAP2 SWAP1 POP JUMP JUMPDEST PUSH32 0x546F6B656E2063616E6E6F7420626520747261746564207269676874206E6F77 PUSH0 DUP3 ADD MSTORE POP JUMP JUMPDEST PUSH0 PUSH2 0x1E95 PUSH1 0x20 DUP4 PUSH2 0x168F JUMP JUMPDEST SWAP2 POP PUSH2 0x1EA0 DUP3 PUSH2 0x1E61 JUMP JUMPDEST PUSH1 0x20 DUP3 ADD SWAP1 POP SWAP2 SWAP1 POP JUMP JUMPDEST PUSH0 PUSH1 0x20 DUP3 ADD SWAP1 POP DUP2 DUP2 SUB PUSH0 DUP4 ADD MSTORE PUSH2 0x1EC2 DUP2 PUSH2 0x1E89 JUMP JUMPDEST SWAP1 POP SWAP2 SWAP1 POP JUMP JUMPDEST PUSH32 0x546F6B656E732063616E206265206275726E656420696E206F6E6C7920616674 PUSH0 DUP3 ADD MSTORE PUSH32 0x657220656E642073746174650000000000000000000000000000000000000000 PUSH1 0x20 DUP3 ADD MSTORE POP JUMP JUMPDEST PUSH0 PUSH2 0x1F23 PUSH1 0x2C DUP4 PUSH2 0x168F JUMP JUMPDEST SWAP2 POP PUSH2 0x1F2E DUP3 PUSH2 0x1EC9 JUMP JUMPDEST PUSH1 0x40 DUP3 ADD SWAP1 POP SWAP2 SWAP1 POP JUMP JUMPDEST PUSH0 PUSH1 0x20 DUP3 ADD SWAP1 POP DUP2 DUP2 SUB PUSH0 DUP4 ADD MSTORE PUSH2 0x1F50 DUP2 PUSH2 0x1F17 JUMP JUMPDEST SWAP1 POP SWAP2 SWAP1 POP JUMP INVALID LOG2 PUSH5 0x6970667358 0x22 SLT KECCAK256 NUMBER TIMESTAMP DUP1 0xEC PUSH23 0xCA7A3468962C6BE00BFACC7C9FC2B43E721979821E7F48 INVALID DUP3 DUP2 EXP PUSH5 0x736F6C6343 STOP ADDMOD AND STOP CALLER "
				},
				"gasEstimates": {
					"creation": {
						"codeDepositCost": "1615400",
						"executionCost": "infinite",
						"totalCost": "infinite"
					},
					"external": {
						"admin()": "2596",
						"allowance(address,address)": "infinite",
						"approve(address,uint256)": "infinite",
						"balanceOf(address)": "2897",
						"balances(address)": "2848",
						"burn()": "35629",
						"changeDepositAddress(address)": "26930",
						"decimals()": "2493",
						"deposit()": "2597",
						"founder()": "2597",
						"getCurrentState()": "9123",
						"halt()": "26709",
						"hardCap()": "2535",
						"icoState()": "2621",
						"invest()": "infinite",
						"maxInverstment()": "2449",
						"minInverstment()": "2470",
						"name()": "infinite",
						"resume()": "26644",
						"saleEnd()": "2536",
						"saleStart()": "2492",
						"symbol()": "infinite",
						"tokenTradeStart()": "2492",
						"totalRaisedAmount()": "2514",
						"totalSupply()": "2537",
						"transfer(address,uint256)": "infinite",
						"transferFrom(address,address,uint256)": "infinite"
					}
				},
				"methodIdentifiers": {
					"admin()": "f851a440",
					"allowance(address,address)": "dd62ed3e",
					"approve(address,uint256)": "095ea7b3",
					"balanceOf(address)": "70a08231",
					"balances(address)": "27e235e3",
					"burn()": "44df8e70",
					"changeDepositAddress(address)": "6d58c88f",
					"decimals()": "313ce567",
					"deposit()": "d0e30db0",
					"founder()": "4d853ee5",
					"getCurrentState()": "378aa701",
					"halt()": "5ed7ca5b",
					"hardCap()": "fb86a404",
					"icoState()": "44f38756",
					"invest()": "e8b5e51f",
					"maxInverstment()": "046383a2",
					"minInverstment()": "c4f2e0ec",
					"name()": "06fdde03",
					"resume()": "046f7da2",
					"saleEnd()": "c10b9358",
					"saleStart()": "ab0bcc41",
					"symbol()": "95d89b41",
					"tokenTradeStart()": "cc9ba583",
					"totalRaisedAmount()": "ac369bb5",
					"totalSupply()": "18160ddd",
					"transfer(address,uint256)": "a9059cbb",
					"transferFrom(address,address,uint256)": "23b872dd"
				}
			},
			"storageLayout": {
				"storage": [
					{
						"astId": 73,
						"contract": "contracts/erc20.sol:CryptosICO",
						"label": "name",
						"offset": 0,
						"slot": "0",
						"type": "t_string_storage"
					},
					{
						"astId": 76,
						"contract": "contracts/erc20.sol:CryptosICO",
						"label": "symbol",
						"offset": 0,
						"slot": "1",
						"type": "t_string_storage"
					},
					{
						"astId": 79,
						"contract": "contracts/erc20.sol:CryptosICO",
						"label": "decimals",
						"offset": 0,
						"slot": "2",
						"type": "t_uint256"
					},
					{
						"astId": 82,
						"contract": "contracts/erc20.sol:CryptosICO",
						"label": "totalSupply",
						"offset": 0,
						"slot": "3",
						"type": "t_uint256"
					},
					{
						"astId": 84,
						"contract": "contracts/erc20.sol:CryptosICO",
						"label": "founder",
						"offset": 0,
						"slot": "4",
						"type": "t_address"
					},
					{
						"astId": 88,
						"contract": "contracts/erc20.sol:CryptosICO",
						"label": "balances",
						"offset": 0,
						"slot": "5",
						"type": "t_mapping(t_address,t_uint256)"
					},
					{
						"astId": 94,
						"contract": "contracts/erc20.sol:CryptosICO",
						"label": "allowed",
						"offset": 0,
						"slot": "6",
						"type": "t_mapping(t_address,t_mapping(t_address,t_uint256))"
					},
					{
						"astId": 299,
						"contract": "contracts/erc20.sol:CryptosICO",
						"label": "admin",
						"offset": 0,
						"slot": "7",
						"type": "t_address"
					},
					{
						"astId": 301,
						"contract": "contracts/erc20.sol:CryptosICO",
						"label": "deposit",
						"offset": 0,
						"slot": "8",
						"type": "t_address_payable"
					},
					{
						"astId": 304,
						"contract": "contracts/erc20.sol:CryptosICO",
						"label": "tokenPrice",
						"offset": 0,
						"slot": "9",
						"type": "t_uint256"
					},
					{
						"astId": 307,
						"contract": "contracts/erc20.sol:CryptosICO",
						"label": "hardCap",
						"offset": 0,
						"slot": "10",
						"type": "t_uint256"
					},
					{
						"astId": 309,
						"contract": "contracts/erc20.sol:CryptosICO",
						"label": "totalRaisedAmount",
						"offset": 0,
						"slot": "11",
						"type": "t_uint256"
					},
					{
						"astId": 313,
						"contract": "contracts/erc20.sol:CryptosICO",
						"label": "saleStart",
						"offset": 0,
						"slot": "12",
						"type": "t_uint256"
					},
					{
						"astId": 319,
						"contract": "contracts/erc20.sol:CryptosICO",
						"label": "saleEnd",
						"offset": 0,
						"slot": "13",
						"type": "t_uint256"
					},
					{
						"astId": 324,
						"contract": "contracts/erc20.sol:CryptosICO",
						"label": "tokenTradeStart",
						"offset": 0,
						"slot": "14",
						"type": "t_uint256"
					},
					{
						"astId": 327,
						"contract": "contracts/erc20.sol:CryptosICO",
						"label": "maxInverstment",
						"offset": 0,
						"slot": "15",
						"type": "t_uint256"
					},
					{
						"astId": 330,
						"contract": "contracts/erc20.sol:CryptosICO",
						"label": "minInverstment",
						"offset": 0,
						"slot": "16",
						"type": "t_uint256"
					},
					{
						"astId": 338,
						"contract": "contracts/erc20.sol:CryptosICO",
						"label": "icoState",
						"offset": 0,
						"slot": "17",
						"type": "t_enum(State)335"
					}
				],
				"types": {
					"t_address": {
						"encoding": "inplace",
						"label": "address",
						"numberOfBytes": "20"
					},
					"t_address_payable": {
						"encoding": "inplace",
						"label": "address payable",
						"numberOfBytes": "20"
					},
					"t_enum(State)335": {
						"encoding": "inplace",
						"label": "enum CryptosICO.State",
						"numberOfBytes": "1"
					},
					"t_mapping(t_address,t_mapping(t_address,t_uint256))": {
						"encoding": "mapping",
						"key": "t_address",
						"label": "mapping(address => mapping(address => uint256))",
						"numberOfBytes": "32",
						"value": "t_mapping(t_address,t_uint256)"
					},
					"t_mapping(t_address,t_uint256)": {
						"encoding": "mapping",
						"key": "t_address",
						"label": "mapping(address => uint256)",
						"numberOfBytes": "32",
						"value": "t_uint256"
					},
					"t_string_storage": {
						"encoding": "bytes",
						"label": "string",
						"numberOfBytes": "32"
					},
					"t_uint256": {
						"encoding": "inplace",
						"label": "uint256",
						"numberOfBytes": "32"
					}
				}
			},
			"userdoc": {
				"kind": "user",
				"methods": {},
				"version": 1
			}
		}
	}
}